{
  "_format": "hh-sol-artifact-1",
  "contractName": "MarketItemFactory",
  "sourceName": "contracts/MarketItemFactory.sol",
  "abi": [
    {
      "anonymous": false,
      "inputs": [
        {
          "indexed": true,
          "internalType": "address",
          "name": "itemAddress",
          "type": "address"
        },
        {
          "indexed": true,
          "internalType": "address",
          "name": "owner",
          "type": "address"
        }
      ],
      "name": "MarketItemCreated",
      "type": "event"
    },
    {
      "anonymous": false,
      "inputs": [
        {
          "indexed": true,
          "internalType": "address",
          "name": "previousOwner",
          "type": "address"
        },
        {
          "indexed": true,
          "internalType": "address",
          "name": "newOwner",
          "type": "address"
        }
      ],
      "name": "OwnershipTransferred",
      "type": "event"
    },
    {
      "inputs": [
        {
          "internalType": "address",
          "name": "",
          "type": "address"
        }
      ],
      "name": "collectionToOwner",
      "outputs": [
        {
          "internalType": "address",
          "name": "",
          "type": "address"
        }
      ],
      "stateMutability": "view",
      "type": "function"
    },
    {
      "inputs": [
        {
          "internalType": "uint256",
          "name": "",
          "type": "uint256"
        }
      ],
      "name": "collections",
      "outputs": [
        {
          "internalType": "address",
          "name": "",
          "type": "address"
        }
      ],
      "stateMutability": "view",
      "type": "function"
    },
    {
      "inputs": [
        {
          "internalType": "string",
          "name": "_name",
          "type": "string"
        },
        {
          "internalType": "string",
          "name": "_symbol",
          "type": "string"
        }
      ],
      "name": "createMarketItem",
      "outputs": [],
      "stateMutability": "nonpayable",
      "type": "function"
    },
    {
      "inputs": [],
      "name": "getCollectionCount",
      "outputs": [
        {
          "internalType": "uint256",
          "name": "",
          "type": "uint256"
        }
      ],
      "stateMutability": "view",
      "type": "function"
    },
    {
      "inputs": [],
      "name": "getCollections",
      "outputs": [
        {
          "internalType": "address[]",
          "name": "",
          "type": "address[]"
        }
      ],
      "stateMutability": "view",
      "type": "function"
    },
    {
      "inputs": [
        {
          "internalType": "address",
          "name": "_owner",
          "type": "address"
        }
      ],
      "name": "getCollectionsForOwner",
      "outputs": [
        {
          "internalType": "address[]",
          "name": "",
          "type": "address[]"
        }
      ],
      "stateMutability": "view",
      "type": "function"
    },
    {
      "inputs": [
        {
          "internalType": "address",
          "name": "_collection",
          "type": "address"
        }
      ],
      "name": "getOwnerOfCollection",
      "outputs": [
        {
          "internalType": "address",
          "name": "",
          "type": "address"
        }
      ],
      "stateMutability": "view",
      "type": "function"
    },
    {
      "inputs": [],
      "name": "owner",
      "outputs": [
        {
          "internalType": "address",
          "name": "",
          "type": "address"
        }
      ],
      "stateMutability": "view",
      "type": "function"
    },
    {
      "inputs": [
        {
          "internalType": "address",
          "name": "",
          "type": "address"
        },
        {
          "internalType": "uint256",
          "name": "",
          "type": "uint256"
        }
      ],
      "name": "ownerToCollections",
      "outputs": [
        {
          "internalType": "address",
          "name": "",
          "type": "address"
        }
      ],
      "stateMutability": "view",
      "type": "function"
    },
    {
      "inputs": [],
      "name": "renounceOwnership",
      "outputs": [],
      "stateMutability": "nonpayable",
      "type": "function"
    },
    {
      "inputs": [
        {
          "internalType": "address",
          "name": "newOwner",
          "type": "address"
        }
      ],
      "name": "transferOwnership",
      "outputs": [],
      "stateMutability": "nonpayable",
      "type": "function"
    }
  ],
  "bytecode": "0x608060405234801561001057600080fd5b5061001a3361001f565b61006f565b600080546001600160a01b038381166001600160a01b0319831681178455604051919092169283917f8be0079c531659141344cd1fd0a4f28419497f9722a3daafe3b4186f6b6457e09190a35050565b6128148061007e6000396000f3fe60806040523480156200001157600080fd5b5060043610620000c85760003560e01c806362081712116200008b5780638da5cb5b11620000625780638da5cb5b14620001c1578063f2fde38b14620001d3578063fdbda0ec14620001ea57600080fd5b806362081712146200017157806366ca3cd314620001a0578063715018a614620001b757600080fd5b80630ce4180014620000cd5780631c10106f14620000e657806340045db614620000fc57806346e63586146200014157806348d79ed4146200015a575b600080fd5b620000e4620000de366004620006ad565b62000201565b005b6003546040519081526020015b60405180910390f35b620001286200010d36600462000735565b6001602052600090815260409020546001600160a01b031681565b6040516001600160a01b039091168152602001620000f3565b6200014b62000360565b604051620000f391906200075a565b620001286200016b366004620007a9565b620003c4565b620001286200018236600462000735565b6001600160a01b039081166000908152600160205260409020541690565b6200014b620001b136600462000735565b620003fd565b620000e462000475565b6000546001600160a01b031662000128565b620000e4620001e436600462000735565b6200048d565b62000128620001fb366004620007d6565b62000510565b600082826040516200021390620005f4565b6200022092919062000838565b604051809103906000f0801580156200023d573d6000803e3d6000fd5b5060405163f2fde38b60e01b81523360048201529091506001600160a01b0382169063f2fde38b90602401600060405180830381600087803b1580156200028357600080fd5b505af115801562000298573d6000803e3d6000fd5b50506003805460018181019092557fc2575a0e9e593c00f959f8c92f12db2869c3395a3b0502d05e2516446f71f85b0180546001600160a01b03861673ffffffffffffffffffffffffffffffffffffffff1991821681179092556000828152602084815260408083208054851633908117909155808452600283528184208054978801815584529183209095018054909316841790925592519094509092507f2ed77352da7fdb0e1292e9bc4154a60dc6c6b52750d3b62d3b1e58cd10f3047f9190a3505050565b60606003805480602002602001604051908101604052809291908181526020018280548015620003ba57602002820191906000526020600020905b81546001600160a01b031681526001909101906020018083116200039b575b5050505050905090565b60026020528160005260406000208181548110620003e157600080fd5b6000918252602090912001546001600160a01b03169150829050565b6001600160a01b0381166000908152600260209081526040918290208054835181840281018401909452808452606093928301828280156200046957602002820191906000526020600020905b81546001600160a01b031681526001909101906020018083116200044a575b50505050509050919050565b6200047f6200053b565b6200048b600062000597565b565b620004976200053b565b6001600160a01b038116620005025760405162461bcd60e51b815260206004820152602660248201527f4f776e61626c653a206e6577206f776e657220697320746865207a65726f206160448201526564647265737360d01b60648201526084015b60405180910390fd5b6200050d8162000597565b50565b600381815481106200052157600080fd5b6000918252602090912001546001600160a01b0316905081565b6000546001600160a01b031633146200048b5760405162461bcd60e51b815260206004820181905260248201527f4f776e61626c653a2063616c6c6572206973206e6f7420746865206f776e65726044820152606401620004f9565b600080546001600160a01b0383811673ffffffffffffffffffffffffffffffffffffffff19831681178455604051919092169283917f8be0079c531659141344cd1fd0a4f28419497f9722a3daafe3b4186f6b6457e09190a35050565b611f74806200086b83390190565b634e487b7160e01b600052604160045260246000fd5b600082601f8301126200062a57600080fd5b813567ffffffffffffffff8082111562000648576200064862000602565b604051601f8301601f19908116603f0116810190828211818310171562000673576200067362000602565b816040528381528660208588010111156200068d57600080fd5b836020870160208301376000602085830101528094505050505092915050565b60008060408385031215620006c157600080fd5b823567ffffffffffffffff80821115620006da57600080fd5b620006e88683870162000618565b93506020850135915080821115620006ff57600080fd5b506200070e8582860162000618565b9150509250929050565b80356001600160a01b03811681146200073057600080fd5b919050565b6000602082840312156200074857600080fd5b620007538262000718565b9392505050565b6020808252825182820181905260009190848201906040850190845b818110156200079d5783516001600160a01b03168352928401929184019160010162000776565b50909695505050505050565b60008060408385031215620007bd57600080fd5b620007c88362000718565b946020939093013593505050565b600060208284031215620007e957600080fd5b5035919050565b6000815180845260005b818110156200081857602081850181015186830182015201620007fa565b506000602082860101526020601f19601f83011685010191505092915050565b6040815260006200084d6040830185620007f0565b8281036020840152620008618185620007f0565b9594505050505056fe60806040523480156200001157600080fd5b5060405162001f7438038062001f74833981016040819052620000349162000193565b818160006200004483826200028c565b5060016200005382826200028c565b505050620000706200006a6200007860201b60201c565b6200007c565b505062000358565b3390565b600780546001600160a01b038381166001600160a01b0319831681179093556040519116919082907f8be0079c531659141344cd1fd0a4f28419497f9722a3daafe3b4186f6b6457e090600090a35050565b634e487b7160e01b600052604160045260246000fd5b600082601f830112620000f657600080fd5b81516001600160401b0380821115620001135762000113620000ce565b604051601f8301601f19908116603f011681019082821181831017156200013e576200013e620000ce565b816040528381526020925086838588010111156200015b57600080fd5b600091505b838210156200017f578582018301518183018401529082019062000160565b600093810190920192909252949350505050565b60008060408385031215620001a757600080fd5b82516001600160401b0380821115620001bf57600080fd5b620001cd86838701620000e4565b93506020850151915080821115620001e457600080fd5b50620001f385828601620000e4565b9150509250929050565b600181811c908216806200021257607f821691505b6020821081036200023357634e487b7160e01b600052602260045260246000fd5b50919050565b601f8211156200028757600081815260208120601f850160051c81016020861015620002625750805b601f850160051c820191505b8181101562000283578281556001016200026e565b5050505b505050565b81516001600160401b03811115620002a857620002a8620000ce565b620002c081620002b98454620001fd565b8462000239565b602080601f831160018114620002f85760008415620002df5750858301515b600019600386901b1c1916600185901b17855562000283565b600085815260208120601f198616915b82811015620003295788860151825594840194600190910190840162000308565b5085821015620003485787850151600019600388901b60f8161c191681555b5050505050600190811b01905550565b611c0c80620003686000396000f3fe608060405234801561001057600080fd5b50600436106101215760003560e01c806370a08231116100ad578063b88d4fde11610071578063b88d4fde1461024c578063c87b56dd1461025f578063d204c45e14610272578063e985e9c514610285578063f2fde38b146102c157600080fd5b806370a0823114610205578063715018a6146102185780638da5cb5b1461022057806395d89b4114610231578063a22cb4651461023957600080fd5b806323b872dd116100f457806323b872dd146101a357806342842e0e146101b657806342966c68146101c957806354279637146101dc5780636352211e146101f257600080fd5b806301ffc9a71461012657806306fdde031461014e578063081812fc14610163578063095ea7b31461018e575b600080fd5b6101396101343660046116bb565b6102d4565b60405190151581526020015b60405180910390f35b610156610326565b6040516101459190611728565b61017661017136600461173b565b6103b8565b6040516001600160a01b039091168152602001610145565b6101a161019c366004611770565b6103df565b005b6101a16101b136600461179a565b610517565b6101a16101c436600461179a565b61058f565b6101a16101d736600461173b565b6105aa565b6101e4610621565b604051908152602001610145565b61017661020036600461173b565b61063d565b6101e46102133660046117d6565b6106a2565b6101a1610728565b6007546001600160a01b0316610176565b61015661073c565b6101a16102473660046117f1565b61074b565b6101a161025a3660046118b9565b61075a565b61015661026d36600461173b565b6107d8565b6101a1610280366004611935565b6107e3565b610139610293366004611997565b6001600160a01b03918216600090815260056020908152604080832093909416825291909152205460ff1690565b6101a16102cf3660046117d6565b61081a565b60006001600160e01b031982166380ac58cd60e01b148061030557506001600160e01b03198216635b5e139f60e01b145b8061032057506301ffc9a760e01b6001600160e01b03198316145b92915050565b606060008054610335906119ca565b80601f0160208091040260200160405190810160405280929190818152602001828054610361906119ca565b80156103ae5780601f10610383576101008083540402835291602001916103ae565b820191906000526020600020905b81548152906001019060200180831161039157829003601f168201915b5050505050905090565b60006103c382610890565b506000908152600460205260409020546001600160a01b031690565b60006103ea8261063d565b9050806001600160a01b0316836001600160a01b03160361045c5760405162461bcd60e51b815260206004820152602160248201527f4552433732313a20617070726f76616c20746f2063757272656e74206f776e656044820152603960f91b60648201526084015b60405180910390fd5b336001600160a01b038216148061049657506001600160a01b038116600090815260056020908152604080832033845290915290205460ff165b6105085760405162461bcd60e51b815260206004820152603d60248201527f4552433732313a20617070726f76652063616c6c6572206973206e6f7420746f60448201527f6b656e206f776e6572206f7220617070726f76656420666f7220616c6c0000006064820152608401610453565b61051283836108f4565b505050565b610522335b82610962565b6105845760405162461bcd60e51b815260206004820152602d60248201527f4552433732313a2063616c6c6572206973206e6f7420746f6b656e206f776e6560448201526c1c881bdc88185c1c1c9bdd9959609a1b6064820152608401610453565b6105128383836109e1565b6105128383836040518060200160405280600081525061075a565b6105b33361051c565b6106155760405162461bcd60e51b815260206004820152602d60248201527f4552433732313a2063616c6c6572206973206e6f7420746f6b656e206f776e6560448201526c1c881bdc88185c1c1c9bdd9959609a1b6064820152608401610453565b61061e81610bce565b50565b6000600161062e60085490565b6106389190611a1a565b905090565b6000818152600260205260408120546001600160a01b0316806103205760405162461bcd60e51b815260206004820152601860248201527f4552433732313a20696e76616c696420746f6b656e20494400000000000000006044820152606401610453565b60006001600160a01b03821661070c5760405162461bcd60e51b815260206004820152602960248201527f4552433732313a2061646472657373207a65726f206973206e6f7420612076616044820152683634b21037bbb732b960b91b6064820152608401610453565b506001600160a01b031660009081526003602052604090205490565b610730610bd7565b61073a6000610c31565b565b606060018054610335906119ca565b610756338383610c83565b5050565b6107643383610962565b6107c65760405162461bcd60e51b815260206004820152602d60248201527f4552433732313a2063616c6c6572206973206e6f7420746f6b656e206f776e6560448201526c1c881bdc88185c1c1c9bdd9959609a1b6064820152608401610453565b6107d284848484610d51565b50505050565b606061032082610dcf565b6107eb610bd7565b60006107f660085490565b9050610806600880546001019055565b6108108382610ed7565b6105128183610ef1565b610822610bd7565b6001600160a01b0381166108875760405162461bcd60e51b815260206004820152602660248201527f4f776e61626c653a206e6577206f776e657220697320746865207a65726f206160448201526564647265737360d01b6064820152608401610453565b61061e81610c31565b6000818152600260205260409020546001600160a01b031661061e5760405162461bcd60e51b815260206004820152601860248201527f4552433732313a20696e76616c696420746f6b656e20494400000000000000006044820152606401610453565b600081815260046020526040902080546001600160a01b0319166001600160a01b03841690811790915581906109298261063d565b6001600160a01b03167f8c5be1e5ebec7d5bd14f71427d1e84f3dd0314c0f7b2291e5b200ac8c7c3b92560405160405180910390a45050565b60008061096e8361063d565b9050806001600160a01b0316846001600160a01b031614806109b557506001600160a01b0380821660009081526005602090815260408083209388168352929052205460ff165b806109d95750836001600160a01b03166109ce846103b8565b6001600160a01b0316145b949350505050565b826001600160a01b03166109f48261063d565b6001600160a01b031614610a585760405162461bcd60e51b815260206004820152602560248201527f4552433732313a207472616e736665722066726f6d20696e636f72726563742060448201526437bbb732b960d91b6064820152608401610453565b6001600160a01b038216610aba5760405162461bcd60e51b8152602060048201526024808201527f4552433732313a207472616e7366657220746f20746865207a65726f206164646044820152637265737360e01b6064820152608401610453565b610ac78383836001610f93565b826001600160a01b0316610ada8261063d565b6001600160a01b031614610b3e5760405162461bcd60e51b815260206004820152602560248201527f4552433732313a207472616e736665722066726f6d20696e636f72726563742060448201526437bbb732b960d91b6064820152608401610453565b600081815260046020908152604080832080546001600160a01b03199081169091556001600160a01b0387811680865260038552838620805460001901905590871680865283862080546001019055868652600290945282852080549092168417909155905184937fddf252ad1be2c89b69c2b068fc378daa952ba7f163c4a11628f55a4df523b3ef91a4505050565b61061e8161101b565b6007546001600160a01b0316331461073a5760405162461bcd60e51b815260206004820181905260248201527f4f776e61626c653a2063616c6c6572206973206e6f7420746865206f776e65726044820152606401610453565b600780546001600160a01b038381166001600160a01b0319831681179093556040519116919082907f8be0079c531659141344cd1fd0a4f28419497f9722a3daafe3b4186f6b6457e090600090a35050565b816001600160a01b0316836001600160a01b031603610ce45760405162461bcd60e51b815260206004820152601960248201527f4552433732313a20617070726f766520746f2063616c6c6572000000000000006044820152606401610453565b6001600160a01b03838116600081815260056020908152604080832094871680845294825291829020805460ff191686151590811790915591519182527f17307eab39ab6107e8899845ad3d59bd9653f200f220920489ca2b5937696c31910160405180910390a3505050565b610d5c8484846109e1565b610d688484848461105b565b6107d25760405162461bcd60e51b815260206004820152603260248201527f4552433732313a207472616e7366657220746f206e6f6e20455243373231526560448201527131b2b4bb32b91034b6b83632b6b2b73a32b960711b6064820152608401610453565b6060610dda82610890565b60008281526006602052604081208054610df3906119ca565b80601f0160208091040260200160405190810160405280929190818152602001828054610e1f906119ca565b8015610e6c5780601f10610e4157610100808354040283529160200191610e6c565b820191906000526020600020905b815481529060010190602001808311610e4f57829003601f168201915b505050505090506000610e8a60408051602081019091526000815290565b90508051600003610e9c575092915050565b815115610ece578082604051602001610eb6929190611a2d565b60405160208183030381529060405292505050919050565b6109d9846111a7565b61075682826040518060200160405280600081525061121b565b6000828152600260205260409020546001600160a01b0316610f7b5760405162461bcd60e51b815260206004820152602e60248201527f45524337323155524953746f726167653a2055524920736574206f66206e6f6e60448201527f6578697374656e7420746f6b656e0000000000000000000000000000000000006064820152608401610453565b60008281526006602052604090206105128282611aaa565b60018111156107d2576001600160a01b03841615610fd9576001600160a01b03841660009081526003602052604081208054839290610fd3908490611a1a565b90915550505b6001600160a01b038316156107d2576001600160a01b03831660009081526003602052604081208054839290611010908490611b6a565b909155505050505050565b61102481611299565b6000818152600660205260409020805461103d906119ca565b15905061061e57600081815260066020526040812061061e91611657565b60006001600160a01b0384163b1561119c57604051630a85bd0160e11b81526001600160a01b0385169063150b7a029061109f903390899088908890600401611b7d565b6020604051808303816000875af19250505080156110da575060408051601f3d908101601f191682019092526110d791810190611bb9565b60015b611182573d808015611108576040519150601f19603f3d011682016040523d82523d6000602084013e61110d565b606091505b50805160000361117a5760405162461bcd60e51b815260206004820152603260248201527f4552433732313a207472616e7366657220746f206e6f6e20455243373231526560448201527131b2b4bb32b91034b6b83632b6b2b73a32b960711b6064820152608401610453565b805181602001fd5b6001600160e01b031916630a85bd0160e11b1490506109d9565b506001949350505050565b60606111b282610890565b60006111c960408051602081019091526000815290565b905060008151116111e95760405180602001604052806000815250611214565b806111f38461133c565b604051602001611204929190611a2d565b6040516020818303038152906040525b9392505050565b61122583836113dc565b611232600084848461105b565b6105125760405162461bcd60e51b815260206004820152603260248201527f4552433732313a207472616e7366657220746f206e6f6e20455243373231526560448201527131b2b4bb32b91034b6b83632b6b2b73a32b960711b6064820152608401610453565b60006112a48261063d565b90506112b4816000846001610f93565b6112bd8261063d565b600083815260046020908152604080832080546001600160a01b03199081169091556001600160a01b0385168085526003845282852080546000190190558785526002909352818420805490911690555192935084927fddf252ad1be2c89b69c2b068fc378daa952ba7f163c4a11628f55a4df523b3ef908390a45050565b6060600061134983611575565b600101905060008167ffffffffffffffff8111156113695761136961182d565b6040519080825280601f01601f191660200182016040528015611393576020820181803683370190505b5090508181016020015b600019017f3031323334353637383961626364656600000000000000000000000000000000600a86061a8153600a850494508461139d57509392505050565b6001600160a01b0382166114325760405162461bcd60e51b815260206004820181905260248201527f4552433732313a206d696e7420746f20746865207a65726f20616464726573736044820152606401610453565b6000818152600260205260409020546001600160a01b0316156114975760405162461bcd60e51b815260206004820152601c60248201527f4552433732313a20746f6b656e20616c7265616479206d696e746564000000006044820152606401610453565b6114a5600083836001610f93565b6000818152600260205260409020546001600160a01b03161561150a5760405162461bcd60e51b815260206004820152601c60248201527f4552433732313a20746f6b656e20616c7265616479206d696e746564000000006044820152606401610453565b6001600160a01b038216600081815260036020908152604080832080546001019055848352600290915280822080546001600160a01b0319168417905551839291907fddf252ad1be2c89b69c2b068fc378daa952ba7f163c4a11628f55a4df523b3ef908290a45050565b6000807a184f03e93ff9f4daa797ed6e38ed64bf6a1f01000000000000000083106115be577a184f03e93ff9f4daa797ed6e38ed64bf6a1f010000000000000000830492506040015b6d04ee2d6d415b85acef810000000083106115ea576d04ee2d6d415b85acef8100000000830492506020015b662386f26fc10000831061160857662386f26fc10000830492506010015b6305f5e1008310611620576305f5e100830492506008015b612710831061163457612710830492506004015b60648310611646576064830492506002015b600a83106103205760010192915050565b508054611663906119ca565b6000825580601f10611673575050565b601f01602090049060005260206000209081019061061e91905b808211156116a1576000815560010161168d565b5090565b6001600160e01b03198116811461061e57600080fd5b6000602082840312156116cd57600080fd5b8135611214816116a5565b60005b838110156116f35781810151838201526020016116db565b50506000910152565b600081518084526117148160208601602086016116d8565b601f01601f19169290920160200192915050565b60208152600061121460208301846116fc565b60006020828403121561174d57600080fd5b5035919050565b80356001600160a01b038116811461176b57600080fd5b919050565b6000806040838503121561178357600080fd5b61178c83611754565b946020939093013593505050565b6000806000606084860312156117af57600080fd5b6117b884611754565b92506117c660208501611754565b9150604084013590509250925092565b6000602082840312156117e857600080fd5b61121482611754565b6000806040838503121561180457600080fd5b61180d83611754565b91506020830135801515811461182257600080fd5b809150509250929050565b634e487b7160e01b600052604160045260246000fd5b600067ffffffffffffffff8084111561185e5761185e61182d565b604051601f8501601f19908116603f011681019082821181831017156118865761188661182d565b8160405280935085815286868601111561189f57600080fd5b858560208301376000602087830101525050509392505050565b600080600080608085870312156118cf57600080fd5b6118d885611754565b93506118e660208601611754565b925060408501359150606085013567ffffffffffffffff81111561190957600080fd5b8501601f8101871361191a57600080fd5b61192987823560208401611843565b91505092959194509250565b6000806040838503121561194857600080fd5b61195183611754565b9150602083013567ffffffffffffffff81111561196d57600080fd5b8301601f8101851361197e57600080fd5b61198d85823560208401611843565b9150509250929050565b600080604083850312156119aa57600080fd5b6119b383611754565b91506119c160208401611754565b90509250929050565b600181811c908216806119de57607f821691505b6020821081036119fe57634e487b7160e01b600052602260045260246000fd5b50919050565b634e487b7160e01b600052601160045260246000fd5b8181038181111561032057610320611a04565b60008351611a3f8184602088016116d8565b835190830190611a538183602088016116d8565b01949350505050565b601f82111561051257600081815260208120601f850160051c81016020861015611a835750805b601f850160051c820191505b81811015611aa257828155600101611a8f565b505050505050565b815167ffffffffffffffff811115611ac457611ac461182d565b611ad881611ad284546119ca565b84611a5c565b602080601f831160018114611b0d5760008415611af55750858301515b600019600386901b1c1916600185901b178555611aa2565b600085815260208120601f198616915b82811015611b3c57888601518255948401946001909101908401611b1d565b5085821015611b5a5787850151600019600388901b60f8161c191681555b5050505050600190811b01905550565b8082018082111561032057610320611a04565b60006001600160a01b03808716835280861660208401525083604083015260806060830152611baf60808301846116fc565b9695505050505050565b600060208284031215611bcb57600080fd5b8151611214816116a556fea2646970667358221220c0aa6e2d93749ab59d560d8f18fac8e7387de689f850f070670090b8838bb7e064736f6c63430008110033a2646970667358221220d674429c14fee42028d2270387a7a20607fcff6231ce95189826d9349963873564736f6c63430008110033",
  "linkReferences": {},
  "deployedLinkReferences": {}
}