{
  "_format": "hh-sol-artifact-1",
  "contractName": "MarketPlace",
  "sourceName": "contracts/MarketPlace.sol",
  "abi": [
    {
      "inputs": [],
      "name": "MarketPlace__CannotBuyNFTThatIsNotForSale",
      "type": "error"
    },
    {
      "inputs": [],
      "name": "MarketPlace__CannotBuyOwnNFT",
      "type": "error"
    },
    {
      "inputs": [],
      "name": "MarketPlace__CannotMakeOfferOnOwnNFT",
      "type": "error"
    },
    {
      "inputs": [
        {
          "internalType": "address",
          "name": "to",
          "type": "address"
        }
      ],
      "name": "MarketPlace__CannotMintToZeroAddress",
      "type": "error"
    },
    {
      "inputs": [
        {
          "internalType": "address",
          "name": "collection",
          "type": "address"
        }
      ],
      "name": "MarketPlace__CollectionDoesNotExist",
      "type": "error"
    },
    {
      "inputs": [],
      "name": "MarketPlace__FundsAreZero",
      "type": "error"
    },
    {
      "inputs": [],
      "name": "MarketPlace__OfferDoesNotExist",
      "type": "error"
    },
    {
      "inputs": [],
      "name": "MarketPlace__OfferedFundsAreLowerThenPrice",
      "type": "error"
    },
    {
      "inputs": [
        {
          "internalType": "address",
          "name": "collection",
          "type": "address"
        }
      ],
      "name": "MarketPlace__OnlyCollectionOwnerCanMint",
      "type": "error"
    },
    {
      "inputs": [],
      "name": "MarketPlace__OnlyOwnerCanSellNFT",
      "type": "error"
    },
    {
      "inputs": [],
      "name": "MarketPlace__PriceCannotBeZero",
      "type": "error"
    },
    {
      "anonymous": false,
      "inputs": [
        {
          "indexed": true,
          "internalType": "address",
          "name": "itemAddress",
          "type": "address"
        },
        {
          "indexed": true,
          "internalType": "address",
          "name": "owner",
          "type": "address"
        }
      ],
      "name": "MarketItemCreated",
      "type": "event"
    },
    {
      "anonymous": false,
      "inputs": [
        {
          "indexed": true,
          "internalType": "address",
          "name": "previousOwner",
          "type": "address"
        },
        {
          "indexed": true,
          "internalType": "address",
          "name": "newOwner",
          "type": "address"
        }
      ],
      "name": "OwnershipTransferred",
      "type": "event"
    },
    {
      "inputs": [
        {
          "internalType": "address",
          "name": "_collection",
          "type": "address"
        },
        {
          "internalType": "uint256",
          "name": "_tokenId",
          "type": "uint256"
        },
        {
          "internalType": "address",
          "name": "_buyer",
          "type": "address"
        }
      ],
      "name": "acceptOfferForNFT",
      "outputs": [],
      "stateMutability": "nonpayable",
      "type": "function"
    },
    {
      "inputs": [
        {
          "internalType": "address",
          "name": "_collection",
          "type": "address"
        },
        {
          "internalType": "uint256",
          "name": "_tokenId",
          "type": "uint256"
        },
        {
          "internalType": "address",
          "name": "_to",
          "type": "address"
        }
      ],
      "name": "buyNFT",
      "outputs": [],
      "stateMutability": "payable",
      "type": "function"
    },
    {
      "inputs": [
        {
          "internalType": "address",
          "name": "",
          "type": "address"
        }
      ],
      "name": "collectionToOwner",
      "outputs": [
        {
          "internalType": "address",
          "name": "",
          "type": "address"
        }
      ],
      "stateMutability": "view",
      "type": "function"
    },
    {
      "inputs": [
        {
          "internalType": "uint256",
          "name": "",
          "type": "uint256"
        }
      ],
      "name": "collections",
      "outputs": [
        {
          "internalType": "address",
          "name": "",
          "type": "address"
        }
      ],
      "stateMutability": "view",
      "type": "function"
    },
    {
      "inputs": [
        {
          "internalType": "string",
          "name": "_name",
          "type": "string"
        },
        {
          "internalType": "string",
          "name": "_symbol",
          "type": "string"
        }
      ],
      "name": "createMarketItem",
      "outputs": [],
      "stateMutability": "nonpayable",
      "type": "function"
    },
    {
      "inputs": [
        {
          "internalType": "address",
          "name": "",
          "type": "address"
        },
        {
          "internalType": "address",
          "name": "",
          "type": "address"
        }
      ],
      "name": "doesUserOwnNFTInCollection",
      "outputs": [
        {
          "internalType": "bool",
          "name": "",
          "type": "bool"
        }
      ],
      "stateMutability": "view",
      "type": "function"
    },
    {
      "inputs": [
        {
          "internalType": "address",
          "name": "_owner",
          "type": "address"
        }
      ],
      "name": "getCollectionByUser",
      "outputs": [
        {
          "internalType": "address[]",
          "name": "",
          "type": "address[]"
        }
      ],
      "stateMutability": "view",
      "type": "function"
    },
    {
      "inputs": [],
      "name": "getCollectionCount",
      "outputs": [
        {
          "internalType": "uint256",
          "name": "",
          "type": "uint256"
        }
      ],
      "stateMutability": "view",
      "type": "function"
    },
    {
      "inputs": [],
      "name": "getCollections",
      "outputs": [
        {
          "internalType": "address[]",
          "name": "",
          "type": "address[]"
        }
      ],
      "stateMutability": "view",
      "type": "function"
    },
    {
      "inputs": [
        {
          "internalType": "address",
          "name": "_owner",
          "type": "address"
        }
      ],
      "name": "getCollectionsForOwner",
      "outputs": [
        {
          "internalType": "address[]",
          "name": "",
          "type": "address[]"
        }
      ],
      "stateMutability": "view",
      "type": "function"
    },
    {
      "inputs": [
        {
          "internalType": "address",
          "name": "_owner",
          "type": "address"
        },
        {
          "internalType": "address",
          "name": "_collection",
          "type": "address"
        }
      ],
      "name": "getNFTsByUserAndCollection",
      "outputs": [
        {
          "internalType": "uint256[]",
          "name": "",
          "type": "uint256[]"
        }
      ],
      "stateMutability": "view",
      "type": "function"
    },
    {
      "inputs": [
        {
          "internalType": "address",
          "name": "_collection",
          "type": "address"
        }
      ],
      "name": "getOwnerOfCollection",
      "outputs": [
        {
          "internalType": "address",
          "name": "",
          "type": "address"
        }
      ],
      "stateMutability": "view",
      "type": "function"
    },
    {
      "inputs": [
        {
          "internalType": "address",
          "name": "",
          "type": "address"
        },
        {
          "internalType": "string",
          "name": "",
          "type": "string"
        }
      ],
      "name": "hasUserMadeOfferOnNFT",
      "outputs": [
        {
          "internalType": "bool",
          "name": "",
          "type": "bool"
        }
      ],
      "stateMutability": "view",
      "type": "function"
    },
    {
      "inputs": [
        {
          "internalType": "address",
          "name": "_collection",
          "type": "address"
        },
        {
          "internalType": "uint256",
          "name": "_tokenId",
          "type": "uint256"
        }
      ],
      "name": "makeOfferForNFT",
      "outputs": [],
      "stateMutability": "payable",
      "type": "function"
    },
    {
      "inputs": [],
      "name": "marketPlacePercentage",
      "outputs": [
        {
          "internalType": "uint256",
          "name": "",
          "type": "uint256"
        }
      ],
      "stateMutability": "view",
      "type": "function"
    },
    {
      "inputs": [
        {
          "internalType": "address",
          "name": "_collection",
          "type": "address"
        },
        {
          "internalType": "address",
          "name": "_to",
          "type": "address"
        },
        {
          "internalType": "string",
          "name": "_tokenURI",
          "type": "string"
        }
      ],
      "name": "mintNFT",
      "outputs": [],
      "stateMutability": "nonpayable",
      "type": "function"
    },
    {
      "inputs": [
        {
          "internalType": "address",
          "name": "",
          "type": "address"
        },
        {
          "internalType": "uint256",
          "name": "",
          "type": "uint256"
        },
        {
          "internalType": "uint256",
          "name": "",
          "type": "uint256"
        }
      ],
      "name": "nftToOffers",
      "outputs": [
        {
          "internalType": "address",
          "name": "buyer",
          "type": "address"
        },
        {
          "internalType": "uint256",
          "name": "price",
          "type": "uint256"
        }
      ],
      "stateMutability": "view",
      "type": "function"
    },
    {
      "inputs": [
        {
          "internalType": "address",
          "name": "",
          "type": "address"
        },
        {
          "internalType": "uint256",
          "name": "",
          "type": "uint256"
        }
      ],
      "name": "nfts",
      "outputs": [
        {
          "internalType": "address",
          "name": "collection",
          "type": "address"
        },
        {
          "internalType": "address",
          "name": "owner",
          "type": "address"
        },
        {
          "internalType": "uint256",
          "name": "tokenId",
          "type": "uint256"
        },
        {
          "internalType": "uint256",
          "name": "price",
          "type": "uint256"
        },
        {
          "internalType": "bool",
          "name": "isForSale",
          "type": "bool"
        }
      ],
      "stateMutability": "view",
      "type": "function"
    },
    {
      "inputs": [],
      "name": "owner",
      "outputs": [
        {
          "internalType": "address",
          "name": "",
          "type": "address"
        }
      ],
      "stateMutability": "view",
      "type": "function"
    },
    {
      "inputs": [
        {
          "internalType": "address",
          "name": "",
          "type": "address"
        },
        {
          "internalType": "uint256",
          "name": "",
          "type": "uint256"
        }
      ],
      "name": "ownerToCollections",
      "outputs": [
        {
          "internalType": "address",
          "name": "",
          "type": "address"
        }
      ],
      "stateMutability": "view",
      "type": "function"
    },
    {
      "inputs": [
        {
          "internalType": "address",
          "name": "",
          "type": "address"
        },
        {
          "internalType": "address",
          "name": "",
          "type": "address"
        },
        {
          "internalType": "uint256",
          "name": "",
          "type": "uint256"
        }
      ],
      "name": "ownerToNFTs",
      "outputs": [
        {
          "internalType": "uint256",
          "name": "",
          "type": "uint256"
        }
      ],
      "stateMutability": "view",
      "type": "function"
    },
    {
      "inputs": [
        {
          "internalType": "address",
          "name": "_collection",
          "type": "address"
        },
        {
          "internalType": "uint256",
          "name": "_tokenId",
          "type": "uint256"
        },
        {
          "internalType": "uint256",
          "name": "_price",
          "type": "uint256"
        }
      ],
      "name": "putNFTForSale",
      "outputs": [],
      "stateMutability": "nonpayable",
      "type": "function"
    },
    {
      "inputs": [
        {
          "internalType": "address",
          "name": "_collection",
          "type": "address"
        },
        {
          "internalType": "uint256",
          "name": "_tokenId",
          "type": "uint256"
        },
        {
          "internalType": "address",
          "name": "_buyer",
          "type": "address"
        }
      ],
      "name": "rejectOfferForNFT",
      "outputs": [],
      "stateMutability": "nonpayable",
      "type": "function"
    },
    {
      "inputs": [
        {
          "internalType": "address",
          "name": "_collection",
          "type": "address"
        },
        {
          "internalType": "uint256",
          "name": "_tokenId",
          "type": "uint256"
        }
      ],
      "name": "removeNFTFromSale",
      "outputs": [],
      "stateMutability": "nonpayable",
      "type": "function"
    },
    {
      "inputs": [],
      "name": "renounceOwnership",
      "outputs": [],
      "stateMutability": "nonpayable",
      "type": "function"
    },
    {
      "inputs": [
        {
          "internalType": "address",
          "name": "newOwner",
          "type": "address"
        }
      ],
      "name": "transferOwnership",
      "outputs": [],
      "stateMutability": "nonpayable",
      "type": "function"
    },
    {
      "inputs": [
        {
          "internalType": "address",
          "name": "",
          "type": "address"
        },
        {
          "internalType": "string",
          "name": "",
          "type": "string"
        }
      ],
      "name": "userNFTOFferIndex",
      "outputs": [
        {
          "internalType": "uint256",
          "name": "",
          "type": "uint256"
        }
      ],
      "stateMutability": "view",
      "type": "function"
    },
    {
      "inputs": [
        {
          "internalType": "address",
          "name": "",
          "type": "address"
        },
        {
          "internalType": "uint256",
          "name": "",
          "type": "uint256"
        }
      ],
      "name": "userToOwnedCollections",
      "outputs": [
        {
          "internalType": "address",
          "name": "",
          "type": "address"
        }
      ],
      "stateMutability": "view",
      "type": "function"
    },
    {
      "inputs": [
        {
          "internalType": "address",
          "name": "_collection",
          "type": "address"
        },
        {
          "internalType": "uint256",
          "name": "_tokenId",
          "type": "uint256"
        }
      ],
      "name": "widthdrawOfferForNFT",
      "outputs": [],
      "stateMutability": "nonpayable",
      "type": "function"
    },
    {
      "inputs": [],
      "name": "withdrawMarketPlaceProfit",
      "outputs": [],
      "stateMutability": "nonpayable",
      "type": "function"
    }
  ],
  "bytecode": "0x6080604052600a600155600060025534801561001a57600080fd5b5061002433610029565b610079565b600080546001600160a01b038381166001600160a01b0319831681178455604051919092169283917f8be0079c531659141344cd1fd0a4f28419497f9722a3daafe3b4186f6b6457e09190a35050565b6148f280620000896000396000f3fe608060405260043610620001f35760003560e01c80636f82d78a116200010b578063b37a642411620000a1578063f8b36ea0116200006c578063f8b36ea014620006e1578063fa33331e1462000715578063fdbda0ec146200073a578063ffe50b89146200075f57600080fd5b8063b37a64241462000632578063cdd664121462000657578063de94421f14620006a4578063f2fde38b14620006bc57600080fd5b806381dae58e11620000e257806381dae58e1462000583578063861b43f914620005c85780638da5cb5b14620005ed578063a833102a146200060d57600080fd5b80636f82d78a1462000521578063715018a614620005465780637c818f54146200055e57600080fd5b806343af356b116200018d5780636049d98c11620001585780636049d98c14620004575780636208171214620004a757806366ca3cd314620004e45780636bfbb225146200050957600080fd5b806343af356b146200034857806346e6358614620003e657806348d79ed4146200040d5780635c793d65146200043257600080fd5b806335697d1f11620001ce57806335697d1f146200029457806337aebc9114620002b957806337f9accd14620002d057806340045db614620002f557600080fd5b80630223abc314620001f85780630ce41800146200024c5780631c10106f1462000273575b600080fd5b3480156200020557600080fd5b50620002376200021736600462002403565b600660209081526000928352604080842090915290825290205460ff1681565b60405190151581526020015b60405180910390f35b3480156200025957600080fd5b50620002716200026b366004620024ec565b62000776565b005b3480156200028057600080fd5b50600c545b60405190815260200162000243565b348015620002a157600080fd5b5062000271620002b336600462002557565b6200086d565b62000271620002ca36600462002557565b620009a0565b348015620002dd57600080fd5b5062000271620002ef36600462002557565b62000bc4565b3480156200030257600080fd5b506200032f6200031436600462002586565b6003602052600090815260409020546001600160a01b031681565b6040516001600160a01b03909116815260200162000243565b3480156200035557600080fd5b50620003b06200036736600462002557565b6008602090815260009283526040808420909152908252902080546001820154600283015460038401546004909401546001600160a01b03938416949390921692909160ff1685565b604080516001600160a01b0396871681529590941660208601529284019190915260608301521515608082015260a00162000243565b348015620003f357600080fd5b50620003fe62000f9e565b604051620002439190620025ad565b3480156200041a57600080fd5b506200032f6200042c36600462002557565b62001002565b3480156200043f57600080fd5b506200027162000451366004620025fc565b6200103b565b3480156200046457600080fd5b50620002376200047636600462002643565b600a602090815260009283526040909220815180830184018051928152908401929093019190912091525460ff1681565b348015620004b457600080fd5b506200032f620004c636600462002586565b6001600160a01b039081166000908152600360205260409020541690565b348015620004f157600080fd5b50620003fe6200050336600462002586565b62001447565b3480156200051657600080fd5b506200028560015481565b3480156200052e57600080fd5b506200032f6200054036600462002557565b620014bf565b3480156200055357600080fd5b5062000271620014dc565b3480156200056b57600080fd5b50620002716200057d3660046200268f565b620014f4565b3480156200059057600080fd5b50620005a8620005a2366004620026f9565b62001781565b604080516001600160a01b03909316835260208301919091520162000243565b348015620005d557600080fd5b5062000271620005e7366004620026f9565b620017d6565b348015620005fa57600080fd5b506000546001600160a01b03166200032f565b3480156200061a57600080fd5b50620002856200062c36600462002731565b62001925565b3480156200063f57600080fd5b506200027162000651366004620025fc565b62001964565b3480156200066457600080fd5b50620002856200067636600462002643565b600b602090815260009283526040909220815180830184018051928152908401929093019190912091525481565b348015620006b157600080fd5b506200027162001e52565b348015620006c957600080fd5b5062000271620006db36600462002586565b62001e8e565b348015620006ee57600080fd5b50620007066200070036600462002403565b62001f0a565b60405162000243919062002777565b3480156200072257600080fd5b50620003fe6200073436600462002586565b62001f86565b3480156200074757600080fd5b506200032f62000759366004620027b1565b62001ffc565b6200027162000770366004620025fc565b62002027565b600082826040516200078890620023df565b620007959291906200281f565b604051809103906000f080158015620007b2573d6000803e3d6000fd5b50600c805460018181019092557fdf6966c971051c3d54ec59162606531493a51404a002842f56009d7e5cf4a8c70180546001600160a01b0384166001600160a01b0319918216811790925560008281526003602090815260408083208054851633908117909155808452600483528184208054978801815584529183209095018054909316841790925592519394509290917f2ed77352da7fdb0e1292e9bc4154a60dc6c6b52750d3b62d3b1e58cd10f3047f91a3505050565b6040516331a9108f60e11b815260048101829052829033906001600160a01b03831690636352211e90602401602060405180830381865afa158015620008b7573d6000803e3d6000fd5b505050506040513d601f19601f82011682018060405250810190620008dd919062002851565b6001600160a01b0316146200090557604051633fca4a7b60e11b815260040160405180910390fd5b6001600160a01b038381166000908152600860209081526040808320868452909152808220600381018390556004908101805460ff19169055905163a22cb46560e01b8152309181019190915260248101919091529082169063a22cb46590604401600060405180830381600087803b1580156200098257600080fd5b505af115801562000997573d6000803e3d6000fd5b50505050505050565b6040516331a9108f60e11b815260048101829052829033906001600160a01b03831690636352211e90602401602060405180830381865afa158015620009ea573d6000803e3d6000fd5b505050506040513d601f19601f8201168201806040525081019062000a10919062002851565b6001600160a01b03160362000a385760405163a2c4efc360e01b815260040160405180910390fd5b3460000362000a5a5760405163605f459360e11b815260040160405180910390fd5b6001600160a01b03838116600090815260096020908152604080832086845282528083208151808301835233808252348286019081528354600180820186559488528688209351600290910290930180546001600160a01b03191693909816929092178755905195820195909555938352600a82529182902091516001600160601b0319606088901b16918101919091526034810185905260540160408051601f198184030181529082905262000b119162002871565b9081526040805160209281900383019020805460ff1916931515939093179092556001600160a01b038516600090815260098252828120858252909152205462000b5e90600190620028a5565b336000908152600b602090815260409182902091516001600160601b0319606088901b16918101919091526034810185905260540160408051601f198184030181529082905262000baf9162002871565b90815260405190819003602001902055505050565b6040516331a9108f60e11b815260048101829052829033906001600160a01b03831690636352211e90602401602060405180830381865afa15801562000c0e573d6000803e3d6000fd5b505050506040513d601f19601f8201168201806040525081019062000c34919062002851565b6001600160a01b03160362000c5c5760405163a2c4efc360e01b815260040160405180910390fd5b336000908152600a602090815260409182902091516001600160601b0319606087901b16918101919091526034810184905260540160408051601f198184030181529082905262000cad9162002871565b9081526040519081900360200190205460ff1662000cde57604051630586ae5f60e51b815260040160405180910390fd5b336000908152600b6020908152604080832090516001600160601b0319606088901b1692810192909252603482018590529060540160408051601f198184030181529082905262000d2f9162002871565b9081526040805160209281900383019020546001600160a01b0387166000908152600984528281208782529093529082208054919350908390811062000d795762000d79620028bb565b60009182526020808320604080518082018252600290940290910180546001600160a01b039081168552600190910154848401528981168552600983528185208986529092529092205481519193509116331462000dea57604051630586ae5f60e51b815260040160405180910390fd5b6001600160a01b0386166000908152600960209081526040808320888452909152902062000e1a600183620028a5565b8154811062000e2d5762000e2d620028bb565b600091825260208083206001600160a01b038a1684526009825260408085208a865290925292208054600290920290920191908590811062000e735762000e73620028bb565b60009182526020808320845460029093020180546001600160a01b0319166001600160a01b0393841617815560019485015490850155908916825260098152604080832089845290915290209062000ecc9083620028a5565b8154811062000edf5762000edf620028bb565b6000918252602080832060029290920290910180546001600160a01b0319168155600101829055338252600a8152604080832090516001600160601b031960608b901b1692810192909252603482018890529060540160408051601f198184030181529082905262000f519162002871565b90815260405160209181900382018120805460ff19169315159390931790925583015133916108fc82150291906000818181858888f1935050505015801562000997573d6000803e3d6000fd5b6060600c80548060200260200160405190810160405280929190818152602001828054801562000ff857602002820191906000526020600020905b81546001600160a01b0316815260019091019060200180831162000fd9575b5050505050905090565b600460205281600052604060002081815481106200101f57600080fd5b6000918252602090912001546001600160a01b03169150829050565b6040516331a9108f60e11b815260048101839052839033906001600160a01b03831690636352211e90602401602060405180830381865afa15801562001085573d6000803e3d6000fd5b505050506040513d601f19601f82011682018060405250810190620010ab919062002851565b6001600160a01b031614620010d357604051633fca4a7b60e11b815260040160405180910390fd5b6001600160a01b0382166000908152600a602090815260409182902091516001600160601b0319606088901b16918101919091526034810185905260540160408051601f19818403018152908290526200112d9162002871565b9081526040519081900360200190205460ff166200115e57604051630586ae5f60e51b815260040160405180910390fd5b6001600160a01b0382166000908152600b6020908152604080832090516001600160601b0319606089901b1692810192909252603482018690529060540160408051601f1981840301815290829052620011b89162002871565b9081526040805160209281900383019020546001600160a01b03881660009081526009845282812088825290935290822080549193509083908110620012025762001202620028bb565b60009182526020808320604080518082018252600290940290910180546001600160a01b039081168552600190910154848401528a81168552600983528185208a865290925290922054815191935091908116908616146200127757604051630586ae5f60e51b815260040160405180910390fd5b6001600160a01b03871660009081526009602090815260408083208984529091529020620012a7600183620028a5565b81548110620012ba57620012ba620028bb565b600091825260208083206001600160a01b038b1684526009825260408085208b8652909252922080546002909202909201919085908110620013005762001300620028bb565b60009182526020808320845460029093020180546001600160a01b0319166001600160a01b0393841617815560019485015490850155908a1682526009815260408083208a8452909152902090620013599083620028a5565b815481106200136c576200136c620028bb565b6000918252602080832060029290920290910180546001600160a01b03191681556001018290556001600160a01b0387168252600a8152604080832090516001600160601b031960608c901b1692810192909252603482018990529060540160408051601f1981840301815290829052620013e79162002871565b90815260405160209181900382018120805460ff1916931515939093179092558301516001600160a01b038716916108fc82150291906000818181858888f193505050501580156200143d573d6000803e3d6000fd5b5050505050505050565b6001600160a01b038116600090815260046020908152604091829020805483518184028101840190945280845260609392830182828015620014b357602002820191906000526020600020905b81546001600160a01b0316815260019091019060200180831162001494575b50505050509050919050565b600560205281600052604060002081815481106200101f57600080fd5b620014e662002333565b620014f260006200238f565b565b6001600160a01b038084166000908152600360205260409020541680156200153f576040516342eaab2560e01b81526001600160a01b03851660048201526024015b60405180910390fd5b6001600160a01b0381163314620015755760405163cd33301160e01b81526001600160a01b038516600482015260240162001536565b6001600160a01b038316620015a95760405163f56d767160e01b81526001600160a01b038416600482015260240162001536565b604051636902622f60e11b815284906000906001600160a01b0383169063d204c45e90620015de9088908890600401620028d1565b6020604051808303816000875af1158015620015fe573d6000803e3d6000fd5b505050506040513d601f19601f82011682018060405250810190620016249190620028fd565b6040805160a0810182526001600160a01b03808a16808352898216602080850182815285870188815260006060880181815260808901828152878352600886528a83208c845286528a832099518a54908a166001600160a01b0319918216178b55945160018b01805491909a169516949094179097559051600288015594516003870155516004909501805495151560ff1990961695909517909455825260068352838220908252909152205490915060ff16806200173d576001600160a01b0386811660008181526005602090815260408083208054600180820183559185528385200180546001600160a01b031916968e1696871790559383526006825280832094835293905291909120805460ff191690911790555b506001600160a01b03948516600090815260076020908152604080832098909716825296875294852080546001810182559086529590942090940192909255505050565b60096020528260005260406000206020528160005260406000208181548110620017aa57600080fd5b6000918252602090912060029091020180546001909101546001600160a01b0390911693509150839050565b6040516331a9108f60e11b815260048101839052839033906001600160a01b03831690636352211e90602401602060405180830381865afa15801562001820573d6000803e3d6000fd5b505050506040513d601f19601f8201168201806040525081019062001846919062002851565b6001600160a01b0316146200186e57604051633fca4a7b60e11b815260040160405180910390fd5b81600003620018905760405163605f459360e11b815260040160405180910390fd5b6001600160a01b03848116600090815260086020908152604080832087845290915290819020600381018590556004908101805460ff19166001179055905163095ea7b360e01b81523091810191909152602481018590529082169063095ea7b390604401600060405180830381600087803b1580156200191057600080fd5b505af11580156200143d573d6000803e3d6000fd5b600760205282600052604060002060205281600052604060002081815481106200194e57600080fd5b9060005260206000200160009250925050505481565b6040516331a9108f60e11b815260048101839052839033906001600160a01b03831690636352211e90602401602060405180830381865afa158015620019ae573d6000803e3d6000fd5b505050506040513d601f19601f82011682018060405250810190620019d4919062002851565b6001600160a01b031614620019fc57604051633fca4a7b60e11b815260040160405180910390fd5b6001600160a01b0382166000908152600a602090815260409182902091516001600160601b0319606088901b16918101919091526034810185905260540160408051601f198184030181529082905262001a569162002871565b9081526040519081900360200190205460ff1662001a8757604051630586ae5f60e51b815260040160405180910390fd5b6001600160a01b0382166000908152600b6020908152604080832090516001600160601b0319606089901b1692810192909252603482018690529060540160408051601f198184030181529082905262001ae19162002871565b9081526040805160209281900383019020546001600160a01b0388166000908152600984528281208882529093529082208054919350908390811062001b2b5762001b2b620028bb565b60009182526020808320604080518082018252600290940290910180546001600160a01b039081168552600190910154848401528a81168552600983528185208a8652909252909220548151919350919081169086161462001ba057604051630586ae5f60e51b815260040160405180910390fd5b604051632142170760e11b81523360048201526001600160a01b038681166024830152604482018890528516906342842e0e90606401600060405180830381600087803b15801562001bf157600080fd5b505af115801562001c06573d6000803e3d6000fd5b505050506001600160a01b0387811660008181526008602090815260408083208b84528252808320600190810180546001600160a01b031916968c1696909617909555928252600981528282208a83529052209062001c669083620028a5565b8154811062001c795762001c79620028bb565b600091825260208083206001600160a01b038b1684526009825260408085208b865290925292208054600290920290920191908590811062001cbf5762001cbf620028bb565b60009182526020808320845460029093020180546001600160a01b0319166001600160a01b0393841617815560019485015490850155908a1682526009815260408083208a845290915290209062001d189083620028a5565b8154811062001d2b5762001d2b620028bb565b6000918252602080832060029290920290910180546001600160a01b03191681556001018290556001600160a01b0387168252600a8152604080832090516001600160601b031960608c901b1692810192909252603482018990529060540160408051601f198184030181529082905262001da69162002871565b908152604051908190036020019020805491151560ff1990921691909117905560015460009062001dda9060649062002917565b836020015162001deb91906200293a565b9050806002600082825462001e01919062002954565b9091555050602083015133906108fc9062001e1e908490620028a5565b6040518115909202916000818181858888f1935050505015801562001e47573d6000803e3d6000fd5b505050505050505050565b62001e5c62002333565b600254604051339180156108fc02916000818181858888f1935050505015801562001e8b573d6000803e3d6000fd5b50565b62001e9862002333565b6001600160a01b03811662001eff5760405162461bcd60e51b815260206004820152602660248201527f4f776e61626c653a206e6577206f776e657220697320746865207a65726f206160448201526564647265737360d01b606482015260840162001536565b62001e8b816200238f565b6001600160a01b03808316600090815260076020908152604080832093851683529281529082902080548351818402810184019094528084526060939283018282801562001f7857602002820191906000526020600020905b81548152602001906001019080831162001f63575b505050505090505b92915050565b6001600160a01b038116600090815260056020908152604091829020805483518184028101840190945280845260609392830182828015620014b3576020028201919060005260206000209081546001600160a01b03168152600190910190602001808311620014945750505050509050919050565b600c81815481106200200d57600080fd5b6000918252602090912001546001600160a01b0316905081565b6040516331a9108f60e11b815260048101839052839033906001600160a01b03831690636352211e90602401602060405180830381865afa15801562002071573d6000803e3d6000fd5b505050506040513d601f19601f8201168201806040525081019062002097919062002851565b6001600160a01b031603620020bf57604051630c6fa48560e41b815260040160405180910390fd5b34600003620020e1576040516350b8b33d60e11b815260040160405180910390fd5b6001600160a01b038085166000908152600860209081526040808320878452825291829020825160a081018452815485168152600182015490941691840191909152600281015491830191909152600381015460608301526004015460ff161515608082018190526200216757604051634d93c24160e01b815260040160405180910390fd5b80606001513410156200218d57604051634c6d953160e01b815260040160405180910390fd5b6040516331a9108f60e11b8152600481018590526000906001600160a01b03841690636352211e90602401602060405180830381865afa158015620021d6573d6000803e3d6000fd5b505050506040513d601f19601f82011682018060405250810190620021fc919062002851565b604051632142170760e11b81523360048201526001600160a01b03868116602483015260448201889052919250908416906342842e0e90606401600060405180830381600087803b1580156200225157600080fd5b505af115801562002266573d6000803e3d6000fd5b505050506001600160a01b0386811660009081526008602090815260408083208984529091528120600180820180546001600160a01b03191694891694909417909355346003820155600401805460ff191690559054620022ca9060649062002917565b620022d690346200293a565b90508060026000828254620022ec919062002954565b90915550506001600160a01b0382166108fc6200230a8334620028a5565b6040518115909202916000818181858888f193505050501580156200143d573d6000803e3d6000fd5b6000546001600160a01b03163314620014f25760405162461bcd60e51b815260206004820181905260248201527f4f776e61626c653a2063616c6c6572206973206e6f7420746865206f776e6572604482015260640162001536565b600080546001600160a01b038381166001600160a01b0319831681178455604051919092169283917f8be0079c531659141344cd1fd0a4f28419497f9722a3daafe3b4186f6b6457e09190a35050565b611f52806200296b83390190565b6001600160a01b038116811462001e8b57600080fd5b600080604083850312156200241757600080fd5b82356200242481620023ed565b915060208301356200243681620023ed565b809150509250929050565b634e487b7160e01b600052604160045260246000fd5b600082601f8301126200246957600080fd5b813567ffffffffffffffff8082111562002487576200248762002441565b604051601f8301601f19908116603f01168101908282118183101715620024b257620024b262002441565b81604052838152866020858801011115620024cc57600080fd5b836020870160208301376000602085830101528094505050505092915050565b600080604083850312156200250057600080fd5b823567ffffffffffffffff808211156200251957600080fd5b620025278683870162002457565b935060208501359150808211156200253e57600080fd5b506200254d8582860162002457565b9150509250929050565b600080604083850312156200256b57600080fd5b82356200257881620023ed565b946020939093013593505050565b6000602082840312156200259957600080fd5b8135620025a681620023ed565b9392505050565b6020808252825182820181905260009190848201906040850190845b81811015620025f05783516001600160a01b031683529284019291840191600101620025c9565b50909695505050505050565b6000806000606084860312156200261257600080fd5b83356200261f81620023ed565b92506020840135915060408401356200263881620023ed565b809150509250925092565b600080604083850312156200265757600080fd5b82356200266481620023ed565b9150602083013567ffffffffffffffff8111156200268157600080fd5b6200254d8582860162002457565b600080600060608486031215620026a557600080fd5b8335620026b281620023ed565b92506020840135620026c481620023ed565b9150604084013567ffffffffffffffff811115620026e157600080fd5b620026ef8682870162002457565b9150509250925092565b6000806000606084860312156200270f57600080fd5b83356200271c81620023ed565b95602085013595506040909401359392505050565b6000806000606084860312156200274757600080fd5b83356200275481620023ed565b925060208401356200276681620023ed565b929592945050506040919091013590565b6020808252825182820181905260009190848201906040850190845b81811015620025f05783518352928401929184019160010162002793565b600060208284031215620027c457600080fd5b5035919050565b60005b83811015620027e8578181015183820152602001620027ce565b50506000910152565b600081518084526200280b816020860160208601620027cb565b601f01601f19169290920160200192915050565b604081526000620028346040830185620027f1565b8281036020840152620028488185620027f1565b95945050505050565b6000602082840312156200286457600080fd5b8151620025a681620023ed565b6000825162002885818460208701620027cb565b9190910192915050565b634e487b7160e01b600052601160045260246000fd5b8181038181111562001f805762001f806200288f565b634e487b7160e01b600052603260045260246000fd5b6001600160a01b0383168152604060208201526000620028f56040830184620027f1565b949350505050565b6000602082840312156200291057600080fd5b5051919050565b6000826200293557634e487b7160e01b600052601260045260246000fd5b500490565b808202811582820484141762001f805762001f806200288f565b8082018082111562001f805762001f806200288f56fe60806040523480156200001157600080fd5b5060405162001f5238038062001f52833981016040819052620000349162000193565b818160006200004483826200028c565b5060016200005382826200028c565b505050620000706200006a6200007860201b60201c565b6200007c565b505062000358565b3390565b600780546001600160a01b038381166001600160a01b0319831681179093556040519116919082907f8be0079c531659141344cd1fd0a4f28419497f9722a3daafe3b4186f6b6457e090600090a35050565b634e487b7160e01b600052604160045260246000fd5b600082601f830112620000f657600080fd5b81516001600160401b0380821115620001135762000113620000ce565b604051601f8301601f19908116603f011681019082821181831017156200013e576200013e620000ce565b816040528381526020925086838588010111156200015b57600080fd5b600091505b838210156200017f578582018301518183018401529082019062000160565b600093810190920192909252949350505050565b60008060408385031215620001a757600080fd5b82516001600160401b0380821115620001bf57600080fd5b620001cd86838701620000e4565b93506020850151915080821115620001e457600080fd5b50620001f385828601620000e4565b9150509250929050565b600181811c908216806200021257607f821691505b6020821081036200023357634e487b7160e01b600052602260045260246000fd5b50919050565b601f8211156200028757600081815260208120601f850160051c81016020861015620002625750805b601f850160051c820191505b8181101562000283578281556001016200026e565b5050505b505050565b81516001600160401b03811115620002a857620002a8620000ce565b620002c081620002b98454620001fd565b8462000239565b602080601f831160018114620002f85760008415620002df5750858301515b600019600386901b1c1916600185901b17855562000283565b600085815260208120601f198616915b82811015620003295788860151825594840194600190910190840162000308565b5085821015620003485787850151600019600388901b60f8161c191681555b5050505050600190811b01905550565b611bea80620003686000396000f3fe608060405234801561001057600080fd5b50600436106101215760003560e01c806370a08231116100ad578063b88d4fde11610071578063b88d4fde1461024c578063c87b56dd1461025f578063d204c45e14610272578063e985e9c514610285578063f2fde38b146102c157600080fd5b806370a0823114610205578063715018a6146102185780638da5cb5b1461022057806395d89b4114610231578063a22cb4651461023957600080fd5b806323b872dd116100f457806323b872dd146101a357806342842e0e146101b657806342966c68146101c957806354279637146101dc5780636352211e146101f257600080fd5b806301ffc9a71461012657806306fdde031461014e578063081812fc14610163578063095ea7b31461018e575b600080fd5b610139610134366004611699565b6102d4565b60405190151581526020015b60405180910390f35b610156610326565b6040516101459190611706565b610176610171366004611719565b6103b8565b6040516001600160a01b039091168152602001610145565b6101a161019c36600461174e565b6103df565b005b6101a16101b1366004611778565b6104f9565b6101a16101c4366004611778565b610571565b6101a16101d7366004611719565b61058c565b6101e4610603565b604051908152602001610145565b610176610200366004611719565b610613565b6101e46102133660046117b4565b610678565b6101a16106fe565b6007546001600160a01b0316610176565b610156610712565b6101a16102473660046117cf565b610721565b6101a161025a366004611897565b610730565b61015661026d366004611719565b6107ae565b6101e4610280366004611913565b6107b9565b610139610293366004611975565b6001600160a01b03918216600090815260056020908152604080832093909416825291909152205460ff1690565b6101a16102cf3660046117b4565b6107f9565b60006001600160e01b031982166380ac58cd60e01b148061030557506001600160e01b03198216635b5e139f60e01b145b8061032057506301ffc9a760e01b6001600160e01b03198316145b92915050565b606060008054610335906119a8565b80601f0160208091040260200160405190810160405280929190818152602001828054610361906119a8565b80156103ae5780601f10610383576101008083540402835291602001916103ae565b820191906000526020600020905b81548152906001019060200180831161039157829003601f168201915b5050505050905090565b60006103c38261086f565b506000908152600460205260409020546001600160a01b031690565b60006103ea82610613565b9050806001600160a01b0316836001600160a01b03160361045c5760405162461bcd60e51b815260206004820152602160248201527f4552433732313a20617070726f76616c20746f2063757272656e74206f776e656044820152603960f91b60648201526084015b60405180910390fd5b336001600160a01b038216148061047857506104788133610293565b6104ea5760405162461bcd60e51b815260206004820152603d60248201527f4552433732313a20617070726f76652063616c6c6572206973206e6f7420746f60448201527f6b656e206f776e6572206f7220617070726f76656420666f7220616c6c0000006064820152608401610453565b6104f483836108d3565b505050565b610504335b82610941565b6105665760405162461bcd60e51b815260206004820152602d60248201527f4552433732313a2063616c6c6572206973206e6f7420746f6b656e206f776e6560448201526c1c881bdc88185c1c1c9bdd9959609a1b6064820152608401610453565b6104f48383836109c0565b6104f483838360405180602001604052806000815250610730565b610595336104fe565b6105f75760405162461bcd60e51b815260206004820152602d60248201527f4552433732313a2063616c6c6572206973206e6f7420746f6b656e206f776e6560448201526c1c881bdc88185c1c1c9bdd9959609a1b6064820152608401610453565b61060081610bad565b50565b600061060e60085490565b905090565b6000818152600260205260408120546001600160a01b0316806103205760405162461bcd60e51b815260206004820152601860248201527f4552433732313a20696e76616c696420746f6b656e20494400000000000000006044820152606401610453565b60006001600160a01b0382166106e25760405162461bcd60e51b815260206004820152602960248201527f4552433732313a2061646472657373207a65726f206973206e6f7420612076616044820152683634b21037bbb732b960b91b6064820152608401610453565b506001600160a01b031660009081526003602052604090205490565b610706610bb6565b6107106000610c10565b565b606060018054610335906119a8565b61072c338383610c62565b5050565b61073a3383610941565b61079c5760405162461bcd60e51b815260206004820152602d60248201527f4552433732313a2063616c6c6572206973206e6f7420746f6b656e206f776e6560448201526c1c881bdc88185c1c1c9bdd9959609a1b6064820152608401610453565b6107a884848484610d30565b50505050565b606061032082610dae565b60006107c3610bb6565b60006107ce60085490565b90506107de600880546001019055565b6107e88482610eb6565b6107f28184610ed0565b9392505050565b610801610bb6565b6001600160a01b0381166108665760405162461bcd60e51b815260206004820152602660248201527f4f776e61626c653a206e6577206f776e657220697320746865207a65726f206160448201526564647265737360d01b6064820152608401610453565b61060081610c10565b6000818152600260205260409020546001600160a01b03166106005760405162461bcd60e51b815260206004820152601860248201527f4552433732313a20696e76616c696420746f6b656e20494400000000000000006044820152606401610453565b600081815260046020526040902080546001600160a01b0319166001600160a01b038416908117909155819061090882610613565b6001600160a01b03167f8c5be1e5ebec7d5bd14f71427d1e84f3dd0314c0f7b2291e5b200ac8c7c3b92560405160405180910390a45050565b60008061094d83610613565b9050806001600160a01b0316846001600160a01b0316148061099457506001600160a01b0380821660009081526005602090815260408083209388168352929052205460ff165b806109b85750836001600160a01b03166109ad846103b8565b6001600160a01b0316145b949350505050565b826001600160a01b03166109d382610613565b6001600160a01b031614610a375760405162461bcd60e51b815260206004820152602560248201527f4552433732313a207472616e736665722066726f6d20696e636f72726563742060448201526437bbb732b960d91b6064820152608401610453565b6001600160a01b038216610a995760405162461bcd60e51b8152602060048201526024808201527f4552433732313a207472616e7366657220746f20746865207a65726f206164646044820152637265737360e01b6064820152608401610453565b610aa68383836001610f72565b826001600160a01b0316610ab982610613565b6001600160a01b031614610b1d5760405162461bcd60e51b815260206004820152602560248201527f4552433732313a207472616e736665722066726f6d20696e636f72726563742060448201526437bbb732b960d91b6064820152608401610453565b600081815260046020908152604080832080546001600160a01b03199081169091556001600160a01b0387811680865260038552838620805460001901905590871680865283862080546001019055868652600290945282852080549092168417909155905184937fddf252ad1be2c89b69c2b068fc378daa952ba7f163c4a11628f55a4df523b3ef91a4505050565b61060081610ffa565b6007546001600160a01b031633146107105760405162461bcd60e51b815260206004820181905260248201527f4f776e61626c653a2063616c6c6572206973206e6f7420746865206f776e65726044820152606401610453565b600780546001600160a01b038381166001600160a01b0319831681179093556040519116919082907f8be0079c531659141344cd1fd0a4f28419497f9722a3daafe3b4186f6b6457e090600090a35050565b816001600160a01b0316836001600160a01b031603610cc35760405162461bcd60e51b815260206004820152601960248201527f4552433732313a20617070726f766520746f2063616c6c6572000000000000006044820152606401610453565b6001600160a01b03838116600081815260056020908152604080832094871680845294825291829020805460ff191686151590811790915591519182527f17307eab39ab6107e8899845ad3d59bd9653f200f220920489ca2b5937696c31910160405180910390a3505050565b610d3b8484846109c0565b610d478484848461103a565b6107a85760405162461bcd60e51b815260206004820152603260248201527f4552433732313a207472616e7366657220746f206e6f6e20455243373231526560448201527131b2b4bb32b91034b6b83632b6b2b73a32b960711b6064820152608401610453565b6060610db98261086f565b60008281526006602052604081208054610dd2906119a8565b80601f0160208091040260200160405190810160405280929190818152602001828054610dfe906119a8565b8015610e4b5780601f10610e2057610100808354040283529160200191610e4b565b820191906000526020600020905b815481529060010190602001808311610e2e57829003601f168201915b505050505090506000610e6960408051602081019091526000815290565b90508051600003610e7b575092915050565b815115610ead578082604051602001610e959291906119e2565b60405160208183030381529060405292505050919050565b6109b884611186565b61072c8282604051806020016040528060008152506111f9565b6000828152600260205260409020546001600160a01b0316610f5a5760405162461bcd60e51b815260206004820152602e60248201527f45524337323155524953746f726167653a2055524920736574206f66206e6f6e60448201527f6578697374656e7420746f6b656e0000000000000000000000000000000000006064820152608401610453565b60008281526006602052604090206104f48282611a5f565b60018111156107a8576001600160a01b03841615610fb8576001600160a01b03841660009081526003602052604081208054839290610fb2908490611b35565b90915550505b6001600160a01b038316156107a8576001600160a01b03831660009081526003602052604081208054839290610fef908490611b48565b909155505050505050565b61100381611277565b6000818152600660205260409020805461101c906119a8565b15905061060057600081815260066020526040812061060091611635565b60006001600160a01b0384163b1561117b57604051630a85bd0160e11b81526001600160a01b0385169063150b7a029061107e903390899088908890600401611b5b565b6020604051808303816000875af19250505080156110b9575060408051601f3d908101601f191682019092526110b691810190611b97565b60015b611161573d8080156110e7576040519150601f19603f3d011682016040523d82523d6000602084013e6110ec565b606091505b5080516000036111595760405162461bcd60e51b815260206004820152603260248201527f4552433732313a207472616e7366657220746f206e6f6e20455243373231526560448201527131b2b4bb32b91034b6b83632b6b2b73a32b960711b6064820152608401610453565b805181602001fd5b6001600160e01b031916630a85bd0160e11b1490506109b8565b506001949350505050565b60606111918261086f565b60006111a860408051602081019091526000815290565b905060008151116111c857604051806020016040528060008152506107f2565b806111d28461131a565b6040516020016111e39291906119e2565b6040516020818303038152906040529392505050565b61120383836113ba565b611210600084848461103a565b6104f45760405162461bcd60e51b815260206004820152603260248201527f4552433732313a207472616e7366657220746f206e6f6e20455243373231526560448201527131b2b4bb32b91034b6b83632b6b2b73a32b960711b6064820152608401610453565b600061128282610613565b9050611292816000846001610f72565b61129b82610613565b600083815260046020908152604080832080546001600160a01b03199081169091556001600160a01b0385168085526003845282852080546000190190558785526002909352818420805490911690555192935084927fddf252ad1be2c89b69c2b068fc378daa952ba7f163c4a11628f55a4df523b3ef908390a45050565b6060600061132783611553565b600101905060008167ffffffffffffffff8111156113475761134761180b565b6040519080825280601f01601f191660200182016040528015611371576020820181803683370190505b5090508181016020015b600019017f3031323334353637383961626364656600000000000000000000000000000000600a86061a8153600a850494508461137b57509392505050565b6001600160a01b0382166114105760405162461bcd60e51b815260206004820181905260248201527f4552433732313a206d696e7420746f20746865207a65726f20616464726573736044820152606401610453565b6000818152600260205260409020546001600160a01b0316156114755760405162461bcd60e51b815260206004820152601c60248201527f4552433732313a20746f6b656e20616c7265616479206d696e746564000000006044820152606401610453565b611483600083836001610f72565b6000818152600260205260409020546001600160a01b0316156114e85760405162461bcd60e51b815260206004820152601c60248201527f4552433732313a20746f6b656e20616c7265616479206d696e746564000000006044820152606401610453565b6001600160a01b038216600081815260036020908152604080832080546001019055848352600290915280822080546001600160a01b0319168417905551839291907fddf252ad1be2c89b69c2b068fc378daa952ba7f163c4a11628f55a4df523b3ef908290a45050565b6000807a184f03e93ff9f4daa797ed6e38ed64bf6a1f010000000000000000831061159c577a184f03e93ff9f4daa797ed6e38ed64bf6a1f010000000000000000830492506040015b6d04ee2d6d415b85acef810000000083106115c8576d04ee2d6d415b85acef8100000000830492506020015b662386f26fc1000083106115e657662386f26fc10000830492506010015b6305f5e10083106115fe576305f5e100830492506008015b612710831061161257612710830492506004015b60648310611624576064830492506002015b600a83106103205760010192915050565b508054611641906119a8565b6000825580601f10611651575050565b601f01602090049060005260206000209081019061060091905b8082111561167f576000815560010161166b565b5090565b6001600160e01b03198116811461060057600080fd5b6000602082840312156116ab57600080fd5b81356107f281611683565b60005b838110156116d15781810151838201526020016116b9565b50506000910152565b600081518084526116f28160208601602086016116b6565b601f01601f19169290920160200192915050565b6020815260006107f260208301846116da565b60006020828403121561172b57600080fd5b5035919050565b80356001600160a01b038116811461174957600080fd5b919050565b6000806040838503121561176157600080fd5b61176a83611732565b946020939093013593505050565b60008060006060848603121561178d57600080fd5b61179684611732565b92506117a460208501611732565b9150604084013590509250925092565b6000602082840312156117c657600080fd5b6107f282611732565b600080604083850312156117e257600080fd5b6117eb83611732565b91506020830135801515811461180057600080fd5b809150509250929050565b634e487b7160e01b600052604160045260246000fd5b600067ffffffffffffffff8084111561183c5761183c61180b565b604051601f8501601f19908116603f011681019082821181831017156118645761186461180b565b8160405280935085815286868601111561187d57600080fd5b858560208301376000602087830101525050509392505050565b600080600080608085870312156118ad57600080fd5b6118b685611732565b93506118c460208601611732565b925060408501359150606085013567ffffffffffffffff8111156118e757600080fd5b8501601f810187136118f857600080fd5b61190787823560208401611821565b91505092959194509250565b6000806040838503121561192657600080fd5b61192f83611732565b9150602083013567ffffffffffffffff81111561194b57600080fd5b8301601f8101851361195c57600080fd5b61196b85823560208401611821565b9150509250929050565b6000806040838503121561198857600080fd5b61199183611732565b915061199f60208401611732565b90509250929050565b600181811c908216806119bc57607f821691505b6020821081036119dc57634e487b7160e01b600052602260045260246000fd5b50919050565b600083516119f48184602088016116b6565b835190830190611a088183602088016116b6565b01949350505050565b601f8211156104f457600081815260208120601f850160051c81016020861015611a385750805b601f850160051c820191505b81811015611a5757828155600101611a44565b505050505050565b815167ffffffffffffffff811115611a7957611a7961180b565b611a8d81611a8784546119a8565b84611a11565b602080601f831160018114611ac25760008415611aaa5750858301515b600019600386901b1c1916600185901b178555611a57565b600085815260208120601f198616915b82811015611af157888601518255948401946001909101908401611ad2565b5085821015611b0f5787850151600019600388901b60f8161c191681555b5050505050600190811b01905550565b634e487b7160e01b600052601160045260246000fd5b8181038181111561032057610320611b1f565b8082018082111561032057610320611b1f565b60006001600160a01b03808716835280861660208401525083604083015260806060830152611b8d60808301846116da565b9695505050505050565b600060208284031215611ba957600080fd5b81516107f28161168356fea264697066735822122035a97c7761b71234542b337940e6fb9c32d2b6957955fdf541cb5328acd467df64736f6c63430008110033a2646970667358221220c92020ef8e9b0df4d9d334472b208c2d1c7bc99ec2bc90ee3708cb421097bdd164736f6c63430008110033",
  "linkReferences": {},
  "deployedLinkReferences": {}
}