{
  "_format": "hh-sol-artifact-1",
  "contractName": "MarketPlace",
  "sourceName": "contracts/MarketPlace.sol",
  "abi": [
    {
      "inputs": [],
      "name": "MarketPlace__CannotBuyNFTThatIsNotForSale",
      "type": "error"
    },
    {
      "inputs": [],
      "name": "MarketPlace__CannotBuyOwnNFT",
      "type": "error"
    },
    {
      "inputs": [],
      "name": "MarketPlace__CannotMakeOfferOnOwnNFT",
      "type": "error"
    },
    {
      "inputs": [
        {
          "internalType": "address",
          "name": "to",
          "type": "address"
        }
      ],
      "name": "MarketPlace__CannotMintToZeroAddress",
      "type": "error"
    },
    {
      "inputs": [
        {
          "internalType": "address",
          "name": "collection",
          "type": "address"
        }
      ],
      "name": "MarketPlace__CollectionDoesNotExist",
      "type": "error"
    },
    {
      "inputs": [],
      "name": "MarketPlace__CollectionNameCannotBeEmpty",
      "type": "error"
    },
    {
      "inputs": [],
      "name": "MarketPlace__CollectionSymbolCannotBeEmpty",
      "type": "error"
    },
    {
      "inputs": [],
      "name": "MarketPlace__FundsAreZero",
      "type": "error"
    },
    {
      "inputs": [],
      "name": "MarketPlace__NFTNotForSale",
      "type": "error"
    },
    {
      "inputs": [],
      "name": "MarketPlace__OfferDoesNotExist",
      "type": "error"
    },
    {
      "inputs": [],
      "name": "MarketPlace__OfferedFundsAreLowerThenPrice",
      "type": "error"
    },
    {
      "inputs": [
        {
          "internalType": "address",
          "name": "collection",
          "type": "address"
        }
      ],
      "name": "MarketPlace__OnlyCollectionOwnerCanMint",
      "type": "error"
    },
    {
      "inputs": [],
      "name": "MarketPlace__OnlyOwnerCanSellNFT",
      "type": "error"
    },
    {
      "inputs": [],
      "name": "MarketPlace__PriceCannotBeZero",
      "type": "error"
    },
    {
      "anonymous": false,
      "inputs": [
        {
          "indexed": true,
          "internalType": "address",
          "name": "itemAddress",
          "type": "address"
        },
        {
          "indexed": true,
          "internalType": "address",
          "name": "owner",
          "type": "address"
        }
      ],
      "name": "MarketItemCreated",
      "type": "event"
    },
    {
      "anonymous": false,
      "inputs": [
        {
          "indexed": true,
          "internalType": "address",
          "name": "previousOwner",
          "type": "address"
        },
        {
          "indexed": true,
          "internalType": "address",
          "name": "newOwner",
          "type": "address"
        }
      ],
      "name": "OwnershipTransferred",
      "type": "event"
    },
    {
      "inputs": [
        {
          "internalType": "address",
          "name": "_collection",
          "type": "address"
        },
        {
          "internalType": "uint256",
          "name": "_tokenId",
          "type": "uint256"
        },
        {
          "internalType": "address",
          "name": "_buyer",
          "type": "address"
        }
      ],
      "name": "acceptOfferForNFT",
      "outputs": [],
      "stateMutability": "nonpayable",
      "type": "function"
    },
    {
      "inputs": [
        {
          "internalType": "address",
          "name": "_collection",
          "type": "address"
        },
        {
          "internalType": "uint256",
          "name": "_tokenId",
          "type": "uint256"
        }
      ],
      "name": "buyNFT",
      "outputs": [],
      "stateMutability": "payable",
      "type": "function"
    },
    {
      "inputs": [],
      "name": "collectionCount",
      "outputs": [
        {
          "internalType": "uint256",
          "name": "",
          "type": "uint256"
        }
      ],
      "stateMutability": "view",
      "type": "function"
    },
    {
      "inputs": [
        {
          "internalType": "address",
          "name": "",
          "type": "address"
        }
      ],
      "name": "collectionToOwner",
      "outputs": [
        {
          "internalType": "address",
          "name": "",
          "type": "address"
        }
      ],
      "stateMutability": "view",
      "type": "function"
    },
    {
      "inputs": [
        {
          "internalType": "uint256",
          "name": "",
          "type": "uint256"
        }
      ],
      "name": "collections",
      "outputs": [
        {
          "internalType": "address",
          "name": "",
          "type": "address"
        }
      ],
      "stateMutability": "view",
      "type": "function"
    },
    {
      "inputs": [
        {
          "internalType": "string",
          "name": "_name",
          "type": "string"
        },
        {
          "internalType": "string",
          "name": "_symbol",
          "type": "string"
        }
      ],
      "name": "createMarketItem",
      "outputs": [],
      "stateMutability": "nonpayable",
      "type": "function"
    },
    {
      "inputs": [
        {
          "internalType": "address",
          "name": "",
          "type": "address"
        },
        {
          "internalType": "address",
          "name": "",
          "type": "address"
        }
      ],
      "name": "doesUserOwnNFTInCollection",
      "outputs": [
        {
          "internalType": "bool",
          "name": "",
          "type": "bool"
        }
      ],
      "stateMutability": "view",
      "type": "function"
    },
    {
      "inputs": [
        {
          "internalType": "address",
          "name": "_owner",
          "type": "address"
        }
      ],
      "name": "getCollectionByUser",
      "outputs": [
        {
          "internalType": "address[]",
          "name": "",
          "type": "address[]"
        }
      ],
      "stateMutability": "view",
      "type": "function"
    },
    {
      "inputs": [],
      "name": "getCollections",
      "outputs": [
        {
          "internalType": "address[]",
          "name": "",
          "type": "address[]"
        }
      ],
      "stateMutability": "view",
      "type": "function"
    },
    {
      "inputs": [
        {
          "internalType": "address",
          "name": "_owner",
          "type": "address"
        }
      ],
      "name": "getCollectionsForOwner",
      "outputs": [
        {
          "internalType": "address[]",
          "name": "",
          "type": "address[]"
        }
      ],
      "stateMutability": "view",
      "type": "function"
    },
    {
      "inputs": [
        {
          "internalType": "address",
          "name": "_collection",
          "type": "address"
        },
        {
          "internalType": "uint256",
          "name": "_tokenId",
          "type": "uint256"
        }
      ],
      "name": "getOffersForNFT",
      "outputs": [
        {
          "components": [
            {
              "internalType": "address",
              "name": "buyer",
              "type": "address"
            },
            {
              "internalType": "uint256",
              "name": "price",
              "type": "uint256"
            }
          ],
          "internalType": "struct MarketPlace.Offers[]",
          "name": "",
          "type": "tuple[]"
        }
      ],
      "stateMutability": "view",
      "type": "function"
    },
    {
      "inputs": [
        {
          "internalType": "address",
          "name": "_collection",
          "type": "address"
        }
      ],
      "name": "getOwnerOfCollection",
      "outputs": [
        {
          "internalType": "address",
          "name": "",
          "type": "address"
        }
      ],
      "stateMutability": "view",
      "type": "function"
    },
    {
      "inputs": [
        {
          "internalType": "address",
          "name": "_user",
          "type": "address"
        },
        {
          "internalType": "address",
          "name": "_collection",
          "type": "address"
        },
        {
          "internalType": "uint256",
          "name": "_tokenId",
          "type": "uint256"
        }
      ],
      "name": "hasUserMadeOfferOnNFT",
      "outputs": [
        {
          "internalType": "bool",
          "name": "",
          "type": "bool"
        }
      ],
      "stateMutability": "view",
      "type": "function"
    },
    {
      "inputs": [
        {
          "internalType": "address",
          "name": "_collection",
          "type": "address"
        },
        {
          "internalType": "uint256",
          "name": "_tokenId",
          "type": "uint256"
        }
      ],
      "name": "makeOfferForNFT",
      "outputs": [],
      "stateMutability": "payable",
      "type": "function"
    },
    {
      "inputs": [],
      "name": "marketPlacePercentage",
      "outputs": [
        {
          "internalType": "uint256",
          "name": "",
          "type": "uint256"
        }
      ],
      "stateMutability": "view",
      "type": "function"
    },
    {
      "inputs": [],
      "name": "marketPlaceProfit",
      "outputs": [
        {
          "internalType": "uint256",
          "name": "",
          "type": "uint256"
        }
      ],
      "stateMutability": "view",
      "type": "function"
    },
    {
      "inputs": [
        {
          "internalType": "address",
          "name": "_collection",
          "type": "address"
        },
        {
          "internalType": "address",
          "name": "_to",
          "type": "address"
        },
        {
          "internalType": "string",
          "name": "_tokenURI",
          "type": "string"
        }
      ],
      "name": "mintNFT",
      "outputs": [],
      "stateMutability": "nonpayable",
      "type": "function"
    },
    {
      "inputs": [
        {
          "internalType": "address",
          "name": "",
          "type": "address"
        },
        {
          "internalType": "uint256",
          "name": "",
          "type": "uint256"
        }
      ],
      "name": "nfts",
      "outputs": [
        {
          "internalType": "address",
          "name": "collection",
          "type": "address"
        },
        {
          "internalType": "address",
          "name": "owner",
          "type": "address"
        },
        {
          "internalType": "uint256",
          "name": "tokenId",
          "type": "uint256"
        },
        {
          "internalType": "uint256",
          "name": "price",
          "type": "uint256"
        },
        {
          "internalType": "uint256",
          "name": "indexInArray",
          "type": "uint256"
        },
        {
          "internalType": "bool",
          "name": "isForSale",
          "type": "bool"
        }
      ],
      "stateMutability": "view",
      "type": "function"
    },
    {
      "inputs": [],
      "name": "owner",
      "outputs": [
        {
          "internalType": "address",
          "name": "",
          "type": "address"
        }
      ],
      "stateMutability": "view",
      "type": "function"
    },
    {
      "inputs": [
        {
          "internalType": "address",
          "name": "",
          "type": "address"
        },
        {
          "internalType": "uint256",
          "name": "",
          "type": "uint256"
        }
      ],
      "name": "ownerToCollections",
      "outputs": [
        {
          "internalType": "address",
          "name": "",
          "type": "address"
        }
      ],
      "stateMutability": "view",
      "type": "function"
    },
    {
      "inputs": [
        {
          "internalType": "address",
          "name": "_owner",
          "type": "address"
        }
      ],
      "name": "ownerToNFTs",
      "outputs": [
        {
          "components": [
            {
              "internalType": "address",
              "name": "collection",
              "type": "address"
            },
            {
              "internalType": "address",
              "name": "owner",
              "type": "address"
            },
            {
              "internalType": "uint256",
              "name": "tokenId",
              "type": "uint256"
            },
            {
              "internalType": "uint256",
              "name": "price",
              "type": "uint256"
            },
            {
              "internalType": "uint256",
              "name": "indexInArray",
              "type": "uint256"
            },
            {
              "internalType": "bool",
              "name": "isForSale",
              "type": "bool"
            }
          ],
          "internalType": "struct MarketPlace.NFT[]",
          "name": "",
          "type": "tuple[]"
        }
      ],
      "stateMutability": "view",
      "type": "function"
    },
    {
      "inputs": [
        {
          "internalType": "address",
          "name": "_collection",
          "type": "address"
        },
        {
          "internalType": "uint256",
          "name": "_tokenId",
          "type": "uint256"
        },
        {
          "internalType": "uint256",
          "name": "_price",
          "type": "uint256"
        }
      ],
      "name": "putNFTForSale",
      "outputs": [],
      "stateMutability": "nonpayable",
      "type": "function"
    },
    {
      "inputs": [
        {
          "internalType": "address",
          "name": "_collection",
          "type": "address"
        },
        {
          "internalType": "uint256",
          "name": "_tokenId",
          "type": "uint256"
        },
        {
          "internalType": "address",
          "name": "_buyer",
          "type": "address"
        }
      ],
      "name": "rejectOfferForNFT",
      "outputs": [],
      "stateMutability": "nonpayable",
      "type": "function"
    },
    {
      "inputs": [
        {
          "internalType": "address",
          "name": "_collection",
          "type": "address"
        },
        {
          "internalType": "uint256",
          "name": "_tokenId",
          "type": "uint256"
        }
      ],
      "name": "removeNFTFromSale",
      "outputs": [],
      "stateMutability": "nonpayable",
      "type": "function"
    },
    {
      "inputs": [],
      "name": "renounceOwnership",
      "outputs": [],
      "stateMutability": "nonpayable",
      "type": "function"
    },
    {
      "inputs": [],
      "name": "totalNFTCount",
      "outputs": [
        {
          "internalType": "uint256",
          "name": "",
          "type": "uint256"
        }
      ],
      "stateMutability": "view",
      "type": "function"
    },
    {
      "inputs": [
        {
          "internalType": "address",
          "name": "newOwner",
          "type": "address"
        }
      ],
      "name": "transferOwnership",
      "outputs": [],
      "stateMutability": "nonpayable",
      "type": "function"
    },
    {
      "inputs": [
        {
          "internalType": "address",
          "name": "",
          "type": "address"
        },
        {
          "internalType": "uint256",
          "name": "",
          "type": "uint256"
        }
      ],
      "name": "userToOwnedCollections",
      "outputs": [
        {
          "internalType": "address",
          "name": "",
          "type": "address"
        }
      ],
      "stateMutability": "view",
      "type": "function"
    },
    {
      "inputs": [
        {
          "internalType": "address",
          "name": "_collection",
          "type": "address"
        },
        {
          "internalType": "uint256",
          "name": "_tokenId",
          "type": "uint256"
        }
      ],
      "name": "widthdrawOfferForNFT",
      "outputs": [],
      "stateMutability": "nonpayable",
      "type": "function"
    },
    {
      "inputs": [],
      "name": "withdrawMarketPlaceProfit",
      "outputs": [],
      "stateMutability": "nonpayable",
      "type": "function"
    }
  ],
  "bytecode": "0x6080604052600a60035560006004553480156200001b57600080fd5b5062000027336200002d565b6200007d565b600080546001600160a01b038381166001600160a01b0319831681178455604051919092169283917f8be0079c531659141344cd1fd0a4f28419497f9722a3daafe3b4186f6b6457e09190a35050565b615385806200008d6000396000f3fe608060405260043610620001f35760003560e01c80636f82d78a116200010b578063c5461d0911620000a1578063de94421f116200006c578063de94421f1462000683578063f2fde38b146200069b578063fa33331e14620006c0578063fdbda0ec14620006e557600080fd5b8063c5461d0914620005fa578063ced4cc9f1462000612578063d03990351462000637578063d57f966b146200066b57600080fd5b8063861b43f911620000e2578063861b43f914620005795780638da5cb5b146200059e578063a82ba76f14620005be578063b37a642414620005d557600080fd5b80636f82d78a1462000517578063715018a6146200053c5780637c818f54146200055457600080fd5b806340045db6116200018d5780635c793d6511620001585780635c793d65146200047857806362081712146200049d57806366ca3cd314620004da5780636bfbb22514620004ff57600080fd5b806340045db6146200032f57806343af356b146200038257806346e63586146200042c57806348d79ed4146200045357600080fd5b806335697d1f11620001ce57806335697d1f14620002a7578063367d048914620002cc57806337aebc9114620002f357806337f9accd146200030a57600080fd5b80630223abc314620001f85780630ce41800146200024c5780631cd33cc61462000273575b600080fd5b3480156200020557600080fd5b50620002376200021736600462002e12565b600860209081526000928352604080842090915290825290205460ff1681565b60405190151581526020015b60405180910390f35b3480156200025957600080fd5b50620002716200026b36600462002efb565b6200070a565b005b3480156200028057600080fd5b50620002986200029236600462002f66565b620008bb565b60405162000243919062002f8d565b348015620002b457600080fd5b5062000271620002c636600462003015565b6200097b565b348015620002d957600080fd5b50620002e462000ad7565b60405190815260200162000243565b620002716200030436600462003015565b62000ae8565b3480156200031757600080fd5b50620002716200032936600462003015565b62000d0c565b3480156200033c57600080fd5b50620003696200034e36600462002f66565b6005602052600090815260409020546001600160a01b031681565b6040516001600160a01b03909116815260200162000243565b3480156200038f57600080fd5b50620003f1620003a136600462003015565b600a6020908152600092835260408084209091529082529020805460018201546002830154600384015460048501546005909501546001600160a01b039485169593909416939192909160ff1686565b604080516001600160a01b0397881681529690951660208701529385019290925260608401526080830152151560a082015260c00162000243565b3480156200043957600080fd5b5062000444620010ef565b60405162000243919062003044565b3480156200046057600080fd5b50620003696200047236600462003015565b62001153565b3480156200048557600080fd5b50620002716200049736600462003093565b6200118c565b348015620004aa57600080fd5b5062000369620004bc36600462002f66565b6001600160a01b039081166000908152600560205260409020541690565b348015620004e757600080fd5b5062000444620004f936600462002f66565b62001598565b3480156200050c57600080fd5b50620002e460035481565b3480156200052457600080fd5b50620003696200053636600462003015565b62001610565b3480156200054957600080fd5b50620002716200162d565b3480156200056157600080fd5b506200027162000573366004620030da565b62001645565b3480156200058657600080fd5b50620002716200059836600462003144565b62001a4f565b348015620005ab57600080fd5b506000546001600160a01b031662000369565b62000271620005cf36600462003015565b62001b46565b348015620005e257600080fd5b5062000271620005f436600462003093565b620021cc565b3480156200060757600080fd5b50620002e460045481565b3480156200061f57600080fd5b5062000237620006313660046200317c565b62002ad0565b3480156200064457600080fd5b506200065c6200065636600462003015565b62002b46565b604051620002439190620031c2565b3480156200067857600080fd5b50620002e462002bdd565b3480156200069057600080fd5b506200027162002be9565b348015620006a857600080fd5b5062000271620006ba36600462002f66565b62002c25565b348015620006cd57600080fd5b5062000444620006df36600462002f66565b62002ca1565b348015620006f257600080fd5b5062000369620007043660046200320f565b62002d17565b604080516020808201909252600090528251908301207f3a2db9fe7908dcc36d81824d2338fc3f1aff49ac357dd8c4840527fba27a5b900162000760576040516340a199b160e11b815260040160405180910390fd5b604080516020808201909252600090528151908201207f3a2db9fe7908dcc36d81824d2338fc3f1aff49ac357dd8c4840527fba27a5b9001620007b55760405162cc9d3160e51b815260040160405180910390fd5b60008282604051620007c79062002dee565b620007d49291906200327d565b604051809103906000f080158015620007f1573d6000803e3d6000fd5b50600e805460018082019092557fbb7b4a454dc3493923482f07822329ed19e8244eff582cc204f8554c3620c3fd0180546001600160a01b0384166001600160a01b031991821681179092556000828152600560209081526040808320805485163390811790915583526006825282208054808701825590835291200180549091169091179055805481019055905060405133906001600160a01b038316907f2ed77352da7fdb0e1292e9bc4154a60dc6c6b52750d3b62d3b1e58cd10f3047f90600090a3505050565b6001600160a01b0381166000908152600960209081526040808320805482518185028101850190935280835260609492939192909184015b82821015620009705760008481526020908190206040805160c0810182526006860290920180546001600160a01b0390811684526001808301549091168486015260028201549284019290925260038101546060840152600481015460808401526005015460ff16151560a08301529083529092019101620008f3565b505050509050919050565b6001600160a01b038281166000818152600a60209081526040808320868452825291829020825160c08101845281548616815260018201549095169185019190915260028101548483015260038101546060850152600480820154608086015260059091015460ff16151560a085015290516331a9108f60e11b81529081018490528492913391636352211e90602401602060405180830381865afa15801562000a29573d6000803e3d6000fd5b505050506040513d601f19601f8201168201806040525081019062000a4f9190620032af565b6001600160a01b03161462000a7757604051633fca4a7b60e11b815260040160405180910390fd5b8060a0015162000a9a576040516351f3e85f60e11b815260040160405180910390fd5b50506001600160a01b03919091166000908152600a602090815260408083209383529290529081206003810191909155600501805460ff19169055565b600062000ae360025490565b905090565b6040516331a9108f60e11b815260048101829052829033906001600160a01b03831690636352211e90602401602060405180830381865afa15801562000b32573d6000803e3d6000fd5b505050506040513d601f19601f8201168201806040525081019062000b589190620032af565b6001600160a01b03160362000b805760405163a2c4efc360e01b815260040160405180910390fd5b3460000362000ba25760405163605f459360e11b815260040160405180910390fd5b6001600160a01b038381166000908152600b6020908152604080832086845282528083208151808301835233808252348286019081528354600180820186559488528688209351600290910290930180546001600160a01b03191693909816929092178755905195820195909555938352600c82529182902091516001600160601b0319606088901b16918101919091526034810185905260540160408051601f198184030181529082905262000c5991620032cf565b9081526040805160209281900383019020805460ff1916931515939093179092556001600160a01b0385166000908152600b8252828120858252909152205462000ca69060019062003303565b336000908152600d602090815260409182902091516001600160601b0319606088901b16918101919091526034810185905260540160408051601f198184030181529082905262000cf791620032cf565b90815260405190819003602001902055505050565b6040516331a9108f60e11b815260048101829052829033906001600160a01b03831690636352211e90602401602060405180830381865afa15801562000d56573d6000803e3d6000fd5b505050506040513d601f19601f8201168201806040525081019062000d7c9190620032af565b6001600160a01b03160362000da45760405163a2c4efc360e01b815260040160405180910390fd5b336000908152600c602090815260409182902091516001600160601b0319606087901b16918101919091526034810184905260540160408051601f198184030181529082905262000df591620032cf565b9081526040519081900360200190205460ff1662000e2657604051630586ae5f60e51b815260040160405180910390fd5b336000908152600d6020908152604080832090516001600160601b0319606088901b1692810192909252603482018590529060540160408051601f198184030181529082905262000e7791620032cf565b9081526040805160209281900383019020546001600160a01b0387166000908152600b84528281208782529093529082208054919350908390811062000ec15762000ec162003319565b60009182526020808320604080518082018252600290940290910180546001600160a01b039081168552600190910154848401528981168552600b83528185208986529092529092205481519193509116331462000f3257604051630586ae5f60e51b815260040160405180910390fd5b6001600160a01b0386166000908152600b60209081526040808320888452909152902062000f6260018362003303565b8154811062000f755762000f7562003319565b600091825260208083206001600160a01b038a168452600b825260408085208a865290925292208054600290920290920191908590811062000fbb5762000fbb62003319565b60009182526020808320845460029093020180546001600160a01b0319166001600160a01b03938416178155600194850154908501559089168252600b8152604080832089845290915290209062001014908362003303565b8154811062001027576200102762003319565b6000918252602080832060029290920290910180546001600160a01b0319168155600101829055338252600c8152604080832090516001600160601b031960608b901b1692810192909252603482018890529060540160408051601f19818403018152908290526200109991620032cf565b90815260405160209181900382018120805460ff19169315159390931790925583015133916108fc82150291906000818181858888f19350505050158015620010e6573d6000803e3d6000fd5b50505050505050565b6060600e8054806020026020016040519081016040528092919081815260200182805480156200114957602002820191906000526020600020905b81546001600160a01b031681526001909101906020018083116200112a575b5050505050905090565b600660205281600052604060002081815481106200117057600080fd5b6000918252602090912001546001600160a01b03169150829050565b6040516331a9108f60e11b815260048101839052839033906001600160a01b03831690636352211e90602401602060405180830381865afa158015620011d6573d6000803e3d6000fd5b505050506040513d601f19601f82011682018060405250810190620011fc9190620032af565b6001600160a01b0316146200122457604051633fca4a7b60e11b815260040160405180910390fd5b6001600160a01b0382166000908152600c602090815260409182902091516001600160601b0319606088901b16918101919091526034810185905260540160408051601f19818403018152908290526200127e91620032cf565b9081526040519081900360200190205460ff16620012af57604051630586ae5f60e51b815260040160405180910390fd5b6001600160a01b0382166000908152600d6020908152604080832090516001600160601b0319606089901b1692810192909252603482018690529060540160408051601f19818403018152908290526200130991620032cf565b9081526040805160209281900383019020546001600160a01b0388166000908152600b84528281208882529093529082208054919350908390811062001353576200135362003319565b60009182526020808320604080518082018252600290940290910180546001600160a01b039081168552600190910154848401528a81168552600b83528185208a86529092529092205481519193509190811690861614620013c857604051630586ae5f60e51b815260040160405180910390fd5b6001600160a01b0387166000908152600b602090815260408083208984529091529020620013f860018362003303565b815481106200140b576200140b62003319565b600091825260208083206001600160a01b038b168452600b825260408085208b865290925292208054600290920290920191908590811062001451576200145162003319565b60009182526020808320845460029093020180546001600160a01b0319166001600160a01b0393841617815560019485015490850155908a168252600b815260408083208a8452909152902090620014aa908362003303565b81548110620014bd57620014bd62003319565b6000918252602080832060029290920290910180546001600160a01b03191681556001018290556001600160a01b0387168252600c8152604080832090516001600160601b031960608c901b1692810192909252603482018990529060540160408051601f19818403018152908290526200153891620032cf565b90815260405160209181900382018120805460ff1916931515939093179092558301516001600160a01b038716916108fc82150291906000818181858888f193505050501580156200158e573d6000803e3d6000fd5b5050505050505050565b6001600160a01b0381166000908152600660209081526040918290208054835181840281018401909452808452606093928301828280156200160457602002820191906000526020600020905b81546001600160a01b03168152600190910190602001808311620015e5575b50505050509050919050565b600760205281600052604060002081815481106200117057600080fd5b6200163762002d42565b62001643600062002d9e565b565b6001600160a01b0380841660009081526005602052604090205416806200168f576040516342eaab2560e01b81526001600160a01b03851660048201526024015b60405180910390fd5b6001600160a01b0381163314620016c55760405163cd33301160e01b81526001600160a01b038516600482015260240162001686565b6001600160a01b038316620016f95760405163f56d767160e01b81526001600160a01b038416600482015260240162001686565b604051636902622f60e11b815284906000906001600160a01b0383169063d204c45e906200172e90889088906004016200332f565b6020604051808303816000875af11580156200174e573d6000803e3d6000fd5b505050506040513d601f19601f820116820180604052508101906200177491906200335b565b6001600160a01b038087166000908152600860209081526040808320938b168352929052205490915060ff168062001806576001600160a01b0386811660008181526007602090815260408083208054600180820183559185528385200180546001600160a01b031916968e1696871790559383526008825280832094835293905291909120805460ff191690911790555b600060096000886001600160a01b03166001600160a01b0316815260200190815260200160002080549050905060006040518060c001604052808a6001600160a01b03168152602001896001600160a01b031681526020018581526020016000815260200183815260200160001515815250905080600a60008b6001600160a01b03166001600160a01b03168152602001908152602001600020600086815260200190815260200160002060008201518160000160006101000a8154816001600160a01b0302191690836001600160a01b0316021790555060208201518160010160006101000a8154816001600160a01b0302191690836001600160a01b0316021790555060408201518160020155606082015181600301556080820151816004015560a08201518160050160006101000a81548160ff02191690831515021790555090505060096000896001600160a01b03166001600160a01b0316815260200190815260200160002081908060018154018082558091505060019003906000526020600020906006020160009091909190915060008201518160000160006101000a8154816001600160a01b0302191690836001600160a01b0316021790555060208201518160010160006101000a8154816001600160a01b0302191690836001600160a01b0316021790555060408201518160020155606082015181600301556080820151816004015560a08201518160050160006101000a81548160ff021916908315150217905550505062001a44600280546001019055565b505050505050505050565b6040516331a9108f60e11b815260048101839052839033906001600160a01b03831690636352211e90602401602060405180830381865afa15801562001a99573d6000803e3d6000fd5b505050506040513d601f19601f8201168201806040525081019062001abf9190620032af565b6001600160a01b03161462001ae757604051633fca4a7b60e11b815260040160405180910390fd5b8160000362001b095760405163605f459360e11b815260040160405180910390fd5b506001600160a01b03929092166000908152600a60209081526040808320938352929052206003810191909155600501805460ff19166001179055565b6040516331a9108f60e11b815260048101829052829033906001600160a01b03831690636352211e90602401602060405180830381865afa15801562001b90573d6000803e3d6000fd5b505050506040513d601f19601f8201168201806040525081019062001bb69190620032af565b6001600160a01b03160362001bde57604051630c6fa48560e41b815260040160405180910390fd5b3460000362001c00576040516350b8b33d60e11b815260040160405180910390fd5b6001600160a01b038084166000908152600a60209081526040808320868452825291829020825160c08101845281548516815260018201549094169184019190915260028101549183019190915260038101546060830152600481015460808301526005015460ff16151560a0820181905262001c9057604051634d93c24160e01b815260040160405180910390fd5b806060015134101562001cb657604051634c6d953160e01b815260040160405180910390fd5b6040516331a9108f60e11b8152600481018490526000906001600160a01b03841690636352211e90602401602060405180830381865afa15801562001cff573d6000803e3d6000fd5b505050506040513d601f19601f8201168201806040525081019062001d259190620032af565b604051632142170760e11b81526001600160a01b03808316600483015233602483015260448201879052919250908416906342842e0e90606401600060405180830381600087803b15801562001d7a57600080fd5b505af115801562001d8f573d6000803e3d6000fd5b505033602080860191909152346060860152600060a0860181905260808601516001600160a01b0386168252600990925260409020805491935090915062001dd960018362003303565b8154811062001dec5762001dec62003319565b906000526020600020906006020160096000856001600160a01b03166001600160a01b03168152602001908152602001600020838154811062001e335762001e3362003319565b60009182526020808320845460069093020180546001600160a01b03199081166001600160a01b0394851617825560018087015481840180549093169086161790915560028087015490830155600380870154908301556004808701549083015560059586015495909101805460ff909616151560ff1990961695909517909455908616825260099052604090209062001ece908362003303565b8154811062001ee15762001ee162003319565b9060005260206000209060060201600080820160006101000a8154906001600160a01b0302191690556001820160006101000a8154906001600160a01b0302191690556002820160009055600382016000905560048201600090556005820160006101000a81549060ff02191690555050600060096000336001600160a01b03166001600160a01b031681526020019081526020016000208054905090508085608001818152505060096000336001600160a01b03166001600160a01b0316815260200190815260200160002085908060018154018082558091505060019003906000526020600020906006020160009091909190915060008201518160000160006101000a8154816001600160a01b0302191690836001600160a01b0316021790555060208201518160010160006101000a8154816001600160a01b0302191690836001600160a01b0316021790555060408201518160020155606082015181600301556080820151816004015560a08201518160050160006101000a81548160ff021916908315150217905550505084600a60008a6001600160a01b03166001600160a01b03168152602001908152602001600020600089815260200190815260200160002060008201518160000160006101000a8154816001600160a01b0302191690836001600160a01b0316021790555060208201518160010160006101000a8154816001600160a01b0302191690836001600160a01b0316021790555060408201518160020155606082015181600301556080820151816004015560a08201518160050160006101000a81548160ff0219169083151502179055509050506000606460035462002157919062003375565b62002163903462003398565b90508060046000828254620021799190620033b2565b90915550506001600160a01b0385166108fc62002197833462003303565b6040518115909202916000818181858888f19350505050158015620021c0573d6000803e3d6000fd5b50505050505050505050565b6040516331a9108f60e11b815260048101839052839033906001600160a01b03831690636352211e90602401602060405180830381865afa15801562002216573d6000803e3d6000fd5b505050506040513d601f19601f820116820180604052508101906200223c9190620032af565b6001600160a01b0316146200226457604051633fca4a7b60e11b815260040160405180910390fd5b6001600160a01b0382166000908152600c602090815260409182902091516001600160601b0319606088901b16918101919091526034810185905260540160408051601f1981840301815290829052620022be91620032cf565b9081526040519081900360200190205460ff16620022ef57604051630586ae5f60e51b815260040160405180910390fd5b6001600160a01b0382166000908152600d6020908152604080832090516001600160601b0319606089901b1692810192909252603482018690529060540160408051601f19818403018152908290526200234991620032cf565b9081526040805160209281900383019020546001600160a01b0388166000908152600b84528281208882529093529082208054919350908390811062002393576200239362003319565b60009182526020808320604080518082018252600290940290910180546001600160a01b039081168552600190910154848401528a81168552600b83528185208a865290925290922054815191935091908116908616146200240857604051630586ae5f60e51b815260040160405180910390fd5b604051632142170760e11b81523360048201526001600160a01b038681166024830152604482018890528516906342842e0e90606401600060405180830381600087803b1580156200245957600080fd5b505af11580156200246e573d6000803e3d6000fd5b505050506001600160a01b0387166000908152600b602090815260408083208984529091529020620024a260018362003303565b81548110620024b557620024b562003319565b600091825260208083206001600160a01b038b168452600b825260408085208b8652909252922080546002909202909201919085908110620024fb57620024fb62003319565b60009182526020808320845460029093020180546001600160a01b0319166001600160a01b0393841617815560019485015490850155908a168252600b815260408083208a845290915290209062002554908362003303565b8154811062002567576200256762003319565b6000918252602080832060029283020180546001600160a01b031916815560019081018490556001600160a01b038b81168552600a835260408086208c87528452808620815160c081018352815484168152818501549093168386015294850154828201526003850154606083015260048501546080830181905260059095015460ff16151560a0830152338652600990935291909320805491936200260e908362003303565b8154811062002621576200262162003319565b906000526020600020906006020160096000336001600160a01b03166001600160a01b03168152602001908152602001600020838154811062002668576200266862003319565b60009182526020808320845460069093020180546001600160a01b03199081166001600160a01b03948516178255600180870154818401805490931695169490941790556002808601549082015560038086015490820155600480860154908201556005948501549401805460ff909516151560ff19909516949094179093553382526009909252604090209062002701908362003303565b8154811062002714576200271462003319565b9060005260206000209060060201600080820160006101000a8154906001600160a01b0302191690556001820160006101000a8154906001600160a01b0302191690556002820160009055600382016000905560048201600090556005820160006101000a81549060ff021916905550506000600960008a6001600160a01b03166001600160a01b0316815260200190815260200160002080549050905080846080018181525050600084606001818152505060008460a00190151590811515815250508884602001906001600160a01b031690816001600160a01b031681525050600960008a6001600160a01b03166001600160a01b0316815260200190815260200160002084908060018154018082558091505060019003906000526020600020906006020160009091909190915060008201518160000160006101000a8154816001600160a01b0302191690836001600160a01b0316021790555060208201518160010160006101000a8154816001600160a01b0302191690836001600160a01b0316021790555060408201518160020155606082015181600301556080820151816004015560a08201518160050160006101000a81548160ff021916908315150217905550505083600a60008d6001600160a01b03166001600160a01b0316815260200190815260200160002060008c815260200190815260200160002060008201518160000160006101000a8154816001600160a01b0302191690836001600160a01b0316021790555060208201518160010160006101000a8154816001600160a01b0302191690836001600160a01b0316021790555060408201518160020155606082015181600301556080820151816004015560a08201518160050160006101000a81548160ff0219169083151502179055509050506000600c60008b6001600160a01b03166001600160a01b031681526020019081526020016000208c8c60405160200162002a0492919060609290921b6001600160601b0319168252601482015260340190565b60408051601f198184030181529082905262002a2091620032cf565b908152604051908190036020019020805491151560ff1990921691909117905560035460009062002a549060649062003375565b876020015162002a65919062003398565b9050806004600082825462002a7b9190620033b2565b9091555050602087015133906108fc9062002a9890849062003303565b6040518115909202916000818181858888f1935050505015801562002ac1573d6000803e3d6000fd5b50505050505050505050505050565b6001600160a01b0383166000908152600c6020908152604080832090516001600160601b0319606087901b1692810192909252603482018490529060540160408051601f198184030181529082905262002b2a91620032cf565b9081526040519081900360200190205460ff1690509392505050565b6001600160a01b0382166000908152600b602090815260408083208484528252808320805482518185028101850190935280835260609492939192909184015b8282101562002bd0576000848152602090819020604080518082019091526002850290910180546001600160a01b0316825260019081015482840152908352909201910162002b86565b5050505090505b92915050565b600062000ae360015490565b62002bf362002d42565b600454604051339180156108fc02916000818181858888f1935050505015801562002c22573d6000803e3d6000fd5b50565b62002c2f62002d42565b6001600160a01b03811662002c965760405162461bcd60e51b815260206004820152602660248201527f4f776e61626c653a206e6577206f776e657220697320746865207a65726f206160448201526564647265737360d01b606482015260840162001686565b62002c228162002d9e565b6001600160a01b03811660009081526007602090815260409182902080548351818402810184019094528084526060939283018282801562001604576020028201919060005260206000209081546001600160a01b03168152600190910190602001808311620015e55750505050509050919050565b600e818154811062002d2857600080fd5b6000918252602090912001546001600160a01b0316905081565b6000546001600160a01b03163314620016435760405162461bcd60e51b815260206004820181905260248201527f4f776e61626c653a2063616c6c6572206973206e6f7420746865206f776e6572604482015260640162001686565b600080546001600160a01b038381166001600160a01b0319831681178455604051919092169283917f8be0079c531659141344cd1fd0a4f28419497f9722a3daafe3b4186f6b6457e09190a35050565b611f8780620033c983390190565b6001600160a01b038116811462002c2257600080fd5b6000806040838503121562002e2657600080fd5b823562002e338162002dfc565b9150602083013562002e458162002dfc565b809150509250929050565b634e487b7160e01b600052604160045260246000fd5b600082601f83011262002e7857600080fd5b813567ffffffffffffffff8082111562002e965762002e9662002e50565b604051601f8301601f19908116603f0116810190828211818310171562002ec15762002ec162002e50565b8160405283815286602085880101111562002edb57600080fd5b836020870160208301376000602085830101528094505050505092915050565b6000806040838503121562002f0f57600080fd5b823567ffffffffffffffff8082111562002f2857600080fd5b62002f368683870162002e66565b9350602085013591508082111562002f4d57600080fd5b5062002f5c8582860162002e66565b9150509250929050565b60006020828403121562002f7957600080fd5b813562002f868162002dfc565b9392505050565b602080825282518282018190526000919060409081850190868401855b828110156200300857815180516001600160a01b0390811686528782015116878601528581015186860152606080820151908601526080808201519086015260a09081015115159085015260c0909301929085019060010162002faa565b5091979650505050505050565b600080604083850312156200302957600080fd5b8235620030368162002dfc565b946020939093013593505050565b6020808252825182820181905260009190848201906040850190845b81811015620030875783516001600160a01b03168352928401929184019160010162003060565b50909695505050505050565b600080600060608486031215620030a957600080fd5b8335620030b68162002dfc565b9250602084013591506040840135620030cf8162002dfc565b809150509250925092565b600080600060608486031215620030f057600080fd5b8335620030fd8162002dfc565b925060208401356200310f8162002dfc565b9150604084013567ffffffffffffffff8111156200312c57600080fd5b6200313a8682870162002e66565b9150509250925092565b6000806000606084860312156200315a57600080fd5b8335620031678162002dfc565b95602085013595506040909401359392505050565b6000806000606084860312156200319257600080fd5b83356200319f8162002dfc565b92506020840135620031b18162002dfc565b929592945050506040919091013590565b602080825282518282018190526000919060409081850190868401855b828110156200300857815180516001600160a01b03168552860151868501529284019290850190600101620031df565b6000602082840312156200322257600080fd5b5035919050565b60005b83811015620032465781810151838201526020016200322c565b50506000910152565b600081518084526200326981602086016020860162003229565b601f01601f19169290920160200192915050565b6040815260006200329260408301856200324f565b8281036020840152620032a681856200324f565b95945050505050565b600060208284031215620032c257600080fd5b815162002f868162002dfc565b60008251620032e381846020870162003229565b9190910192915050565b634e487b7160e01b600052601160045260246000fd5b8181038181111562002bd75762002bd7620032ed565b634e487b7160e01b600052603260045260246000fd5b6001600160a01b03831681526040602082015260006200335360408301846200324f565b949350505050565b6000602082840312156200336e57600080fd5b5051919050565b6000826200339357634e487b7160e01b600052601260045260246000fd5b500490565b808202811582820484141762002bd75762002bd7620032ed565b8082018082111562002bd75762002bd7620032ed56fe60806040523480156200001157600080fd5b5060405162001f8738038062001f878339810160408190526200003491620001b3565b81816000620000448382620002ac565b506001620000538282620002ac565b505050620000706200006a6200008f60201b60201c565b62000093565b620000876008620000e560201b6200087b1760201c565b505062000378565b3390565b600780546001600160a01b038381166001600160a01b0319831681179093556040519116919082907f8be0079c531659141344cd1fd0a4f28419497f9722a3daafe3b4186f6b6457e090600090a35050565b80546001019055565b634e487b7160e01b600052604160045260246000fd5b600082601f8301126200011657600080fd5b81516001600160401b0380821115620001335762000133620000ee565b604051601f8301601f19908116603f011681019082821181831017156200015e576200015e620000ee565b816040528381526020925086838588010111156200017b57600080fd5b600091505b838210156200019f578582018301518183018401529082019062000180565b600093810190920192909252949350505050565b60008060408385031215620001c757600080fd5b82516001600160401b0380821115620001df57600080fd5b620001ed8683870162000104565b935060208501519150808211156200020457600080fd5b50620002138582860162000104565b9150509250929050565b600181811c908216806200023257607f821691505b6020821081036200025357634e487b7160e01b600052602260045260246000fd5b50919050565b601f821115620002a757600081815260208120601f850160051c81016020861015620002825750805b601f850160051c820191505b81811015620002a3578281556001016200028e565b5050505b505050565b81516001600160401b03811115620002c857620002c8620000ee565b620002e081620002d984546200021d565b8462000259565b602080601f831160018114620003185760008415620002ff5750858301515b600019600386901b1c1916600185901b178555620002a3565b600085815260208120601f198616915b82811015620003495788860151825594840194600190910190840162000328565b5085821015620003685787850151600019600388901b60f8161c191681555b5050505050600190811b01905550565b611bff80620003886000396000f3fe608060405234801561001057600080fd5b50600436106101215760003560e01c806370a08231116100ad578063b88d4fde11610071578063b88d4fde1461024c578063c87b56dd1461025f578063d204c45e14610272578063e985e9c514610285578063f2fde38b146102c157600080fd5b806370a0823114610205578063715018a6146102185780638da5cb5b1461022057806395d89b4114610231578063a22cb4651461023957600080fd5b806323b872dd116100f457806323b872dd146101a357806342842e0e146101b657806342966c68146101c957806354279637146101dc5780636352211e146101f257600080fd5b806301ffc9a71461012657806306fdde031461014e578063081812fc14610163578063095ea7b31461018e575b600080fd5b6101396101343660046116ae565b6102d4565b60405190151581526020015b60405180910390f35b610156610326565b604051610145919061171b565b61017661017136600461172e565b6103b8565b6040516001600160a01b039091168152602001610145565b6101a161019c366004611763565b6103df565b005b6101a16101b136600461178d565b6104f9565b6101a16101c436600461178d565b610571565b6101a16101d736600461172e565b61058c565b6101e4610603565b604051908152602001610145565b61017661020036600461172e565b61061f565b6101e46102133660046117c9565b610684565b6101a161070a565b6007546001600160a01b0316610176565b61015661071e565b6101a16102473660046117e4565b61072d565b6101a161025a3660046118ac565b61073c565b61015661026d36600461172e565b6107ba565b6101e4610280366004611928565b6107c5565b61013961029336600461198a565b6001600160a01b03918216600090815260056020908152604080832093909416825291909152205460ff1690565b6101a16102cf3660046117c9565b610805565b60006001600160e01b031982166380ac58cd60e01b148061030557506001600160e01b03198216635b5e139f60e01b145b8061032057506301ffc9a760e01b6001600160e01b03198316145b92915050565b606060008054610335906119bd565b80601f0160208091040260200160405190810160405280929190818152602001828054610361906119bd565b80156103ae5780601f10610383576101008083540402835291602001916103ae565b820191906000526020600020905b81548152906001019060200180831161039157829003601f168201915b5050505050905090565b60006103c382610884565b506000908152600460205260409020546001600160a01b031690565b60006103ea8261061f565b9050806001600160a01b0316836001600160a01b03160361045c5760405162461bcd60e51b815260206004820152602160248201527f4552433732313a20617070726f76616c20746f2063757272656e74206f776e656044820152603960f91b60648201526084015b60405180910390fd5b336001600160a01b038216148061047857506104788133610293565b6104ea5760405162461bcd60e51b815260206004820152603d60248201527f4552433732313a20617070726f76652063616c6c6572206973206e6f7420746f60448201527f6b656e206f776e6572206f7220617070726f76656420666f7220616c6c0000006064820152608401610453565b6104f483836108e8565b505050565b610504335b82610956565b6105665760405162461bcd60e51b815260206004820152602d60248201527f4552433732313a2063616c6c6572206973206e6f7420746f6b656e206f776e6560448201526c1c881bdc88185c1c1c9bdd9959609a1b6064820152608401610453565b6104f48383836109d5565b6104f48383836040518060200160405280600081525061073c565b610595336104fe565b6105f75760405162461bcd60e51b815260206004820152602d60248201527f4552433732313a2063616c6c6572206973206e6f7420746f6b656e206f776e6560448201526c1c881bdc88185c1c1c9bdd9959609a1b6064820152608401610453565b61060081610bc2565b50565b6000600161061060085490565b61061a9190611a0d565b905090565b6000818152600260205260408120546001600160a01b0316806103205760405162461bcd60e51b815260206004820152601860248201527f4552433732313a20696e76616c696420746f6b656e20494400000000000000006044820152606401610453565b60006001600160a01b0382166106ee5760405162461bcd60e51b815260206004820152602960248201527f4552433732313a2061646472657373207a65726f206973206e6f7420612076616044820152683634b21037bbb732b960b91b6064820152608401610453565b506001600160a01b031660009081526003602052604090205490565b610712610bcb565b61071c6000610c25565b565b606060018054610335906119bd565b610738338383610c77565b5050565b6107463383610956565b6107a85760405162461bcd60e51b815260206004820152602d60248201527f4552433732313a2063616c6c6572206973206e6f7420746f6b656e206f776e6560448201526c1c881bdc88185c1c1c9bdd9959609a1b6064820152608401610453565b6107b484848484610d45565b50505050565b606061032082610dc3565b60006107cf610bcb565b60006107da60085490565b90506107ea600880546001019055565b6107f48482610ecb565b6107fe8184610ee5565b9392505050565b61080d610bcb565b6001600160a01b0381166108725760405162461bcd60e51b815260206004820152602660248201527f4f776e61626c653a206e6577206f776e657220697320746865207a65726f206160448201526564647265737360d01b6064820152608401610453565b61060081610c25565b80546001019055565b6000818152600260205260409020546001600160a01b03166106005760405162461bcd60e51b815260206004820152601860248201527f4552433732313a20696e76616c696420746f6b656e20494400000000000000006044820152606401610453565b600081815260046020526040902080546001600160a01b0319166001600160a01b038416908117909155819061091d8261061f565b6001600160a01b03167f8c5be1e5ebec7d5bd14f71427d1e84f3dd0314c0f7b2291e5b200ac8c7c3b92560405160405180910390a45050565b6000806109628361061f565b9050806001600160a01b0316846001600160a01b031614806109a957506001600160a01b0380821660009081526005602090815260408083209388168352929052205460ff165b806109cd5750836001600160a01b03166109c2846103b8565b6001600160a01b0316145b949350505050565b826001600160a01b03166109e88261061f565b6001600160a01b031614610a4c5760405162461bcd60e51b815260206004820152602560248201527f4552433732313a207472616e736665722066726f6d20696e636f72726563742060448201526437bbb732b960d91b6064820152608401610453565b6001600160a01b038216610aae5760405162461bcd60e51b8152602060048201526024808201527f4552433732313a207472616e7366657220746f20746865207a65726f206164646044820152637265737360e01b6064820152608401610453565b610abb8383836001610f87565b826001600160a01b0316610ace8261061f565b6001600160a01b031614610b325760405162461bcd60e51b815260206004820152602560248201527f4552433732313a207472616e736665722066726f6d20696e636f72726563742060448201526437bbb732b960d91b6064820152608401610453565b600081815260046020908152604080832080546001600160a01b03199081169091556001600160a01b0387811680865260038552838620805460001901905590871680865283862080546001019055868652600290945282852080549092168417909155905184937fddf252ad1be2c89b69c2b068fc378daa952ba7f163c4a11628f55a4df523b3ef91a4505050565b6106008161100f565b6007546001600160a01b0316331461071c5760405162461bcd60e51b815260206004820181905260248201527f4f776e61626c653a2063616c6c6572206973206e6f7420746865206f776e65726044820152606401610453565b600780546001600160a01b038381166001600160a01b0319831681179093556040519116919082907f8be0079c531659141344cd1fd0a4f28419497f9722a3daafe3b4186f6b6457e090600090a35050565b816001600160a01b0316836001600160a01b031603610cd85760405162461bcd60e51b815260206004820152601960248201527f4552433732313a20617070726f766520746f2063616c6c6572000000000000006044820152606401610453565b6001600160a01b03838116600081815260056020908152604080832094871680845294825291829020805460ff191686151590811790915591519182527f17307eab39ab6107e8899845ad3d59bd9653f200f220920489ca2b5937696c31910160405180910390a3505050565b610d508484846109d5565b610d5c8484848461104f565b6107b45760405162461bcd60e51b815260206004820152603260248201527f4552433732313a207472616e7366657220746f206e6f6e20455243373231526560448201527131b2b4bb32b91034b6b83632b6b2b73a32b960711b6064820152608401610453565b6060610dce82610884565b60008281526006602052604081208054610de7906119bd565b80601f0160208091040260200160405190810160405280929190818152602001828054610e13906119bd565b8015610e605780601f10610e3557610100808354040283529160200191610e60565b820191906000526020600020905b815481529060010190602001808311610e4357829003601f168201915b505050505090506000610e7e60408051602081019091526000815290565b90508051600003610e90575092915050565b815115610ec2578082604051602001610eaa929190611a20565b60405160208183030381529060405292505050919050565b6109cd8461119b565b61073882826040518060200160405280600081525061120e565b6000828152600260205260409020546001600160a01b0316610f6f5760405162461bcd60e51b815260206004820152602e60248201527f45524337323155524953746f726167653a2055524920736574206f66206e6f6e60448201527f6578697374656e7420746f6b656e0000000000000000000000000000000000006064820152608401610453565b60008281526006602052604090206104f48282611a9d565b60018111156107b4576001600160a01b03841615610fcd576001600160a01b03841660009081526003602052604081208054839290610fc7908490611a0d565b90915550505b6001600160a01b038316156107b4576001600160a01b03831660009081526003602052604081208054839290611004908490611b5d565b909155505050505050565b6110188161128c565b60008181526006602052604090208054611031906119bd565b1590506106005760008181526006602052604081206106009161164a565b60006001600160a01b0384163b1561119057604051630a85bd0160e11b81526001600160a01b0385169063150b7a0290611093903390899088908890600401611b70565b6020604051808303816000875af19250505080156110ce575060408051601f3d908101601f191682019092526110cb91810190611bac565b60015b611176573d8080156110fc576040519150601f19603f3d011682016040523d82523d6000602084013e611101565b606091505b50805160000361116e5760405162461bcd60e51b815260206004820152603260248201527f4552433732313a207472616e7366657220746f206e6f6e20455243373231526560448201527131b2b4bb32b91034b6b83632b6b2b73a32b960711b6064820152608401610453565b805181602001fd5b6001600160e01b031916630a85bd0160e11b1490506109cd565b506001949350505050565b60606111a682610884565b60006111bd60408051602081019091526000815290565b905060008151116111dd57604051806020016040528060008152506107fe565b806111e78461132f565b6040516020016111f8929190611a20565b6040516020818303038152906040529392505050565b61121883836113cf565b611225600084848461104f565b6104f45760405162461bcd60e51b815260206004820152603260248201527f4552433732313a207472616e7366657220746f206e6f6e20455243373231526560448201527131b2b4bb32b91034b6b83632b6b2b73a32b960711b6064820152608401610453565b60006112978261061f565b90506112a7816000846001610f87565b6112b08261061f565b600083815260046020908152604080832080546001600160a01b03199081169091556001600160a01b0385168085526003845282852080546000190190558785526002909352818420805490911690555192935084927fddf252ad1be2c89b69c2b068fc378daa952ba7f163c4a11628f55a4df523b3ef908390a45050565b6060600061133c83611568565b600101905060008167ffffffffffffffff81111561135c5761135c611820565b6040519080825280601f01601f191660200182016040528015611386576020820181803683370190505b5090508181016020015b600019017f3031323334353637383961626364656600000000000000000000000000000000600a86061a8153600a850494508461139057509392505050565b6001600160a01b0382166114255760405162461bcd60e51b815260206004820181905260248201527f4552433732313a206d696e7420746f20746865207a65726f20616464726573736044820152606401610453565b6000818152600260205260409020546001600160a01b03161561148a5760405162461bcd60e51b815260206004820152601c60248201527f4552433732313a20746f6b656e20616c7265616479206d696e746564000000006044820152606401610453565b611498600083836001610f87565b6000818152600260205260409020546001600160a01b0316156114fd5760405162461bcd60e51b815260206004820152601c60248201527f4552433732313a20746f6b656e20616c7265616479206d696e746564000000006044820152606401610453565b6001600160a01b038216600081815260036020908152604080832080546001019055848352600290915280822080546001600160a01b0319168417905551839291907fddf252ad1be2c89b69c2b068fc378daa952ba7f163c4a11628f55a4df523b3ef908290a45050565b6000807a184f03e93ff9f4daa797ed6e38ed64bf6a1f01000000000000000083106115b1577a184f03e93ff9f4daa797ed6e38ed64bf6a1f010000000000000000830492506040015b6d04ee2d6d415b85acef810000000083106115dd576d04ee2d6d415b85acef8100000000830492506020015b662386f26fc1000083106115fb57662386f26fc10000830492506010015b6305f5e1008310611613576305f5e100830492506008015b612710831061162757612710830492506004015b60648310611639576064830492506002015b600a83106103205760010192915050565b508054611656906119bd565b6000825580601f10611666575050565b601f01602090049060005260206000209081019061060091905b808211156116945760008155600101611680565b5090565b6001600160e01b03198116811461060057600080fd5b6000602082840312156116c057600080fd5b81356107fe81611698565b60005b838110156116e65781810151838201526020016116ce565b50506000910152565b600081518084526117078160208601602086016116cb565b601f01601f19169290920160200192915050565b6020815260006107fe60208301846116ef565b60006020828403121561174057600080fd5b5035919050565b80356001600160a01b038116811461175e57600080fd5b919050565b6000806040838503121561177657600080fd5b61177f83611747565b946020939093013593505050565b6000806000606084860312156117a257600080fd5b6117ab84611747565b92506117b960208501611747565b9150604084013590509250925092565b6000602082840312156117db57600080fd5b6107fe82611747565b600080604083850312156117f757600080fd5b61180083611747565b91506020830135801515811461181557600080fd5b809150509250929050565b634e487b7160e01b600052604160045260246000fd5b600067ffffffffffffffff8084111561185157611851611820565b604051601f8501601f19908116603f0116810190828211818310171561187957611879611820565b8160405280935085815286868601111561189257600080fd5b858560208301376000602087830101525050509392505050565b600080600080608085870312156118c257600080fd5b6118cb85611747565b93506118d960208601611747565b925060408501359150606085013567ffffffffffffffff8111156118fc57600080fd5b8501601f8101871361190d57600080fd5b61191c87823560208401611836565b91505092959194509250565b6000806040838503121561193b57600080fd5b61194483611747565b9150602083013567ffffffffffffffff81111561196057600080fd5b8301601f8101851361197157600080fd5b61198085823560208401611836565b9150509250929050565b6000806040838503121561199d57600080fd5b6119a683611747565b91506119b460208401611747565b90509250929050565b600181811c908216806119d157607f821691505b6020821081036119f157634e487b7160e01b600052602260045260246000fd5b50919050565b634e487b7160e01b600052601160045260246000fd5b81810381811115610320576103206119f7565b60008351611a328184602088016116cb565b835190830190611a468183602088016116cb565b01949350505050565b601f8211156104f457600081815260208120601f850160051c81016020861015611a765750805b601f850160051c820191505b81811015611a9557828155600101611a82565b505050505050565b815167ffffffffffffffff811115611ab757611ab7611820565b611acb81611ac584546119bd565b84611a4f565b602080601f831160018114611b005760008415611ae85750858301515b600019600386901b1c1916600185901b178555611a95565b600085815260208120601f198616915b82811015611b2f57888601518255948401946001909101908401611b10565b5085821015611b4d5787850151600019600388901b60f8161c191681555b5050505050600190811b01905550565b80820180821115610320576103206119f7565b60006001600160a01b03808716835280861660208401525083604083015260806060830152611ba260808301846116ef565b9695505050505050565b600060208284031215611bbe57600080fd5b81516107fe8161169856fea26469706673582212202cd12f3504a8a6834a7fce7561ab6806a55248c03f26962d24ab5bafe23fda4764736f6c63430008110033a264697066735822122038ef464294cd6b6879d15b5198f925fc7cb2c296bd34581ea1dc2e0dd95c220f64736f6c63430008110033",
  "linkReferences": {},
  "deployedLinkReferences": {}
}