{
  "_format": "hh-sol-artifact-1",
  "contractName": "MarketPlace",
  "sourceName": "contracts/MarketPlace.sol",
  "abi": [
    {
      "inputs": [],
      "name": "MarketPlace__CannotBuyNFTThatIsNotForSale",
      "type": "error"
    },
    {
      "inputs": [],
      "name": "MarketPlace__CannotBuyOwnNFT",
      "type": "error"
    },
    {
      "inputs": [],
      "name": "MarketPlace__CannotMakeOfferOnOwnNFT",
      "type": "error"
    },
    {
      "inputs": [
        {
          "internalType": "address",
          "name": "to",
          "type": "address"
        }
      ],
      "name": "MarketPlace__CannotMintToZeroAddress",
      "type": "error"
    },
    {
      "inputs": [
        {
          "internalType": "address",
          "name": "collection",
          "type": "address"
        }
      ],
      "name": "MarketPlace__CollectionDoesNotExist",
      "type": "error"
    },
    {
      "inputs": [],
      "name": "MarketPlace__CollectionNameCannotBeEmpty",
      "type": "error"
    },
    {
      "inputs": [],
      "name": "MarketPlace__CollectionSymbolCannotBeEmpty",
      "type": "error"
    },
    {
      "inputs": [],
      "name": "MarketPlace__FundsAreZero",
      "type": "error"
    },
    {
      "inputs": [],
      "name": "MarketPlace__NFTNotForSale",
      "type": "error"
    },
    {
      "inputs": [],
      "name": "MarketPlace__OfferDoesNotExist",
      "type": "error"
    },
    {
      "inputs": [],
      "name": "MarketPlace__OfferedFundsAreLowerThenPrice",
      "type": "error"
    },
    {
      "inputs": [
        {
          "internalType": "address",
          "name": "collection",
          "type": "address"
        }
      ],
      "name": "MarketPlace__OnlyCollectionOwnerCanMint",
      "type": "error"
    },
    {
      "inputs": [],
      "name": "MarketPlace__OnlyOwnerCanSellNFT",
      "type": "error"
    },
    {
      "inputs": [],
      "name": "MarketPlace__PriceCannotBeZero",
      "type": "error"
    },
    {
      "anonymous": false,
      "inputs": [
        {
          "indexed": true,
          "internalType": "address",
          "name": "itemAddress",
          "type": "address"
        },
        {
          "indexed": true,
          "internalType": "address",
          "name": "owner",
          "type": "address"
        }
      ],
      "name": "MarketItemCreated",
      "type": "event"
    },
    {
      "anonymous": false,
      "inputs": [
        {
          "indexed": true,
          "internalType": "address",
          "name": "previousOwner",
          "type": "address"
        },
        {
          "indexed": true,
          "internalType": "address",
          "name": "newOwner",
          "type": "address"
        }
      ],
      "name": "OwnershipTransferred",
      "type": "event"
    },
    {
      "inputs": [
        {
          "internalType": "address",
          "name": "_collection",
          "type": "address"
        },
        {
          "internalType": "uint256",
          "name": "_tokenId",
          "type": "uint256"
        },
        {
          "internalType": "address",
          "name": "_buyer",
          "type": "address"
        }
      ],
      "name": "acceptOfferForNFT",
      "outputs": [],
      "stateMutability": "nonpayable",
      "type": "function"
    },
    {
      "inputs": [
        {
          "internalType": "address",
          "name": "_collection",
          "type": "address"
        },
        {
          "internalType": "uint256",
          "name": "_tokenId",
          "type": "uint256"
        }
      ],
      "name": "buyNFT",
      "outputs": [],
      "stateMutability": "payable",
      "type": "function"
    },
    {
      "inputs": [],
      "name": "collectionCount",
      "outputs": [
        {
          "internalType": "uint256",
          "name": "",
          "type": "uint256"
        }
      ],
      "stateMutability": "view",
      "type": "function"
    },
    {
      "inputs": [
        {
          "internalType": "address",
          "name": "",
          "type": "address"
        }
      ],
      "name": "collectionToOwner",
      "outputs": [
        {
          "internalType": "address",
          "name": "",
          "type": "address"
        }
      ],
      "stateMutability": "view",
      "type": "function"
    },
    {
      "inputs": [
        {
          "internalType": "uint256",
          "name": "",
          "type": "uint256"
        }
      ],
      "name": "collections",
      "outputs": [
        {
          "internalType": "address",
          "name": "",
          "type": "address"
        }
      ],
      "stateMutability": "view",
      "type": "function"
    },
    {
      "inputs": [
        {
          "internalType": "string",
          "name": "_name",
          "type": "string"
        },
        {
          "internalType": "string",
          "name": "_symbol",
          "type": "string"
        }
      ],
      "name": "createMarketItem",
      "outputs": [],
      "stateMutability": "nonpayable",
      "type": "function"
    },
    {
      "inputs": [
        {
          "internalType": "address",
          "name": "",
          "type": "address"
        },
        {
          "internalType": "address",
          "name": "",
          "type": "address"
        }
      ],
      "name": "doesUserOwnNFTInCollection",
      "outputs": [
        {
          "internalType": "bool",
          "name": "",
          "type": "bool"
        }
      ],
      "stateMutability": "view",
      "type": "function"
    },
    {
      "inputs": [
        {
          "internalType": "address",
          "name": "_owner",
          "type": "address"
        }
      ],
      "name": "getCollectionByUser",
      "outputs": [
        {
          "internalType": "address[]",
          "name": "",
          "type": "address[]"
        }
      ],
      "stateMutability": "view",
      "type": "function"
    },
    {
      "inputs": [],
      "name": "getCollections",
      "outputs": [
        {
          "internalType": "address[]",
          "name": "",
          "type": "address[]"
        }
      ],
      "stateMutability": "view",
      "type": "function"
    },
    {
      "inputs": [
        {
          "internalType": "address",
          "name": "_owner",
          "type": "address"
        }
      ],
      "name": "getCollectionsForOwner",
      "outputs": [
        {
          "internalType": "address[]",
          "name": "",
          "type": "address[]"
        }
      ],
      "stateMutability": "view",
      "type": "function"
    },
    {
      "inputs": [
        {
          "internalType": "address",
          "name": "_owner",
          "type": "address"
        },
        {
          "internalType": "address",
          "name": "_collection",
          "type": "address"
        }
      ],
      "name": "getNFTsByUserAndCollection",
      "outputs": [
        {
          "internalType": "uint256[]",
          "name": "",
          "type": "uint256[]"
        }
      ],
      "stateMutability": "view",
      "type": "function"
    },
    {
      "inputs": [
        {
          "internalType": "address",
          "name": "_collection",
          "type": "address"
        }
      ],
      "name": "getOwnerOfCollection",
      "outputs": [
        {
          "internalType": "address",
          "name": "",
          "type": "address"
        }
      ],
      "stateMutability": "view",
      "type": "function"
    },
    {
      "inputs": [
        {
          "internalType": "address",
          "name": "",
          "type": "address"
        },
        {
          "internalType": "string",
          "name": "",
          "type": "string"
        }
      ],
      "name": "hasUserMadeOfferOnNFT",
      "outputs": [
        {
          "internalType": "bool",
          "name": "",
          "type": "bool"
        }
      ],
      "stateMutability": "view",
      "type": "function"
    },
    {
      "inputs": [
        {
          "internalType": "address",
          "name": "_collection",
          "type": "address"
        },
        {
          "internalType": "uint256",
          "name": "_tokenId",
          "type": "uint256"
        }
      ],
      "name": "makeOfferForNFT",
      "outputs": [],
      "stateMutability": "payable",
      "type": "function"
    },
    {
      "inputs": [],
      "name": "marketPlacePercentage",
      "outputs": [
        {
          "internalType": "uint256",
          "name": "",
          "type": "uint256"
        }
      ],
      "stateMutability": "view",
      "type": "function"
    },
    {
      "inputs": [
        {
          "internalType": "address",
          "name": "_collection",
          "type": "address"
        },
        {
          "internalType": "address",
          "name": "_to",
          "type": "address"
        },
        {
          "internalType": "string",
          "name": "_tokenURI",
          "type": "string"
        }
      ],
      "name": "mintNFT",
      "outputs": [],
      "stateMutability": "nonpayable",
      "type": "function"
    },
    {
      "inputs": [
        {
          "internalType": "address",
          "name": "",
          "type": "address"
        },
        {
          "internalType": "uint256",
          "name": "",
          "type": "uint256"
        },
        {
          "internalType": "uint256",
          "name": "",
          "type": "uint256"
        }
      ],
      "name": "nftToOffers",
      "outputs": [
        {
          "internalType": "address",
          "name": "buyer",
          "type": "address"
        },
        {
          "internalType": "uint256",
          "name": "price",
          "type": "uint256"
        }
      ],
      "stateMutability": "view",
      "type": "function"
    },
    {
      "inputs": [
        {
          "internalType": "address",
          "name": "",
          "type": "address"
        },
        {
          "internalType": "uint256",
          "name": "",
          "type": "uint256"
        }
      ],
      "name": "nfts",
      "outputs": [
        {
          "internalType": "address",
          "name": "collection",
          "type": "address"
        },
        {
          "internalType": "address",
          "name": "owner",
          "type": "address"
        },
        {
          "internalType": "uint256",
          "name": "tokenId",
          "type": "uint256"
        },
        {
          "internalType": "uint256",
          "name": "price",
          "type": "uint256"
        },
        {
          "internalType": "bool",
          "name": "isForSale",
          "type": "bool"
        }
      ],
      "stateMutability": "view",
      "type": "function"
    },
    {
      "inputs": [],
      "name": "owner",
      "outputs": [
        {
          "internalType": "address",
          "name": "",
          "type": "address"
        }
      ],
      "stateMutability": "view",
      "type": "function"
    },
    {
      "inputs": [
        {
          "internalType": "address",
          "name": "",
          "type": "address"
        },
        {
          "internalType": "uint256",
          "name": "",
          "type": "uint256"
        }
      ],
      "name": "ownerToCollections",
      "outputs": [
        {
          "internalType": "address",
          "name": "",
          "type": "address"
        }
      ],
      "stateMutability": "view",
      "type": "function"
    },
    {
      "inputs": [
        {
          "internalType": "address",
          "name": "",
          "type": "address"
        },
        {
          "internalType": "address",
          "name": "",
          "type": "address"
        },
        {
          "internalType": "uint256",
          "name": "",
          "type": "uint256"
        }
      ],
      "name": "ownerToNFTs",
      "outputs": [
        {
          "internalType": "uint256",
          "name": "",
          "type": "uint256"
        }
      ],
      "stateMutability": "view",
      "type": "function"
    },
    {
      "inputs": [
        {
          "internalType": "address",
          "name": "_collection",
          "type": "address"
        },
        {
          "internalType": "uint256",
          "name": "_tokenId",
          "type": "uint256"
        },
        {
          "internalType": "uint256",
          "name": "_price",
          "type": "uint256"
        }
      ],
      "name": "putNFTForSale",
      "outputs": [],
      "stateMutability": "nonpayable",
      "type": "function"
    },
    {
      "inputs": [
        {
          "internalType": "address",
          "name": "_collection",
          "type": "address"
        },
        {
          "internalType": "uint256",
          "name": "_tokenId",
          "type": "uint256"
        },
        {
          "internalType": "address",
          "name": "_buyer",
          "type": "address"
        }
      ],
      "name": "rejectOfferForNFT",
      "outputs": [],
      "stateMutability": "nonpayable",
      "type": "function"
    },
    {
      "inputs": [
        {
          "internalType": "address",
          "name": "_collection",
          "type": "address"
        },
        {
          "internalType": "uint256",
          "name": "_tokenId",
          "type": "uint256"
        }
      ],
      "name": "removeNFTFromSale",
      "outputs": [],
      "stateMutability": "nonpayable",
      "type": "function"
    },
    {
      "inputs": [],
      "name": "renounceOwnership",
      "outputs": [],
      "stateMutability": "nonpayable",
      "type": "function"
    },
    {
      "inputs": [],
      "name": "totalNFTCount",
      "outputs": [
        {
          "internalType": "uint256",
          "name": "",
          "type": "uint256"
        }
      ],
      "stateMutability": "view",
      "type": "function"
    },
    {
      "inputs": [
        {
          "internalType": "address",
          "name": "newOwner",
          "type": "address"
        }
      ],
      "name": "transferOwnership",
      "outputs": [],
      "stateMutability": "nonpayable",
      "type": "function"
    },
    {
      "inputs": [
        {
          "internalType": "address",
          "name": "",
          "type": "address"
        },
        {
          "internalType": "string",
          "name": "",
          "type": "string"
        }
      ],
      "name": "userNFTOFferIndex",
      "outputs": [
        {
          "internalType": "uint256",
          "name": "",
          "type": "uint256"
        }
      ],
      "stateMutability": "view",
      "type": "function"
    },
    {
      "inputs": [
        {
          "internalType": "address",
          "name": "",
          "type": "address"
        },
        {
          "internalType": "uint256",
          "name": "",
          "type": "uint256"
        }
      ],
      "name": "userToOwnedCollections",
      "outputs": [
        {
          "internalType": "address",
          "name": "",
          "type": "address"
        }
      ],
      "stateMutability": "view",
      "type": "function"
    },
    {
      "inputs": [
        {
          "internalType": "address",
          "name": "_collection",
          "type": "address"
        },
        {
          "internalType": "uint256",
          "name": "_tokenId",
          "type": "uint256"
        }
      ],
      "name": "widthdrawOfferForNFT",
      "outputs": [],
      "stateMutability": "nonpayable",
      "type": "function"
    },
    {
      "inputs": [],
      "name": "withdrawMarketPlaceProfit",
      "outputs": [],
      "stateMutability": "nonpayable",
      "type": "function"
    }
  ],
  "bytecode": "0x6080604052600a600355600060045534801561001a57600080fd5b5061002433610029565b610079565b600080546001600160a01b038381166001600160a01b0319831681178455604051919092169283917f8be0079c531659141344cd1fd0a4f28419497f9722a3daafe3b4186f6b6457e09190a35050565b6149f780620000896000396000f3fe608060405260043610620001ff5760003560e01c80636f82d78a1162000117578063b37a642411620000a1578063f2fde38b116200006c578063f2fde38b14620006fd578063f8b36ea01462000722578063fa33331e1462000756578063fdbda0ec146200077b57600080fd5b8063b37a6424146200065b578063cdd664121462000680578063d57f966b14620006cd578063de94421f14620006e557600080fd5b8063861b43f911620000e2578063861b43f914620005da5780638da5cb5b14620005ff578063a82ba76f146200061f578063a833102a146200063657600080fd5b80636f82d78a1462000533578063715018a614620005585780637c818f54146200057057806381dae58e146200059557600080fd5b806343af356b11620001995780636049d98c11620001645780636049d98c14620004695780636208171214620004b957806366ca3cd314620004f65780636bfbb225146200051b57600080fd5b806343af356b146200035a57806346e6358614620003f857806348d79ed4146200041f5780635c793d65146200044457600080fd5b8063367d048911620001da578063367d048914620002a457806337aebc9114620002cb57806337f9accd14620002e257806340045db6146200030757600080fd5b80630223abc314620002045780630ce41800146200025857806335697d1f146200027f575b600080fd5b3480156200021157600080fd5b506200024362000223366004620024d3565b600860209081526000928352604080842090915290825290205460ff1681565b60405190151581526020015b60405180910390f35b3480156200026557600080fd5b506200027d62000277366004620025bc565b620007a0565b005b3480156200028c57600080fd5b506200027d6200029e36600462002627565b62000951565b348015620002b157600080fd5b50620002bc62000aa2565b6040519081526020016200024f565b6200027d620002dc36600462002627565b62000ab3565b348015620002ef57600080fd5b506200027d6200030136600462002627565b62000cd7565b3480156200031457600080fd5b50620003416200032636600462002656565b6005602052600090815260409020546001600160a01b031681565b6040516001600160a01b0390911681526020016200024f565b3480156200036757600080fd5b50620003c26200037936600462002627565b600a602090815260009283526040808420909152908252902080546001820154600283015460038401546004909401546001600160a01b03938416949390921692909160ff1685565b604080516001600160a01b0396871681529590941660208601529284019190915260608301521515608082015260a0016200024f565b3480156200040557600080fd5b5062000410620010ba565b6040516200024f91906200267d565b3480156200042c57600080fd5b50620003416200043e36600462002627565b6200111e565b3480156200045157600080fd5b506200027d62000463366004620026cc565b62001157565b3480156200047657600080fd5b50620002436200048836600462002713565b600c602090815260009283526040909220815180830184018051928152908401929093019190912091525460ff1681565b348015620004c657600080fd5b5062000341620004d836600462002656565b6001600160a01b039081166000908152600560205260409020541690565b3480156200050357600080fd5b50620004106200051536600462002656565b62001563565b3480156200052857600080fd5b50620002bc60035481565b3480156200054057600080fd5b50620003416200055236600462002627565b620015db565b3480156200056557600080fd5b506200027d620015f8565b3480156200057d57600080fd5b506200027d6200058f3660046200275f565b62001610565b348015620005a257600080fd5b50620005ba620005b4366004620027c9565b620018a0565b604080516001600160a01b0390931683526020830191909152016200024f565b348015620005e757600080fd5b506200027d620005f9366004620027c9565b620018f5565b3480156200060c57600080fd5b506000546001600160a01b031662000341565b6200027d6200063036600462002627565b620019ec565b3480156200064357600080fd5b50620002bc6200065536600462002801565b62001cf5565b3480156200066857600080fd5b506200027d6200067a366004620026cc565b62001d34565b3480156200068d57600080fd5b50620002bc6200069f36600462002713565b600d602090815260009283526040909220815180830184018051928152908401929093019190912091525481565b348015620006da57600080fd5b50620002bc62002222565b348015620006f257600080fd5b506200027d6200222e565b3480156200070a57600080fd5b506200027d6200071c36600462002656565b6200226a565b3480156200072f57600080fd5b506200074762000741366004620024d3565b620022e6565b6040516200024f919062002847565b3480156200076357600080fd5b50620004106200077536600462002656565b62002362565b3480156200078857600080fd5b50620003416200079a36600462002881565b620023d8565b604080516020808201909252600090528251908301207f3a2db9fe7908dcc36d81824d2338fc3f1aff49ac357dd8c4840527fba27a5b9001620007f6576040516340a199b160e11b815260040160405180910390fd5b604080516020808201909252600090528151908201207f3a2db9fe7908dcc36d81824d2338fc3f1aff49ac357dd8c4840527fba27a5b90016200084b5760405162cc9d3160e51b815260040160405180910390fd5b600082826040516200085d90620024af565b6200086a929190620028ef565b604051809103906000f08015801562000887573d6000803e3d6000fd5b50600e805460018082019092557fbb7b4a454dc3493923482f07822329ed19e8244eff582cc204f8554c3620c3fd0180546001600160a01b0384166001600160a01b031991821681179092556000828152600560209081526040808320805485163390811790915583526006825282208054808701825590835291200180549091169091179055805481019055905060405133906001600160a01b038316907f2ed77352da7fdb0e1292e9bc4154a60dc6c6b52750d3b62d3b1e58cd10f3047f90600090a3505050565b6001600160a01b038281166000818152600a60209081526040808320868452825291829020825160a0810184528154861681526001820154909516918501919091526002810154848301526003810154606085015260049081015460ff161515608085015290516331a9108f60e11b81529081018490528492913391636352211e90602401602060405180830381865afa158015620009f4573d6000803e3d6000fd5b505050506040513d601f19601f8201168201806040525081019062000a1a919062002921565b6001600160a01b03161462000a4257604051633fca4a7b60e11b815260040160405180910390fd5b806080015162000a65576040516351f3e85f60e11b815260040160405180910390fd5b50506001600160a01b03919091166000908152600a602090815260408083209383529290529081206003810191909155600401805460ff19169055565b600062000aae60025490565b905090565b6040516331a9108f60e11b815260048101829052829033906001600160a01b03831690636352211e90602401602060405180830381865afa15801562000afd573d6000803e3d6000fd5b505050506040513d601f19601f8201168201806040525081019062000b23919062002921565b6001600160a01b03160362000b4b5760405163a2c4efc360e01b815260040160405180910390fd5b3460000362000b6d5760405163605f459360e11b815260040160405180910390fd5b6001600160a01b038381166000908152600b6020908152604080832086845282528083208151808301835233808252348286019081528354600180820186559488528688209351600290910290930180546001600160a01b03191693909816929092178755905195820195909555938352600c82529182902091516001600160601b0319606088901b16918101919091526034810185905260540160408051601f198184030181529082905262000c249162002941565b9081526040805160209281900383019020805460ff1916931515939093179092556001600160a01b0385166000908152600b8252828120858252909152205462000c719060019062002975565b336000908152600d602090815260409182902091516001600160601b0319606088901b16918101919091526034810185905260540160408051601f198184030181529082905262000cc29162002941565b90815260405190819003602001902055505050565b6040516331a9108f60e11b815260048101829052829033906001600160a01b03831690636352211e90602401602060405180830381865afa15801562000d21573d6000803e3d6000fd5b505050506040513d601f19601f8201168201806040525081019062000d47919062002921565b6001600160a01b03160362000d6f5760405163a2c4efc360e01b815260040160405180910390fd5b336000908152600c602090815260409182902091516001600160601b0319606087901b16918101919091526034810184905260540160408051601f198184030181529082905262000dc09162002941565b9081526040519081900360200190205460ff1662000df157604051630586ae5f60e51b815260040160405180910390fd5b336000908152600d6020908152604080832090516001600160601b0319606088901b1692810192909252603482018590529060540160408051601f198184030181529082905262000e429162002941565b9081526040805160209281900383019020546001600160a01b0387166000908152600b84528281208782529093529082208054919350908390811062000e8c5762000e8c6200298b565b60009182526020808320604080518082018252600290940290910180546001600160a01b039081168552600190910154848401528981168552600b83528185208986529092529092205481519193509116331462000efd57604051630586ae5f60e51b815260040160405180910390fd5b6001600160a01b0386166000908152600b60209081526040808320888452909152902062000f2d60018362002975565b8154811062000f405762000f406200298b565b600091825260208083206001600160a01b038a168452600b825260408085208a865290925292208054600290920290920191908590811062000f865762000f866200298b565b60009182526020808320845460029093020180546001600160a01b0319166001600160a01b03938416178155600194850154908501559089168252600b8152604080832089845290915290209062000fdf908362002975565b8154811062000ff25762000ff26200298b565b6000918252602080832060029290920290910180546001600160a01b0319168155600101829055338252600c8152604080832090516001600160601b031960608b901b1692810192909252603482018890529060540160408051601f1981840301815290829052620010649162002941565b90815260405160209181900382018120805460ff19169315159390931790925583015133916108fc82150291906000818181858888f19350505050158015620010b1573d6000803e3d6000fd5b50505050505050565b6060600e8054806020026020016040519081016040528092919081815260200182805480156200111457602002820191906000526020600020905b81546001600160a01b03168152600190910190602001808311620010f5575b5050505050905090565b600660205281600052604060002081815481106200113b57600080fd5b6000918252602090912001546001600160a01b03169150829050565b6040516331a9108f60e11b815260048101839052839033906001600160a01b03831690636352211e90602401602060405180830381865afa158015620011a1573d6000803e3d6000fd5b505050506040513d601f19601f82011682018060405250810190620011c7919062002921565b6001600160a01b031614620011ef57604051633fca4a7b60e11b815260040160405180910390fd5b6001600160a01b0382166000908152600c602090815260409182902091516001600160601b0319606088901b16918101919091526034810185905260540160408051601f1981840301815290829052620012499162002941565b9081526040519081900360200190205460ff166200127a57604051630586ae5f60e51b815260040160405180910390fd5b6001600160a01b0382166000908152600d6020908152604080832090516001600160601b0319606089901b1692810192909252603482018690529060540160408051601f1981840301815290829052620012d49162002941565b9081526040805160209281900383019020546001600160a01b0388166000908152600b8452828120888252909352908220805491935090839081106200131e576200131e6200298b565b60009182526020808320604080518082018252600290940290910180546001600160a01b039081168552600190910154848401528a81168552600b83528185208a865290925290922054815191935091908116908616146200139357604051630586ae5f60e51b815260040160405180910390fd5b6001600160a01b0387166000908152600b602090815260408083208984529091529020620013c360018362002975565b81548110620013d657620013d66200298b565b600091825260208083206001600160a01b038b168452600b825260408085208b86529092529220805460029092029092019190859081106200141c576200141c6200298b565b60009182526020808320845460029093020180546001600160a01b0319166001600160a01b0393841617815560019485015490850155908a168252600b815260408083208a845290915290209062001475908362002975565b815481106200148857620014886200298b565b6000918252602080832060029290920290910180546001600160a01b03191681556001018290556001600160a01b0387168252600c8152604080832090516001600160601b031960608c901b1692810192909252603482018990529060540160408051601f1981840301815290829052620015039162002941565b90815260405160209181900382018120805460ff1916931515939093179092558301516001600160a01b038716916108fc82150291906000818181858888f1935050505015801562001559573d6000803e3d6000fd5b5050505050505050565b6001600160a01b038116600090815260066020908152604091829020805483518184028101840190945280845260609392830182828015620015cf57602002820191906000526020600020905b81546001600160a01b03168152600190910190602001808311620015b0575b50505050509050919050565b600760205281600052604060002081815481106200113b57600080fd5b6200160262002403565b6200160e60006200245f565b565b6001600160a01b0380841660009081526005602052604090205416806200165a576040516342eaab2560e01b81526001600160a01b03851660048201526024015b60405180910390fd5b6001600160a01b0381163314620016905760405163cd33301160e01b81526001600160a01b038516600482015260240162001651565b6001600160a01b038316620016c45760405163f56d767160e01b81526001600160a01b038416600482015260240162001651565b604051636902622f60e11b815284906000906001600160a01b0383169063d204c45e90620016f99088908890600401620029a1565b6020604051808303816000875af115801562001719573d6000803e3d6000fd5b505050506040513d601f19601f820116820180604052508101906200173f9190620029cd565b6040805160a0810182526001600160a01b03808a16808352898216602080850182815285870188815260006060880181815260808901828152878352600a86528a83208c845286528a832099518a54908a166001600160a01b0319918216178b55945160018b01805491909a169516949094179097559051600288015594516003870155516004909501805495151560ff1990961695909517909455825260088352838220908252909152205490915060ff168062001858576001600160a01b0386811660008181526007602090815260408083208054600180820183559185528385200180546001600160a01b031916968e1696871790559383526008825280832094835293905291909120805460ff191690911790555b6001600160a01b038087166000908152600960209081526040808320938b168352928152918120805460018101825590825291902001829055620010b1600280546001019055565b600b6020528260005260406000206020528160005260406000208181548110620018c957600080fd5b6000918252602090912060029091020180546001909101546001600160a01b0390911693509150839050565b6040516331a9108f60e11b815260048101839052839033906001600160a01b03831690636352211e90602401602060405180830381865afa1580156200193f573d6000803e3d6000fd5b505050506040513d601f19601f8201168201806040525081019062001965919062002921565b6001600160a01b0316146200198d57604051633fca4a7b60e11b815260040160405180910390fd5b81600003620019af5760405163605f459360e11b815260040160405180910390fd5b506001600160a01b03929092166000908152600a60209081526040808320938352929052206003810191909155600401805460ff19166001179055565b6040516331a9108f60e11b815260048101829052829033906001600160a01b03831690636352211e90602401602060405180830381865afa15801562001a36573d6000803e3d6000fd5b505050506040513d601f19601f8201168201806040525081019062001a5c919062002921565b6001600160a01b03160362001a8457604051630c6fa48560e41b815260040160405180910390fd5b3460000362001aa6576040516350b8b33d60e11b815260040160405180910390fd5b6001600160a01b038084166000908152600a60209081526040808320868452825291829020825160a081018452815485168152600182015490941691840191909152600281015491830191909152600381015460608301526004015460ff1615156080820181905262001b2c57604051634d93c24160e01b815260040160405180910390fd5b806060015134101562001b5257604051634c6d953160e01b815260040160405180910390fd5b6040516331a9108f60e11b8152600481018490526000906001600160a01b03841690636352211e90602401602060405180830381865afa15801562001b9b573d6000803e3d6000fd5b505050506040513d601f19601f8201168201806040525081019062001bc1919062002921565b604051632142170760e11b81526001600160a01b03808316600483015233602483015260448201879052919250908416906342842e0e90606401600060405180830381600087803b15801562001c1657600080fd5b505af115801562001c2b573d6000803e3d6000fd5b505050506001600160a01b0385166000908152600a6020908152604080832087845290915281206001810180546001600160a01b03191633179055346003808301919091556004909101805460ff191690555462001c8c90606490620029e7565b62001c98903462002a0a565b9050806004600082825462001cae919062002a24565b90915550506001600160a01b0382166108fc62001ccc833462002975565b6040518115909202916000818181858888f19350505050158015620010b1573d6000803e3d6000fd5b6009602052826000526040600020602052816000526040600020818154811062001d1e57600080fd5b9060005260206000200160009250925050505481565b6040516331a9108f60e11b815260048101839052839033906001600160a01b03831690636352211e90602401602060405180830381865afa15801562001d7e573d6000803e3d6000fd5b505050506040513d601f19601f8201168201806040525081019062001da4919062002921565b6001600160a01b03161462001dcc57604051633fca4a7b60e11b815260040160405180910390fd5b6001600160a01b0382166000908152600c602090815260409182902091516001600160601b0319606088901b16918101919091526034810185905260540160408051601f198184030181529082905262001e269162002941565b9081526040519081900360200190205460ff1662001e5757604051630586ae5f60e51b815260040160405180910390fd5b6001600160a01b0382166000908152600d6020908152604080832090516001600160601b0319606089901b1692810192909252603482018690529060540160408051601f198184030181529082905262001eb19162002941565b9081526040805160209281900383019020546001600160a01b0388166000908152600b84528281208882529093529082208054919350908390811062001efb5762001efb6200298b565b60009182526020808320604080518082018252600290940290910180546001600160a01b039081168552600190910154848401528a81168552600b83528185208a8652909252909220548151919350919081169086161462001f7057604051630586ae5f60e51b815260040160405180910390fd5b604051632142170760e11b81523360048201526001600160a01b038681166024830152604482018890528516906342842e0e90606401600060405180830381600087803b15801562001fc157600080fd5b505af115801562001fd6573d6000803e3d6000fd5b505050506001600160a01b038781166000818152600a602090815260408083208b84528252808320600190810180546001600160a01b031916968c1696909617909555928252600b81528282208a83529052209062002036908362002975565b815481106200204957620020496200298b565b600091825260208083206001600160a01b038b168452600b825260408085208b86529092529220805460029092029092019190859081106200208f576200208f6200298b565b60009182526020808320845460029093020180546001600160a01b0319166001600160a01b0393841617815560019485015490850155908a168252600b815260408083208a8452909152902090620020e8908362002975565b81548110620020fb57620020fb6200298b565b6000918252602080832060029290920290910180546001600160a01b03191681556001018290556001600160a01b0387168252600c8152604080832090516001600160601b031960608c901b1692810192909252603482018990529060540160408051601f1981840301815290829052620021769162002941565b908152604051908190036020019020805491151560ff19909216919091179055600354600090620021aa90606490620029e7565b8360200151620021bb919062002a0a565b90508060046000828254620021d1919062002a24565b9091555050602083015133906108fc90620021ee90849062002975565b6040518115909202916000818181858888f1935050505015801562002217573d6000803e3d6000fd5b505050505050505050565b600062000aae60015490565b6200223862002403565b600454604051339180156108fc02916000818181858888f1935050505015801562002267573d6000803e3d6000fd5b50565b6200227462002403565b6001600160a01b038116620022db5760405162461bcd60e51b815260206004820152602660248201527f4f776e61626c653a206e6577206f776e657220697320746865207a65726f206160448201526564647265737360d01b606482015260840162001651565b62002267816200245f565b6001600160a01b0380831660009081526009602090815260408083209385168352928152908290208054835181840281018401909452808452606093928301828280156200235457602002820191906000526020600020905b8154815260200190600101908083116200233f575b505050505090505b92915050565b6001600160a01b038116600090815260076020908152604091829020805483518184028101840190945280845260609392830182828015620015cf576020028201919060005260206000209081546001600160a01b03168152600190910190602001808311620015b05750505050509050919050565b600e8181548110620023e957600080fd5b6000918252602090912001546001600160a01b0316905081565b6000546001600160a01b031633146200160e5760405162461bcd60e51b815260206004820181905260248201527f4f776e61626c653a2063616c6c6572206973206e6f7420746865206f776e6572604482015260640162001651565b600080546001600160a01b038381166001600160a01b0319831681178455604051919092169283917f8be0079c531659141344cd1fd0a4f28419497f9722a3daafe3b4186f6b6457e09190a35050565b611f878062002a3b83390190565b6001600160a01b03811681146200226757600080fd5b60008060408385031215620024e757600080fd5b8235620024f481620024bd565b915060208301356200250681620024bd565b809150509250929050565b634e487b7160e01b600052604160045260246000fd5b600082601f8301126200253957600080fd5b813567ffffffffffffffff8082111562002557576200255762002511565b604051601f8301601f19908116603f0116810190828211818310171562002582576200258262002511565b816040528381528660208588010111156200259c57600080fd5b836020870160208301376000602085830101528094505050505092915050565b60008060408385031215620025d057600080fd5b823567ffffffffffffffff80821115620025e957600080fd5b620025f78683870162002527565b935060208501359150808211156200260e57600080fd5b506200261d8582860162002527565b9150509250929050565b600080604083850312156200263b57600080fd5b82356200264881620024bd565b946020939093013593505050565b6000602082840312156200266957600080fd5b81356200267681620024bd565b9392505050565b6020808252825182820181905260009190848201906040850190845b81811015620026c05783516001600160a01b03168352928401929184019160010162002699565b50909695505050505050565b600080600060608486031215620026e257600080fd5b8335620026ef81620024bd565b92506020840135915060408401356200270881620024bd565b809150509250925092565b600080604083850312156200272757600080fd5b82356200273481620024bd565b9150602083013567ffffffffffffffff8111156200275157600080fd5b6200261d8582860162002527565b6000806000606084860312156200277557600080fd5b83356200278281620024bd565b925060208401356200279481620024bd565b9150604084013567ffffffffffffffff811115620027b157600080fd5b620027bf8682870162002527565b9150509250925092565b600080600060608486031215620027df57600080fd5b8335620027ec81620024bd565b95602085013595506040909401359392505050565b6000806000606084860312156200281757600080fd5b83356200282481620024bd565b925060208401356200283681620024bd565b929592945050506040919091013590565b6020808252825182820181905260009190848201906040850190845b81811015620026c05783518352928401929184019160010162002863565b6000602082840312156200289457600080fd5b5035919050565b60005b83811015620028b85781810151838201526020016200289e565b50506000910152565b60008151808452620028db8160208601602086016200289b565b601f01601f19169290920160200192915050565b604081526000620029046040830185620028c1565b8281036020840152620029188185620028c1565b95945050505050565b6000602082840312156200293457600080fd5b81516200267681620024bd565b60008251620029558184602087016200289b565b9190910192915050565b634e487b7160e01b600052601160045260246000fd5b818103818111156200235c576200235c6200295f565b634e487b7160e01b600052603260045260246000fd5b6001600160a01b0383168152604060208201526000620029c56040830184620028c1565b949350505050565b600060208284031215620029e057600080fd5b5051919050565b60008262002a0557634e487b7160e01b600052601260045260246000fd5b500490565b80820281158282048414176200235c576200235c6200295f565b808201808211156200235c576200235c6200295f56fe60806040523480156200001157600080fd5b5060405162001f8738038062001f878339810160408190526200003491620001b3565b81816000620000448382620002ac565b506001620000538282620002ac565b505050620000706200006a6200008f60201b60201c565b62000093565b620000876008620000e560201b6200087b1760201c565b505062000378565b3390565b600780546001600160a01b038381166001600160a01b0319831681179093556040519116919082907f8be0079c531659141344cd1fd0a4f28419497f9722a3daafe3b4186f6b6457e090600090a35050565b80546001019055565b634e487b7160e01b600052604160045260246000fd5b600082601f8301126200011657600080fd5b81516001600160401b0380821115620001335762000133620000ee565b604051601f8301601f19908116603f011681019082821181831017156200015e576200015e620000ee565b816040528381526020925086838588010111156200017b57600080fd5b600091505b838210156200019f578582018301518183018401529082019062000180565b600093810190920192909252949350505050565b60008060408385031215620001c757600080fd5b82516001600160401b0380821115620001df57600080fd5b620001ed8683870162000104565b935060208501519150808211156200020457600080fd5b50620002138582860162000104565b9150509250929050565b600181811c908216806200023257607f821691505b6020821081036200025357634e487b7160e01b600052602260045260246000fd5b50919050565b601f821115620002a757600081815260208120601f850160051c81016020861015620002825750805b601f850160051c820191505b81811015620002a3578281556001016200028e565b5050505b505050565b81516001600160401b03811115620002c857620002c8620000ee565b620002e081620002d984546200021d565b8462000259565b602080601f831160018114620003185760008415620002ff5750858301515b600019600386901b1c1916600185901b178555620002a3565b600085815260208120601f198616915b82811015620003495788860151825594840194600190910190840162000328565b5085821015620003685787850151600019600388901b60f8161c191681555b5050505050600190811b01905550565b611bff80620003886000396000f3fe608060405234801561001057600080fd5b50600436106101215760003560e01c806370a08231116100ad578063b88d4fde11610071578063b88d4fde1461024c578063c87b56dd1461025f578063d204c45e14610272578063e985e9c514610285578063f2fde38b146102c157600080fd5b806370a0823114610205578063715018a6146102185780638da5cb5b1461022057806395d89b4114610231578063a22cb4651461023957600080fd5b806323b872dd116100f457806323b872dd146101a357806342842e0e146101b657806342966c68146101c957806354279637146101dc5780636352211e146101f257600080fd5b806301ffc9a71461012657806306fdde031461014e578063081812fc14610163578063095ea7b31461018e575b600080fd5b6101396101343660046116ae565b6102d4565b60405190151581526020015b60405180910390f35b610156610326565b604051610145919061171b565b61017661017136600461172e565b6103b8565b6040516001600160a01b039091168152602001610145565b6101a161019c366004611763565b6103df565b005b6101a16101b136600461178d565b6104f9565b6101a16101c436600461178d565b610571565b6101a16101d736600461172e565b61058c565b6101e4610603565b604051908152602001610145565b61017661020036600461172e565b61061f565b6101e46102133660046117c9565b610684565b6101a161070a565b6007546001600160a01b0316610176565b61015661071e565b6101a16102473660046117e4565b61072d565b6101a161025a3660046118ac565b61073c565b61015661026d36600461172e565b6107ba565b6101e4610280366004611928565b6107c5565b61013961029336600461198a565b6001600160a01b03918216600090815260056020908152604080832093909416825291909152205460ff1690565b6101a16102cf3660046117c9565b610805565b60006001600160e01b031982166380ac58cd60e01b148061030557506001600160e01b03198216635b5e139f60e01b145b8061032057506301ffc9a760e01b6001600160e01b03198316145b92915050565b606060008054610335906119bd565b80601f0160208091040260200160405190810160405280929190818152602001828054610361906119bd565b80156103ae5780601f10610383576101008083540402835291602001916103ae565b820191906000526020600020905b81548152906001019060200180831161039157829003601f168201915b5050505050905090565b60006103c382610884565b506000908152600460205260409020546001600160a01b031690565b60006103ea8261061f565b9050806001600160a01b0316836001600160a01b03160361045c5760405162461bcd60e51b815260206004820152602160248201527f4552433732313a20617070726f76616c20746f2063757272656e74206f776e656044820152603960f91b60648201526084015b60405180910390fd5b336001600160a01b038216148061047857506104788133610293565b6104ea5760405162461bcd60e51b815260206004820152603d60248201527f4552433732313a20617070726f76652063616c6c6572206973206e6f7420746f60448201527f6b656e206f776e6572206f7220617070726f76656420666f7220616c6c0000006064820152608401610453565b6104f483836108e8565b505050565b610504335b82610956565b6105665760405162461bcd60e51b815260206004820152602d60248201527f4552433732313a2063616c6c6572206973206e6f7420746f6b656e206f776e6560448201526c1c881bdc88185c1c1c9bdd9959609a1b6064820152608401610453565b6104f48383836109d5565b6104f48383836040518060200160405280600081525061073c565b610595336104fe565b6105f75760405162461bcd60e51b815260206004820152602d60248201527f4552433732313a2063616c6c6572206973206e6f7420746f6b656e206f776e6560448201526c1c881bdc88185c1c1c9bdd9959609a1b6064820152608401610453565b61060081610bc2565b50565b6000600161061060085490565b61061a9190611a0d565b905090565b6000818152600260205260408120546001600160a01b0316806103205760405162461bcd60e51b815260206004820152601860248201527f4552433732313a20696e76616c696420746f6b656e20494400000000000000006044820152606401610453565b60006001600160a01b0382166106ee5760405162461bcd60e51b815260206004820152602960248201527f4552433732313a2061646472657373207a65726f206973206e6f7420612076616044820152683634b21037bbb732b960b91b6064820152608401610453565b506001600160a01b031660009081526003602052604090205490565b610712610bcb565b61071c6000610c25565b565b606060018054610335906119bd565b610738338383610c77565b5050565b6107463383610956565b6107a85760405162461bcd60e51b815260206004820152602d60248201527f4552433732313a2063616c6c6572206973206e6f7420746f6b656e206f776e6560448201526c1c881bdc88185c1c1c9bdd9959609a1b6064820152608401610453565b6107b484848484610d45565b50505050565b606061032082610dc3565b60006107cf610bcb565b60006107da60085490565b90506107ea600880546001019055565b6107f48482610ecb565b6107fe8184610ee5565b9392505050565b61080d610bcb565b6001600160a01b0381166108725760405162461bcd60e51b815260206004820152602660248201527f4f776e61626c653a206e6577206f776e657220697320746865207a65726f206160448201526564647265737360d01b6064820152608401610453565b61060081610c25565b80546001019055565b6000818152600260205260409020546001600160a01b03166106005760405162461bcd60e51b815260206004820152601860248201527f4552433732313a20696e76616c696420746f6b656e20494400000000000000006044820152606401610453565b600081815260046020526040902080546001600160a01b0319166001600160a01b038416908117909155819061091d8261061f565b6001600160a01b03167f8c5be1e5ebec7d5bd14f71427d1e84f3dd0314c0f7b2291e5b200ac8c7c3b92560405160405180910390a45050565b6000806109628361061f565b9050806001600160a01b0316846001600160a01b031614806109a957506001600160a01b0380821660009081526005602090815260408083209388168352929052205460ff165b806109cd5750836001600160a01b03166109c2846103b8565b6001600160a01b0316145b949350505050565b826001600160a01b03166109e88261061f565b6001600160a01b031614610a4c5760405162461bcd60e51b815260206004820152602560248201527f4552433732313a207472616e736665722066726f6d20696e636f72726563742060448201526437bbb732b960d91b6064820152608401610453565b6001600160a01b038216610aae5760405162461bcd60e51b8152602060048201526024808201527f4552433732313a207472616e7366657220746f20746865207a65726f206164646044820152637265737360e01b6064820152608401610453565b610abb8383836001610f87565b826001600160a01b0316610ace8261061f565b6001600160a01b031614610b325760405162461bcd60e51b815260206004820152602560248201527f4552433732313a207472616e736665722066726f6d20696e636f72726563742060448201526437bbb732b960d91b6064820152608401610453565b600081815260046020908152604080832080546001600160a01b03199081169091556001600160a01b0387811680865260038552838620805460001901905590871680865283862080546001019055868652600290945282852080549092168417909155905184937fddf252ad1be2c89b69c2b068fc378daa952ba7f163c4a11628f55a4df523b3ef91a4505050565b6106008161100f565b6007546001600160a01b0316331461071c5760405162461bcd60e51b815260206004820181905260248201527f4f776e61626c653a2063616c6c6572206973206e6f7420746865206f776e65726044820152606401610453565b600780546001600160a01b038381166001600160a01b0319831681179093556040519116919082907f8be0079c531659141344cd1fd0a4f28419497f9722a3daafe3b4186f6b6457e090600090a35050565b816001600160a01b0316836001600160a01b031603610cd85760405162461bcd60e51b815260206004820152601960248201527f4552433732313a20617070726f766520746f2063616c6c6572000000000000006044820152606401610453565b6001600160a01b03838116600081815260056020908152604080832094871680845294825291829020805460ff191686151590811790915591519182527f17307eab39ab6107e8899845ad3d59bd9653f200f220920489ca2b5937696c31910160405180910390a3505050565b610d508484846109d5565b610d5c8484848461104f565b6107b45760405162461bcd60e51b815260206004820152603260248201527f4552433732313a207472616e7366657220746f206e6f6e20455243373231526560448201527131b2b4bb32b91034b6b83632b6b2b73a32b960711b6064820152608401610453565b6060610dce82610884565b60008281526006602052604081208054610de7906119bd565b80601f0160208091040260200160405190810160405280929190818152602001828054610e13906119bd565b8015610e605780601f10610e3557610100808354040283529160200191610e60565b820191906000526020600020905b815481529060010190602001808311610e4357829003601f168201915b505050505090506000610e7e60408051602081019091526000815290565b90508051600003610e90575092915050565b815115610ec2578082604051602001610eaa929190611a20565b60405160208183030381529060405292505050919050565b6109cd8461119b565b61073882826040518060200160405280600081525061120e565b6000828152600260205260409020546001600160a01b0316610f6f5760405162461bcd60e51b815260206004820152602e60248201527f45524337323155524953746f726167653a2055524920736574206f66206e6f6e60448201527f6578697374656e7420746f6b656e0000000000000000000000000000000000006064820152608401610453565b60008281526006602052604090206104f48282611a9d565b60018111156107b4576001600160a01b03841615610fcd576001600160a01b03841660009081526003602052604081208054839290610fc7908490611a0d565b90915550505b6001600160a01b038316156107b4576001600160a01b03831660009081526003602052604081208054839290611004908490611b5d565b909155505050505050565b6110188161128c565b60008181526006602052604090208054611031906119bd565b1590506106005760008181526006602052604081206106009161164a565b60006001600160a01b0384163b1561119057604051630a85bd0160e11b81526001600160a01b0385169063150b7a0290611093903390899088908890600401611b70565b6020604051808303816000875af19250505080156110ce575060408051601f3d908101601f191682019092526110cb91810190611bac565b60015b611176573d8080156110fc576040519150601f19603f3d011682016040523d82523d6000602084013e611101565b606091505b50805160000361116e5760405162461bcd60e51b815260206004820152603260248201527f4552433732313a207472616e7366657220746f206e6f6e20455243373231526560448201527131b2b4bb32b91034b6b83632b6b2b73a32b960711b6064820152608401610453565b805181602001fd5b6001600160e01b031916630a85bd0160e11b1490506109cd565b506001949350505050565b60606111a682610884565b60006111bd60408051602081019091526000815290565b905060008151116111dd57604051806020016040528060008152506107fe565b806111e78461132f565b6040516020016111f8929190611a20565b6040516020818303038152906040529392505050565b61121883836113cf565b611225600084848461104f565b6104f45760405162461bcd60e51b815260206004820152603260248201527f4552433732313a207472616e7366657220746f206e6f6e20455243373231526560448201527131b2b4bb32b91034b6b83632b6b2b73a32b960711b6064820152608401610453565b60006112978261061f565b90506112a7816000846001610f87565b6112b08261061f565b600083815260046020908152604080832080546001600160a01b03199081169091556001600160a01b0385168085526003845282852080546000190190558785526002909352818420805490911690555192935084927fddf252ad1be2c89b69c2b068fc378daa952ba7f163c4a11628f55a4df523b3ef908390a45050565b6060600061133c83611568565b600101905060008167ffffffffffffffff81111561135c5761135c611820565b6040519080825280601f01601f191660200182016040528015611386576020820181803683370190505b5090508181016020015b600019017f3031323334353637383961626364656600000000000000000000000000000000600a86061a8153600a850494508461139057509392505050565b6001600160a01b0382166114255760405162461bcd60e51b815260206004820181905260248201527f4552433732313a206d696e7420746f20746865207a65726f20616464726573736044820152606401610453565b6000818152600260205260409020546001600160a01b03161561148a5760405162461bcd60e51b815260206004820152601c60248201527f4552433732313a20746f6b656e20616c7265616479206d696e746564000000006044820152606401610453565b611498600083836001610f87565b6000818152600260205260409020546001600160a01b0316156114fd5760405162461bcd60e51b815260206004820152601c60248201527f4552433732313a20746f6b656e20616c7265616479206d696e746564000000006044820152606401610453565b6001600160a01b038216600081815260036020908152604080832080546001019055848352600290915280822080546001600160a01b0319168417905551839291907fddf252ad1be2c89b69c2b068fc378daa952ba7f163c4a11628f55a4df523b3ef908290a45050565b6000807a184f03e93ff9f4daa797ed6e38ed64bf6a1f01000000000000000083106115b1577a184f03e93ff9f4daa797ed6e38ed64bf6a1f010000000000000000830492506040015b6d04ee2d6d415b85acef810000000083106115dd576d04ee2d6d415b85acef8100000000830492506020015b662386f26fc1000083106115fb57662386f26fc10000830492506010015b6305f5e1008310611613576305f5e100830492506008015b612710831061162757612710830492506004015b60648310611639576064830492506002015b600a83106103205760010192915050565b508054611656906119bd565b6000825580601f10611666575050565b601f01602090049060005260206000209081019061060091905b808211156116945760008155600101611680565b5090565b6001600160e01b03198116811461060057600080fd5b6000602082840312156116c057600080fd5b81356107fe81611698565b60005b838110156116e65781810151838201526020016116ce565b50506000910152565b600081518084526117078160208601602086016116cb565b601f01601f19169290920160200192915050565b6020815260006107fe60208301846116ef565b60006020828403121561174057600080fd5b5035919050565b80356001600160a01b038116811461175e57600080fd5b919050565b6000806040838503121561177657600080fd5b61177f83611747565b946020939093013593505050565b6000806000606084860312156117a257600080fd5b6117ab84611747565b92506117b960208501611747565b9150604084013590509250925092565b6000602082840312156117db57600080fd5b6107fe82611747565b600080604083850312156117f757600080fd5b61180083611747565b91506020830135801515811461181557600080fd5b809150509250929050565b634e487b7160e01b600052604160045260246000fd5b600067ffffffffffffffff8084111561185157611851611820565b604051601f8501601f19908116603f0116810190828211818310171561187957611879611820565b8160405280935085815286868601111561189257600080fd5b858560208301376000602087830101525050509392505050565b600080600080608085870312156118c257600080fd5b6118cb85611747565b93506118d960208601611747565b925060408501359150606085013567ffffffffffffffff8111156118fc57600080fd5b8501601f8101871361190d57600080fd5b61191c87823560208401611836565b91505092959194509250565b6000806040838503121561193b57600080fd5b61194483611747565b9150602083013567ffffffffffffffff81111561196057600080fd5b8301601f8101851361197157600080fd5b61198085823560208401611836565b9150509250929050565b6000806040838503121561199d57600080fd5b6119a683611747565b91506119b460208401611747565b90509250929050565b600181811c908216806119d157607f821691505b6020821081036119f157634e487b7160e01b600052602260045260246000fd5b50919050565b634e487b7160e01b600052601160045260246000fd5b81810381811115610320576103206119f7565b60008351611a328184602088016116cb565b835190830190611a468183602088016116cb565b01949350505050565b601f8211156104f457600081815260208120601f850160051c81016020861015611a765750805b601f850160051c820191505b81811015611a9557828155600101611a82565b505050505050565b815167ffffffffffffffff811115611ab757611ab7611820565b611acb81611ac584546119bd565b84611a4f565b602080601f831160018114611b005760008415611ae85750858301515b600019600386901b1c1916600185901b178555611a95565b600085815260208120601f198616915b82811015611b2f57888601518255948401946001909101908401611b10565b5085821015611b4d5787850151600019600388901b60f8161c191681555b5050505050600190811b01905550565b80820180821115610320576103206119f7565b60006001600160a01b03808716835280861660208401525083604083015260806060830152611ba260808301846116ef565b9695505050505050565b600060208284031215611bbe57600080fd5b81516107fe8161169856fea26469706673582212202cd12f3504a8a6834a7fce7561ab6806a55248c03f26962d24ab5bafe23fda4764736f6c63430008110033a2646970667358221220f63a7efaca5a9aca65406f35ca4e37fc5f35786004881a60eb18b1330246099464736f6c63430008110033",
  "linkReferences": {},
  "deployedLinkReferences": {}
}