{
  "_format": "hh-sol-artifact-1",
  "contractName": "MarketPlace",
  "sourceName": "contracts/MarketPlace.sol",
  "abi": [
    {
      "inputs": [],
      "name": "MarketPlace__CannotBuyNFTThatIsNotForSale",
      "type": "error"
    },
    {
      "inputs": [],
      "name": "MarketPlace__CannotBuyOwnNFT",
      "type": "error"
    },
    {
      "inputs": [],
      "name": "MarketPlace__CannotMakeOfferOnOwnNFT",
      "type": "error"
    },
    {
      "inputs": [
        {
          "internalType": "address",
          "name": "to",
          "type": "address"
        }
      ],
      "name": "MarketPlace__CannotMintToZeroAddress",
      "type": "error"
    },
    {
      "inputs": [
        {
          "internalType": "address",
          "name": "collection",
          "type": "address"
        }
      ],
      "name": "MarketPlace__CollectionDoesNotExist",
      "type": "error"
    },
    {
      "inputs": [],
      "name": "MarketPlace__CollectionNameCannotBeEmpty",
      "type": "error"
    },
    {
      "inputs": [],
      "name": "MarketPlace__CollectionSymbolCannotBeEmpty",
      "type": "error"
    },
    {
      "inputs": [],
      "name": "MarketPlace__FundsAreZero",
      "type": "error"
    },
    {
      "inputs": [],
      "name": "MarketPlace__NFTNotForSale",
      "type": "error"
    },
    {
      "inputs": [],
      "name": "MarketPlace__OfferDoesNotExist",
      "type": "error"
    },
    {
      "inputs": [],
      "name": "MarketPlace__OfferedFundsAreLowerThenPrice",
      "type": "error"
    },
    {
      "inputs": [
        {
          "internalType": "address",
          "name": "collection",
          "type": "address"
        }
      ],
      "name": "MarketPlace__OnlyCollectionOwnerCanMint",
      "type": "error"
    },
    {
      "inputs": [],
      "name": "MarketPlace__OnlyOwnerCanSellNFT",
      "type": "error"
    },
    {
      "inputs": [],
      "name": "MarketPlace__PriceCannotBeZero",
      "type": "error"
    },
    {
      "anonymous": false,
      "inputs": [
        {
          "indexed": true,
          "internalType": "address",
          "name": "itemAddress",
          "type": "address"
        },
        {
          "indexed": true,
          "internalType": "address",
          "name": "owner",
          "type": "address"
        }
      ],
      "name": "MarketItemCreated",
      "type": "event"
    },
    {
      "anonymous": false,
      "inputs": [
        {
          "indexed": true,
          "internalType": "address",
          "name": "previousOwner",
          "type": "address"
        },
        {
          "indexed": true,
          "internalType": "address",
          "name": "newOwner",
          "type": "address"
        }
      ],
      "name": "OwnershipTransferred",
      "type": "event"
    },
    {
      "inputs": [
        {
          "internalType": "address",
          "name": "_collection",
          "type": "address"
        },
        {
          "internalType": "uint256",
          "name": "_tokenId",
          "type": "uint256"
        },
        {
          "internalType": "address",
          "name": "_buyer",
          "type": "address"
        }
      ],
      "name": "acceptOfferForNFT",
      "outputs": [],
      "stateMutability": "nonpayable",
      "type": "function"
    },
    {
      "inputs": [
        {
          "internalType": "address",
          "name": "_collection",
          "type": "address"
        },
        {
          "internalType": "uint256",
          "name": "_tokenId",
          "type": "uint256"
        }
      ],
      "name": "buyNFT",
      "outputs": [],
      "stateMutability": "payable",
      "type": "function"
    },
    {
      "inputs": [],
      "name": "collectionCount",
      "outputs": [
        {
          "internalType": "uint256",
          "name": "",
          "type": "uint256"
        }
      ],
      "stateMutability": "view",
      "type": "function"
    },
    {
      "inputs": [
        {
          "internalType": "address",
          "name": "",
          "type": "address"
        }
      ],
      "name": "collectionToOwner",
      "outputs": [
        {
          "internalType": "address",
          "name": "",
          "type": "address"
        }
      ],
      "stateMutability": "view",
      "type": "function"
    },
    {
      "inputs": [
        {
          "internalType": "uint256",
          "name": "",
          "type": "uint256"
        }
      ],
      "name": "collections",
      "outputs": [
        {
          "internalType": "address",
          "name": "",
          "type": "address"
        }
      ],
      "stateMutability": "view",
      "type": "function"
    },
    {
      "inputs": [
        {
          "internalType": "string",
          "name": "_name",
          "type": "string"
        },
        {
          "internalType": "string",
          "name": "_symbol",
          "type": "string"
        }
      ],
      "name": "createMarketItem",
      "outputs": [],
      "stateMutability": "nonpayable",
      "type": "function"
    },
    {
      "inputs": [
        {
          "internalType": "address",
          "name": "",
          "type": "address"
        },
        {
          "internalType": "address",
          "name": "",
          "type": "address"
        }
      ],
      "name": "doesUserOwnNFTInCollection",
      "outputs": [
        {
          "internalType": "bool",
          "name": "",
          "type": "bool"
        }
      ],
      "stateMutability": "view",
      "type": "function"
    },
    {
      "inputs": [
        {
          "internalType": "address",
          "name": "_owner",
          "type": "address"
        }
      ],
      "name": "getCollectionByUser",
      "outputs": [
        {
          "internalType": "address[]",
          "name": "",
          "type": "address[]"
        }
      ],
      "stateMutability": "view",
      "type": "function"
    },
    {
      "inputs": [],
      "name": "getCollections",
      "outputs": [
        {
          "internalType": "address[]",
          "name": "",
          "type": "address[]"
        }
      ],
      "stateMutability": "view",
      "type": "function"
    },
    {
      "inputs": [
        {
          "internalType": "address",
          "name": "_owner",
          "type": "address"
        }
      ],
      "name": "getCollectionsForOwner",
      "outputs": [
        {
          "internalType": "address[]",
          "name": "",
          "type": "address[]"
        }
      ],
      "stateMutability": "view",
      "type": "function"
    },
    {
      "inputs": [
        {
          "internalType": "address",
          "name": "_collection",
          "type": "address"
        }
      ],
      "name": "getOwnerOfCollection",
      "outputs": [
        {
          "internalType": "address",
          "name": "",
          "type": "address"
        }
      ],
      "stateMutability": "view",
      "type": "function"
    },
    {
      "inputs": [
        {
          "internalType": "address",
          "name": "_user",
          "type": "address"
        },
        {
          "internalType": "address",
          "name": "_collection",
          "type": "address"
        },
        {
          "internalType": "uint256",
          "name": "_tokenId",
          "type": "uint256"
        }
      ],
      "name": "hasUserMadeOfferOnNFT",
      "outputs": [
        {
          "internalType": "bool",
          "name": "",
          "type": "bool"
        }
      ],
      "stateMutability": "view",
      "type": "function"
    },
    {
      "inputs": [
        {
          "internalType": "address",
          "name": "_collection",
          "type": "address"
        },
        {
          "internalType": "uint256",
          "name": "_tokenId",
          "type": "uint256"
        }
      ],
      "name": "makeOfferForNFT",
      "outputs": [],
      "stateMutability": "payable",
      "type": "function"
    },
    {
      "inputs": [],
      "name": "marketPlacePercentage",
      "outputs": [
        {
          "internalType": "uint256",
          "name": "",
          "type": "uint256"
        }
      ],
      "stateMutability": "view",
      "type": "function"
    },
    {
      "inputs": [
        {
          "internalType": "address",
          "name": "_collection",
          "type": "address"
        },
        {
          "internalType": "address",
          "name": "_to",
          "type": "address"
        },
        {
          "internalType": "string",
          "name": "_tokenURI",
          "type": "string"
        }
      ],
      "name": "mintNFT",
      "outputs": [],
      "stateMutability": "nonpayable",
      "type": "function"
    },
    {
      "inputs": [
        {
          "internalType": "address",
          "name": "",
          "type": "address"
        },
        {
          "internalType": "uint256",
          "name": "",
          "type": "uint256"
        },
        {
          "internalType": "uint256",
          "name": "",
          "type": "uint256"
        }
      ],
      "name": "nftToOffers",
      "outputs": [
        {
          "internalType": "address",
          "name": "buyer",
          "type": "address"
        },
        {
          "internalType": "uint256",
          "name": "price",
          "type": "uint256"
        }
      ],
      "stateMutability": "view",
      "type": "function"
    },
    {
      "inputs": [
        {
          "internalType": "address",
          "name": "",
          "type": "address"
        },
        {
          "internalType": "uint256",
          "name": "",
          "type": "uint256"
        }
      ],
      "name": "nfts",
      "outputs": [
        {
          "internalType": "address",
          "name": "collection",
          "type": "address"
        },
        {
          "internalType": "address",
          "name": "owner",
          "type": "address"
        },
        {
          "internalType": "uint256",
          "name": "tokenId",
          "type": "uint256"
        },
        {
          "internalType": "uint256",
          "name": "price",
          "type": "uint256"
        },
        {
          "internalType": "bool",
          "name": "isForSale",
          "type": "bool"
        }
      ],
      "stateMutability": "view",
      "type": "function"
    },
    {
      "inputs": [],
      "name": "owner",
      "outputs": [
        {
          "internalType": "address",
          "name": "",
          "type": "address"
        }
      ],
      "stateMutability": "view",
      "type": "function"
    },
    {
      "inputs": [
        {
          "internalType": "address",
          "name": "",
          "type": "address"
        },
        {
          "internalType": "uint256",
          "name": "",
          "type": "uint256"
        }
      ],
      "name": "ownerToCollections",
      "outputs": [
        {
          "internalType": "address",
          "name": "",
          "type": "address"
        }
      ],
      "stateMutability": "view",
      "type": "function"
    },
    {
      "inputs": [
        {
          "internalType": "address",
          "name": "_owner",
          "type": "address"
        }
      ],
      "name": "ownerToNFTs",
      "outputs": [
        {
          "components": [
            {
              "internalType": "address",
              "name": "collection",
              "type": "address"
            },
            {
              "internalType": "address",
              "name": "owner",
              "type": "address"
            },
            {
              "internalType": "uint256",
              "name": "tokenId",
              "type": "uint256"
            },
            {
              "internalType": "uint256",
              "name": "price",
              "type": "uint256"
            },
            {
              "internalType": "bool",
              "name": "isForSale",
              "type": "bool"
            }
          ],
          "internalType": "struct MarketPlace.NFT[]",
          "name": "",
          "type": "tuple[]"
        }
      ],
      "stateMutability": "view",
      "type": "function"
    },
    {
      "inputs": [
        {
          "internalType": "address",
          "name": "_collection",
          "type": "address"
        },
        {
          "internalType": "uint256",
          "name": "_tokenId",
          "type": "uint256"
        },
        {
          "internalType": "uint256",
          "name": "_price",
          "type": "uint256"
        }
      ],
      "name": "putNFTForSale",
      "outputs": [],
      "stateMutability": "nonpayable",
      "type": "function"
    },
    {
      "inputs": [
        {
          "internalType": "address",
          "name": "_collection",
          "type": "address"
        },
        {
          "internalType": "uint256",
          "name": "_tokenId",
          "type": "uint256"
        },
        {
          "internalType": "address",
          "name": "_buyer",
          "type": "address"
        }
      ],
      "name": "rejectOfferForNFT",
      "outputs": [],
      "stateMutability": "nonpayable",
      "type": "function"
    },
    {
      "inputs": [
        {
          "internalType": "address",
          "name": "_collection",
          "type": "address"
        },
        {
          "internalType": "uint256",
          "name": "_tokenId",
          "type": "uint256"
        }
      ],
      "name": "removeNFTFromSale",
      "outputs": [],
      "stateMutability": "nonpayable",
      "type": "function"
    },
    {
      "inputs": [],
      "name": "renounceOwnership",
      "outputs": [],
      "stateMutability": "nonpayable",
      "type": "function"
    },
    {
      "inputs": [],
      "name": "totalNFTCount",
      "outputs": [
        {
          "internalType": "uint256",
          "name": "",
          "type": "uint256"
        }
      ],
      "stateMutability": "view",
      "type": "function"
    },
    {
      "inputs": [
        {
          "internalType": "address",
          "name": "newOwner",
          "type": "address"
        }
      ],
      "name": "transferOwnership",
      "outputs": [],
      "stateMutability": "nonpayable",
      "type": "function"
    },
    {
      "inputs": [
        {
          "internalType": "address",
          "name": "",
          "type": "address"
        },
        {
          "internalType": "uint256",
          "name": "",
          "type": "uint256"
        }
      ],
      "name": "userToOwnedCollections",
      "outputs": [
        {
          "internalType": "address",
          "name": "",
          "type": "address"
        }
      ],
      "stateMutability": "view",
      "type": "function"
    },
    {
      "inputs": [
        {
          "internalType": "address",
          "name": "_collection",
          "type": "address"
        },
        {
          "internalType": "uint256",
          "name": "_tokenId",
          "type": "uint256"
        }
      ],
      "name": "widthdrawOfferForNFT",
      "outputs": [],
      "stateMutability": "nonpayable",
      "type": "function"
    },
    {
      "inputs": [],
      "name": "withdrawMarketPlaceProfit",
      "outputs": [],
      "stateMutability": "nonpayable",
      "type": "function"
    }
  ],
  "bytecode": "0x6080604052600a600355600060045534801561001a57600080fd5b5061002433610029565b610079565b600080546001600160a01b038381166001600160a01b0319831681178455604051919092169283917f8be0079c531659141344cd1fd0a4f28419497f9722a3daafe3b4186f6b6457e09190a35050565b614a2380620000896000396000f3fe608060405260043610620001e75760003560e01c80636bfbb225116200010b578063a82ba76f11620000a1578063de94421f116200006c578063de94421f1462000664578063f2fde38b146200067c578063fa33331e14620006a1578063fdbda0ec14620006c657600080fd5b8063a82ba76f14620005eb578063b37a64241462000602578063ced4cc9f1462000627578063d57f966b146200064c57600080fd5b80637c818f5411620000e25780637c818f54146200053c57806381dae58e1462000561578063861b43f914620005a65780638da5cb5b14620005cb57600080fd5b80636bfbb22514620004e75780636f82d78a14620004ff578063715018a6146200052457600080fd5b806340045db6116200018157806348d79ed4116200015857806348d79ed4146200043b5780635c793d65146200046057806362081712146200048557806366ca3cd314620004c257600080fd5b806340045db6146200032357806343af356b146200037657806346e63586146200041457600080fd5b806335697d1f11620001c257806335697d1f146200029b578063367d048914620002c057806337aebc9114620002e757806337f9accd14620002fe57600080fd5b80630223abc314620001ec5780630ce4180014620002405780631cd33cc61462000267575b600080fd5b348015620001f957600080fd5b506200022b6200020b36600462002501565b600860209081526000928352604080842090915290825290205460ff1681565b60405190151581526020015b60405180910390f35b3480156200024d57600080fd5b50620002656200025f366004620025ea565b620006eb565b005b3480156200027457600080fd5b506200028c6200028636600462002655565b6200089c565b6040516200023791906200267c565b348015620002a857600080fd5b5062000265620002ba366004620026fa565b62000952565b348015620002cd57600080fd5b50620002d862000aa3565b60405190815260200162000237565b62000265620002f8366004620026fa565b62000ab4565b3480156200030b57600080fd5b50620002656200031d366004620026fa565b62000cd8565b3480156200033057600080fd5b506200035d6200034236600462002655565b6005602052600090815260409020546001600160a01b031681565b6040516001600160a01b03909116815260200162000237565b3480156200038357600080fd5b50620003de62000395366004620026fa565b600a602090815260009283526040808420909152908252902080546001820154600283015460038401546004909401546001600160a01b03938416949390921692909160ff1685565b604080516001600160a01b0396871681529590941660208601529284019190915260608301521515608082015260a00162000237565b3480156200042157600080fd5b506200042c620010bb565b60405162000237919062002729565b3480156200044857600080fd5b506200035d6200045a366004620026fa565b6200111f565b3480156200046d57600080fd5b50620002656200047f36600462002778565b62001158565b3480156200049257600080fd5b506200035d620004a436600462002655565b6001600160a01b039081166000908152600560205260409020541690565b348015620004cf57600080fd5b506200042c620004e136600462002655565b62001564565b348015620004f457600080fd5b50620002d860035481565b3480156200050c57600080fd5b506200035d6200051e366004620026fa565b620015dc565b3480156200053157600080fd5b5062000265620015f9565b3480156200054957600080fd5b50620002656200055b366004620027bf565b62001611565b3480156200056e57600080fd5b50620005866200058036600462002829565b62001913565b604080516001600160a01b03909316835260208301919091520162000237565b348015620005b357600080fd5b5062000265620005c536600462002829565b62001968565b348015620005d857600080fd5b506000546001600160a01b03166200035d565b62000265620005fc366004620026fa565b62001a5f565b3480156200060f57600080fd5b50620002656200062136600462002778565b62001d68565b3480156200063457600080fd5b506200022b6200064636600462002861565b62002256565b3480156200065957600080fd5b50620002d8620022cc565b3480156200067157600080fd5b5062000265620022d8565b3480156200068957600080fd5b50620002656200069b36600462002655565b62002314565b348015620006ae57600080fd5b506200042c620006c036600462002655565b62002390565b348015620006d357600080fd5b506200035d620006e5366004620028a7565b62002406565b604080516020808201909252600090528251908301207f3a2db9fe7908dcc36d81824d2338fc3f1aff49ac357dd8c4840527fba27a5b900162000741576040516340a199b160e11b815260040160405180910390fd5b604080516020808201909252600090528151908201207f3a2db9fe7908dcc36d81824d2338fc3f1aff49ac357dd8c4840527fba27a5b9001620007965760405162cc9d3160e51b815260040160405180910390fd5b60008282604051620007a890620024dd565b620007b592919062002915565b604051809103906000f080158015620007d2573d6000803e3d6000fd5b50600e805460018082019092557fbb7b4a454dc3493923482f07822329ed19e8244eff582cc204f8554c3620c3fd0180546001600160a01b0384166001600160a01b031991821681179092556000828152600560209081526040808320805485163390811790915583526006825282208054808701825590835291200180549091169091179055805481019055905060405133906001600160a01b038316907f2ed77352da7fdb0e1292e9bc4154a60dc6c6b52750d3b62d3b1e58cd10f3047f90600090a3505050565b6001600160a01b0381166000908152600960209081526040808320805482518185028101850190935280835260609492939192909184015b82821015620009475760008481526020908190206040805160a0810182526005860290920180546001600160a01b03908116845260018083015490911684860152600282015492840192909252600381015460608401526004015460ff16151560808301529083529092019101620008d4565b505050509050919050565b6001600160a01b038281166000818152600a60209081526040808320868452825291829020825160a0810184528154861681526001820154909516918501919091526002810154848301526003810154606085015260049081015460ff161515608085015290516331a9108f60e11b81529081018490528492913391636352211e90602401602060405180830381865afa158015620009f5573d6000803e3d6000fd5b505050506040513d601f19601f8201168201806040525081019062000a1b919062002947565b6001600160a01b03161462000a4357604051633fca4a7b60e11b815260040160405180910390fd5b806080015162000a66576040516351f3e85f60e11b815260040160405180910390fd5b50506001600160a01b03919091166000908152600a602090815260408083209383529290529081206003810191909155600401805460ff19169055565b600062000aaf60025490565b905090565b6040516331a9108f60e11b815260048101829052829033906001600160a01b03831690636352211e90602401602060405180830381865afa15801562000afe573d6000803e3d6000fd5b505050506040513d601f19601f8201168201806040525081019062000b24919062002947565b6001600160a01b03160362000b4c5760405163a2c4efc360e01b815260040160405180910390fd5b3460000362000b6e5760405163605f459360e11b815260040160405180910390fd5b6001600160a01b038381166000908152600b6020908152604080832086845282528083208151808301835233808252348286019081528354600180820186559488528688209351600290910290930180546001600160a01b03191693909816929092178755905195820195909555938352600c82529182902091516001600160601b0319606088901b16918101919091526034810185905260540160408051601f198184030181529082905262000c259162002967565b9081526040805160209281900383019020805460ff1916931515939093179092556001600160a01b0385166000908152600b8252828120858252909152205462000c72906001906200299b565b336000908152600d602090815260409182902091516001600160601b0319606088901b16918101919091526034810185905260540160408051601f198184030181529082905262000cc39162002967565b90815260405190819003602001902055505050565b6040516331a9108f60e11b815260048101829052829033906001600160a01b03831690636352211e90602401602060405180830381865afa15801562000d22573d6000803e3d6000fd5b505050506040513d601f19601f8201168201806040525081019062000d48919062002947565b6001600160a01b03160362000d705760405163a2c4efc360e01b815260040160405180910390fd5b336000908152600c602090815260409182902091516001600160601b0319606087901b16918101919091526034810184905260540160408051601f198184030181529082905262000dc19162002967565b9081526040519081900360200190205460ff1662000df257604051630586ae5f60e51b815260040160405180910390fd5b336000908152600d6020908152604080832090516001600160601b0319606088901b1692810192909252603482018590529060540160408051601f198184030181529082905262000e439162002967565b9081526040805160209281900383019020546001600160a01b0387166000908152600b84528281208782529093529082208054919350908390811062000e8d5762000e8d620029b7565b60009182526020808320604080518082018252600290940290910180546001600160a01b039081168552600190910154848401528981168552600b83528185208986529092529092205481519193509116331462000efe57604051630586ae5f60e51b815260040160405180910390fd5b6001600160a01b0386166000908152600b60209081526040808320888452909152902062000f2e6001836200299b565b8154811062000f415762000f41620029b7565b600091825260208083206001600160a01b038a168452600b825260408085208a865290925292208054600290920290920191908590811062000f875762000f87620029b7565b60009182526020808320845460029093020180546001600160a01b0319166001600160a01b03938416178155600194850154908501559089168252600b8152604080832089845290915290209062000fe090836200299b565b8154811062000ff35762000ff3620029b7565b6000918252602080832060029290920290910180546001600160a01b0319168155600101829055338252600c8152604080832090516001600160601b031960608b901b1692810192909252603482018890529060540160408051601f1981840301815290829052620010659162002967565b90815260405160209181900382018120805460ff19169315159390931790925583015133916108fc82150291906000818181858888f19350505050158015620010b2573d6000803e3d6000fd5b50505050505050565b6060600e8054806020026020016040519081016040528092919081815260200182805480156200111557602002820191906000526020600020905b81546001600160a01b03168152600190910190602001808311620010f6575b5050505050905090565b600660205281600052604060002081815481106200113c57600080fd5b6000918252602090912001546001600160a01b03169150829050565b6040516331a9108f60e11b815260048101839052839033906001600160a01b03831690636352211e90602401602060405180830381865afa158015620011a2573d6000803e3d6000fd5b505050506040513d601f19601f82011682018060405250810190620011c8919062002947565b6001600160a01b031614620011f057604051633fca4a7b60e11b815260040160405180910390fd5b6001600160a01b0382166000908152600c602090815260409182902091516001600160601b0319606088901b16918101919091526034810185905260540160408051601f19818403018152908290526200124a9162002967565b9081526040519081900360200190205460ff166200127b57604051630586ae5f60e51b815260040160405180910390fd5b6001600160a01b0382166000908152600d6020908152604080832090516001600160601b0319606089901b1692810192909252603482018690529060540160408051601f1981840301815290829052620012d59162002967565b9081526040805160209281900383019020546001600160a01b0388166000908152600b8452828120888252909352908220805491935090839081106200131f576200131f620029b7565b60009182526020808320604080518082018252600290940290910180546001600160a01b039081168552600190910154848401528a81168552600b83528185208a865290925290922054815191935091908116908616146200139457604051630586ae5f60e51b815260040160405180910390fd5b6001600160a01b0387166000908152600b602090815260408083208984529091529020620013c46001836200299b565b81548110620013d757620013d7620029b7565b600091825260208083206001600160a01b038b168452600b825260408085208b86529092529220805460029092029092019190859081106200141d576200141d620029b7565b60009182526020808320845460029093020180546001600160a01b0319166001600160a01b0393841617815560019485015490850155908a168252600b815260408083208a84529091529020906200147690836200299b565b81548110620014895762001489620029b7565b6000918252602080832060029290920290910180546001600160a01b03191681556001018290556001600160a01b0387168252600c8152604080832090516001600160601b031960608c901b1692810192909252603482018990529060540160408051601f1981840301815290829052620015049162002967565b90815260405160209181900382018120805460ff1916931515939093179092558301516001600160a01b038716916108fc82150291906000818181858888f193505050501580156200155a573d6000803e3d6000fd5b5050505050505050565b6001600160a01b038116600090815260066020908152604091829020805483518184028101840190945280845260609392830182828015620015d057602002820191906000526020600020905b81546001600160a01b03168152600190910190602001808311620015b1575b50505050509050919050565b600760205281600052604060002081815481106200113c57600080fd5b6200160362002431565b6200160f60006200248d565b565b6001600160a01b0380841660009081526005602052604090205416806200165b576040516342eaab2560e01b81526001600160a01b03851660048201526024015b60405180910390fd5b6001600160a01b0381163314620016915760405163cd33301160e01b81526001600160a01b038516600482015260240162001652565b6001600160a01b038316620016c55760405163f56d767160e01b81526001600160a01b038416600482015260240162001652565b604051636902622f60e11b815284906000906001600160a01b0383169063d204c45e90620016fa9088908890600401620029cd565b6020604051808303816000875af11580156200171a573d6000803e3d6000fd5b505050506040513d601f19601f82011682018060405250810190620017409190620029f9565b6040805160a0810182526001600160a01b03808a16808352898216602080850182815285870188815260006060880181815260808901828152878352600a86528a83208c845286528a832099518a54908a166001600160a01b0319918216178b55945160018b01805491909a169516949094179097559051600288015594516003870155516004909501805495151560ff1990961695909517909455825260088352838220908252909152205490915060ff168062001859576001600160a01b0386811660008181526007602090815260408083208054600180820183559185528385200180546001600160a01b031916968e1696871790559383526008825280832094835293905291909120805460ff191690911790555b6001600160a01b038087166000818152600960209081526040808320815160a0810183528d871681528084019586529182018881526060830185815260808401868152835460018181018655948852959096209351600590950290930180549488166001600160a01b0319958616178155955191860180549290971691909316179094555160028084019190915592516003830155516004909101805491151560ff19909216919091179055620010b29080546001019055565b600b60205282600052604060002060205281600052604060002081815481106200193c57600080fd5b6000918252602090912060029091020180546001909101546001600160a01b0390911693509150839050565b6040516331a9108f60e11b815260048101839052839033906001600160a01b03831690636352211e90602401602060405180830381865afa158015620019b2573d6000803e3d6000fd5b505050506040513d601f19601f82011682018060405250810190620019d8919062002947565b6001600160a01b03161462001a0057604051633fca4a7b60e11b815260040160405180910390fd5b8160000362001a225760405163605f459360e11b815260040160405180910390fd5b506001600160a01b03929092166000908152600a60209081526040808320938352929052206003810191909155600401805460ff19166001179055565b6040516331a9108f60e11b815260048101829052829033906001600160a01b03831690636352211e90602401602060405180830381865afa15801562001aa9573d6000803e3d6000fd5b505050506040513d601f19601f8201168201806040525081019062001acf919062002947565b6001600160a01b03160362001af757604051630c6fa48560e41b815260040160405180910390fd5b3460000362001b19576040516350b8b33d60e11b815260040160405180910390fd5b6001600160a01b038084166000908152600a60209081526040808320868452825291829020825160a081018452815485168152600182015490941691840191909152600281015491830191909152600381015460608301526004015460ff1615156080820181905262001b9f57604051634d93c24160e01b815260040160405180910390fd5b806060015134101562001bc557604051634c6d953160e01b815260040160405180910390fd5b6040516331a9108f60e11b8152600481018490526000906001600160a01b03841690636352211e90602401602060405180830381865afa15801562001c0e573d6000803e3d6000fd5b505050506040513d601f19601f8201168201806040525081019062001c34919062002947565b604051632142170760e11b81526001600160a01b03808316600483015233602483015260448201879052919250908416906342842e0e90606401600060405180830381600087803b15801562001c8957600080fd5b505af115801562001c9e573d6000803e3d6000fd5b505050506001600160a01b0385166000908152600a6020908152604080832087845290915281206001810180546001600160a01b03191633179055346003808301919091556004909101805460ff191690555462001cff9060649062002a13565b62001d0b903462002a36565b9050806004600082825462001d21919062002a50565b90915550506001600160a01b0382166108fc62001d3f83346200299b565b6040518115909202916000818181858888f19350505050158015620010b2573d6000803e3d6000fd5b6040516331a9108f60e11b815260048101839052839033906001600160a01b03831690636352211e90602401602060405180830381865afa15801562001db2573d6000803e3d6000fd5b505050506040513d601f19601f8201168201806040525081019062001dd8919062002947565b6001600160a01b03161462001e0057604051633fca4a7b60e11b815260040160405180910390fd5b6001600160a01b0382166000908152600c602090815260409182902091516001600160601b0319606088901b16918101919091526034810185905260540160408051601f198184030181529082905262001e5a9162002967565b9081526040519081900360200190205460ff1662001e8b57604051630586ae5f60e51b815260040160405180910390fd5b6001600160a01b0382166000908152600d6020908152604080832090516001600160601b0319606089901b1692810192909252603482018690529060540160408051601f198184030181529082905262001ee59162002967565b9081526040805160209281900383019020546001600160a01b0388166000908152600b84528281208882529093529082208054919350908390811062001f2f5762001f2f620029b7565b60009182526020808320604080518082018252600290940290910180546001600160a01b039081168552600190910154848401528a81168552600b83528185208a8652909252909220548151919350919081169086161462001fa457604051630586ae5f60e51b815260040160405180910390fd5b604051632142170760e11b81523360048201526001600160a01b038681166024830152604482018890528516906342842e0e90606401600060405180830381600087803b15801562001ff557600080fd5b505af11580156200200a573d6000803e3d6000fd5b505050506001600160a01b038781166000818152600a602090815260408083208b84528252808320600190810180546001600160a01b031916968c1696909617909555928252600b81528282208a8352905220906200206a90836200299b565b815481106200207d576200207d620029b7565b600091825260208083206001600160a01b038b168452600b825260408085208b8652909252922080546002909202909201919085908110620020c357620020c3620029b7565b60009182526020808320845460029093020180546001600160a01b0319166001600160a01b0393841617815560019485015490850155908a168252600b815260408083208a84529091529020906200211c90836200299b565b815481106200212f576200212f620029b7565b6000918252602080832060029290920290910180546001600160a01b03191681556001018290556001600160a01b0387168252600c8152604080832090516001600160601b031960608c901b1692810192909252603482018990529060540160408051601f1981840301815290829052620021aa9162002967565b908152604051908190036020019020805491151560ff19909216919091179055600354600090620021de9060649062002a13565b8360200151620021ef919062002a36565b9050806004600082825462002205919062002a50565b9091555050602083015133906108fc90620022229084906200299b565b6040518115909202916000818181858888f193505050501580156200224b573d6000803e3d6000fd5b505050505050505050565b6001600160a01b0383166000908152600c6020908152604080832090516001600160601b0319606087901b1692810192909252603482018490529060540160408051601f1981840301815290829052620022b09162002967565b9081526040519081900360200190205460ff1690509392505050565b600062000aaf60015490565b620022e262002431565b600454604051339180156108fc02916000818181858888f1935050505015801562002311573d6000803e3d6000fd5b50565b6200231e62002431565b6001600160a01b038116620023855760405162461bcd60e51b815260206004820152602660248201527f4f776e61626c653a206e6577206f776e657220697320746865207a65726f206160448201526564647265737360d01b606482015260840162001652565b62002311816200248d565b6001600160a01b038116600090815260076020908152604091829020805483518184028101840190945280845260609392830182828015620015d0576020028201919060005260206000209081546001600160a01b03168152600190910190602001808311620015b15750505050509050919050565b600e81815481106200241757600080fd5b6000918252602090912001546001600160a01b0316905081565b6000546001600160a01b031633146200160f5760405162461bcd60e51b815260206004820181905260248201527f4f776e61626c653a2063616c6c6572206973206e6f7420746865206f776e6572604482015260640162001652565b600080546001600160a01b038381166001600160a01b0319831681178455604051919092169283917f8be0079c531659141344cd1fd0a4f28419497f9722a3daafe3b4186f6b6457e09190a35050565b611f878062002a6783390190565b6001600160a01b03811681146200231157600080fd5b600080604083850312156200251557600080fd5b82356200252281620024eb565b915060208301356200253481620024eb565b809150509250929050565b634e487b7160e01b600052604160045260246000fd5b600082601f8301126200256757600080fd5b813567ffffffffffffffff808211156200258557620025856200253f565b604051601f8301601f19908116603f01168101908282118183101715620025b057620025b06200253f565b81604052838152866020858801011115620025ca57600080fd5b836020870160208301376000602085830101528094505050505092915050565b60008060408385031215620025fe57600080fd5b823567ffffffffffffffff808211156200261757600080fd5b620026258683870162002555565b935060208501359150808211156200263c57600080fd5b506200264b8582860162002555565b9150509250929050565b6000602082840312156200266857600080fd5b81356200267581620024eb565b9392505050565b602080825282518282018190526000919060409081850190868401855b82811015620026ed57815180516001600160a01b03908116865287820151168786015285810151868601526060808201519086015260809081015115159085015260a0909301929085019060010162002699565b5091979650505050505050565b600080604083850312156200270e57600080fd5b82356200271b81620024eb565b946020939093013593505050565b6020808252825182820181905260009190848201906040850190845b818110156200276c5783516001600160a01b03168352928401929184019160010162002745565b50909695505050505050565b6000806000606084860312156200278e57600080fd5b83356200279b81620024eb565b9250602084013591506040840135620027b481620024eb565b809150509250925092565b600080600060608486031215620027d557600080fd5b8335620027e281620024eb565b92506020840135620027f481620024eb565b9150604084013567ffffffffffffffff8111156200281157600080fd5b6200281f8682870162002555565b9150509250925092565b6000806000606084860312156200283f57600080fd5b83356200284c81620024eb565b95602085013595506040909401359392505050565b6000806000606084860312156200287757600080fd5b83356200288481620024eb565b925060208401356200289681620024eb565b929592945050506040919091013590565b600060208284031215620028ba57600080fd5b5035919050565b60005b83811015620028de578181015183820152602001620028c4565b50506000910152565b6000815180845262002901816020860160208601620028c1565b601f01601f19169290920160200192915050565b6040815260006200292a6040830185620028e7565b82810360208401526200293e8185620028e7565b95945050505050565b6000602082840312156200295a57600080fd5b81516200267581620024eb565b600082516200297b818460208701620028c1565b9190910192915050565b634e487b7160e01b600052601160045260246000fd5b81810381811115620029b157620029b162002985565b92915050565b634e487b7160e01b600052603260045260246000fd5b6001600160a01b0383168152604060208201526000620029f16040830184620028e7565b949350505050565b60006020828403121562002a0c57600080fd5b5051919050565b60008262002a3157634e487b7160e01b600052601260045260246000fd5b500490565b8082028115828204841417620029b157620029b162002985565b80820180821115620029b157620029b16200298556fe60806040523480156200001157600080fd5b5060405162001f8738038062001f878339810160408190526200003491620001b3565b81816000620000448382620002ac565b506001620000538282620002ac565b505050620000706200006a6200008f60201b60201c565b62000093565b620000876008620000e560201b6200087b1760201c565b505062000378565b3390565b600780546001600160a01b038381166001600160a01b0319831681179093556040519116919082907f8be0079c531659141344cd1fd0a4f28419497f9722a3daafe3b4186f6b6457e090600090a35050565b80546001019055565b634e487b7160e01b600052604160045260246000fd5b600082601f8301126200011657600080fd5b81516001600160401b0380821115620001335762000133620000ee565b604051601f8301601f19908116603f011681019082821181831017156200015e576200015e620000ee565b816040528381526020925086838588010111156200017b57600080fd5b600091505b838210156200019f578582018301518183018401529082019062000180565b600093810190920192909252949350505050565b60008060408385031215620001c757600080fd5b82516001600160401b0380821115620001df57600080fd5b620001ed8683870162000104565b935060208501519150808211156200020457600080fd5b50620002138582860162000104565b9150509250929050565b600181811c908216806200023257607f821691505b6020821081036200025357634e487b7160e01b600052602260045260246000fd5b50919050565b601f821115620002a757600081815260208120601f850160051c81016020861015620002825750805b601f850160051c820191505b81811015620002a3578281556001016200028e565b5050505b505050565b81516001600160401b03811115620002c857620002c8620000ee565b620002e081620002d984546200021d565b8462000259565b602080601f831160018114620003185760008415620002ff5750858301515b600019600386901b1c1916600185901b178555620002a3565b600085815260208120601f198616915b82811015620003495788860151825594840194600190910190840162000328565b5085821015620003685787850151600019600388901b60f8161c191681555b5050505050600190811b01905550565b611bff80620003886000396000f3fe608060405234801561001057600080fd5b50600436106101215760003560e01c806370a08231116100ad578063b88d4fde11610071578063b88d4fde1461024c578063c87b56dd1461025f578063d204c45e14610272578063e985e9c514610285578063f2fde38b146102c157600080fd5b806370a0823114610205578063715018a6146102185780638da5cb5b1461022057806395d89b4114610231578063a22cb4651461023957600080fd5b806323b872dd116100f457806323b872dd146101a357806342842e0e146101b657806342966c68146101c957806354279637146101dc5780636352211e146101f257600080fd5b806301ffc9a71461012657806306fdde031461014e578063081812fc14610163578063095ea7b31461018e575b600080fd5b6101396101343660046116ae565b6102d4565b60405190151581526020015b60405180910390f35b610156610326565b604051610145919061171b565b61017661017136600461172e565b6103b8565b6040516001600160a01b039091168152602001610145565b6101a161019c366004611763565b6103df565b005b6101a16101b136600461178d565b6104f9565b6101a16101c436600461178d565b610571565b6101a16101d736600461172e565b61058c565b6101e4610603565b604051908152602001610145565b61017661020036600461172e565b61061f565b6101e46102133660046117c9565b610684565b6101a161070a565b6007546001600160a01b0316610176565b61015661071e565b6101a16102473660046117e4565b61072d565b6101a161025a3660046118ac565b61073c565b61015661026d36600461172e565b6107ba565b6101e4610280366004611928565b6107c5565b61013961029336600461198a565b6001600160a01b03918216600090815260056020908152604080832093909416825291909152205460ff1690565b6101a16102cf3660046117c9565b610805565b60006001600160e01b031982166380ac58cd60e01b148061030557506001600160e01b03198216635b5e139f60e01b145b8061032057506301ffc9a760e01b6001600160e01b03198316145b92915050565b606060008054610335906119bd565b80601f0160208091040260200160405190810160405280929190818152602001828054610361906119bd565b80156103ae5780601f10610383576101008083540402835291602001916103ae565b820191906000526020600020905b81548152906001019060200180831161039157829003601f168201915b5050505050905090565b60006103c382610884565b506000908152600460205260409020546001600160a01b031690565b60006103ea8261061f565b9050806001600160a01b0316836001600160a01b03160361045c5760405162461bcd60e51b815260206004820152602160248201527f4552433732313a20617070726f76616c20746f2063757272656e74206f776e656044820152603960f91b60648201526084015b60405180910390fd5b336001600160a01b038216148061047857506104788133610293565b6104ea5760405162461bcd60e51b815260206004820152603d60248201527f4552433732313a20617070726f76652063616c6c6572206973206e6f7420746f60448201527f6b656e206f776e6572206f7220617070726f76656420666f7220616c6c0000006064820152608401610453565b6104f483836108e8565b505050565b610504335b82610956565b6105665760405162461bcd60e51b815260206004820152602d60248201527f4552433732313a2063616c6c6572206973206e6f7420746f6b656e206f776e6560448201526c1c881bdc88185c1c1c9bdd9959609a1b6064820152608401610453565b6104f48383836109d5565b6104f48383836040518060200160405280600081525061073c565b610595336104fe565b6105f75760405162461bcd60e51b815260206004820152602d60248201527f4552433732313a2063616c6c6572206973206e6f7420746f6b656e206f776e6560448201526c1c881bdc88185c1c1c9bdd9959609a1b6064820152608401610453565b61060081610bc2565b50565b6000600161061060085490565b61061a9190611a0d565b905090565b6000818152600260205260408120546001600160a01b0316806103205760405162461bcd60e51b815260206004820152601860248201527f4552433732313a20696e76616c696420746f6b656e20494400000000000000006044820152606401610453565b60006001600160a01b0382166106ee5760405162461bcd60e51b815260206004820152602960248201527f4552433732313a2061646472657373207a65726f206973206e6f7420612076616044820152683634b21037bbb732b960b91b6064820152608401610453565b506001600160a01b031660009081526003602052604090205490565b610712610bcb565b61071c6000610c25565b565b606060018054610335906119bd565b610738338383610c77565b5050565b6107463383610956565b6107a85760405162461bcd60e51b815260206004820152602d60248201527f4552433732313a2063616c6c6572206973206e6f7420746f6b656e206f776e6560448201526c1c881bdc88185c1c1c9bdd9959609a1b6064820152608401610453565b6107b484848484610d45565b50505050565b606061032082610dc3565b60006107cf610bcb565b60006107da60085490565b90506107ea600880546001019055565b6107f48482610ecb565b6107fe8184610ee5565b9392505050565b61080d610bcb565b6001600160a01b0381166108725760405162461bcd60e51b815260206004820152602660248201527f4f776e61626c653a206e6577206f776e657220697320746865207a65726f206160448201526564647265737360d01b6064820152608401610453565b61060081610c25565b80546001019055565b6000818152600260205260409020546001600160a01b03166106005760405162461bcd60e51b815260206004820152601860248201527f4552433732313a20696e76616c696420746f6b656e20494400000000000000006044820152606401610453565b600081815260046020526040902080546001600160a01b0319166001600160a01b038416908117909155819061091d8261061f565b6001600160a01b03167f8c5be1e5ebec7d5bd14f71427d1e84f3dd0314c0f7b2291e5b200ac8c7c3b92560405160405180910390a45050565b6000806109628361061f565b9050806001600160a01b0316846001600160a01b031614806109a957506001600160a01b0380821660009081526005602090815260408083209388168352929052205460ff165b806109cd5750836001600160a01b03166109c2846103b8565b6001600160a01b0316145b949350505050565b826001600160a01b03166109e88261061f565b6001600160a01b031614610a4c5760405162461bcd60e51b815260206004820152602560248201527f4552433732313a207472616e736665722066726f6d20696e636f72726563742060448201526437bbb732b960d91b6064820152608401610453565b6001600160a01b038216610aae5760405162461bcd60e51b8152602060048201526024808201527f4552433732313a207472616e7366657220746f20746865207a65726f206164646044820152637265737360e01b6064820152608401610453565b610abb8383836001610f87565b826001600160a01b0316610ace8261061f565b6001600160a01b031614610b325760405162461bcd60e51b815260206004820152602560248201527f4552433732313a207472616e736665722066726f6d20696e636f72726563742060448201526437bbb732b960d91b6064820152608401610453565b600081815260046020908152604080832080546001600160a01b03199081169091556001600160a01b0387811680865260038552838620805460001901905590871680865283862080546001019055868652600290945282852080549092168417909155905184937fddf252ad1be2c89b69c2b068fc378daa952ba7f163c4a11628f55a4df523b3ef91a4505050565b6106008161100f565b6007546001600160a01b0316331461071c5760405162461bcd60e51b815260206004820181905260248201527f4f776e61626c653a2063616c6c6572206973206e6f7420746865206f776e65726044820152606401610453565b600780546001600160a01b038381166001600160a01b0319831681179093556040519116919082907f8be0079c531659141344cd1fd0a4f28419497f9722a3daafe3b4186f6b6457e090600090a35050565b816001600160a01b0316836001600160a01b031603610cd85760405162461bcd60e51b815260206004820152601960248201527f4552433732313a20617070726f766520746f2063616c6c6572000000000000006044820152606401610453565b6001600160a01b03838116600081815260056020908152604080832094871680845294825291829020805460ff191686151590811790915591519182527f17307eab39ab6107e8899845ad3d59bd9653f200f220920489ca2b5937696c31910160405180910390a3505050565b610d508484846109d5565b610d5c8484848461104f565b6107b45760405162461bcd60e51b815260206004820152603260248201527f4552433732313a207472616e7366657220746f206e6f6e20455243373231526560448201527131b2b4bb32b91034b6b83632b6b2b73a32b960711b6064820152608401610453565b6060610dce82610884565b60008281526006602052604081208054610de7906119bd565b80601f0160208091040260200160405190810160405280929190818152602001828054610e13906119bd565b8015610e605780601f10610e3557610100808354040283529160200191610e60565b820191906000526020600020905b815481529060010190602001808311610e4357829003601f168201915b505050505090506000610e7e60408051602081019091526000815290565b90508051600003610e90575092915050565b815115610ec2578082604051602001610eaa929190611a20565b60405160208183030381529060405292505050919050565b6109cd8461119b565b61073882826040518060200160405280600081525061120e565b6000828152600260205260409020546001600160a01b0316610f6f5760405162461bcd60e51b815260206004820152602e60248201527f45524337323155524953746f726167653a2055524920736574206f66206e6f6e60448201527f6578697374656e7420746f6b656e0000000000000000000000000000000000006064820152608401610453565b60008281526006602052604090206104f48282611a9d565b60018111156107b4576001600160a01b03841615610fcd576001600160a01b03841660009081526003602052604081208054839290610fc7908490611a0d565b90915550505b6001600160a01b038316156107b4576001600160a01b03831660009081526003602052604081208054839290611004908490611b5d565b909155505050505050565b6110188161128c565b60008181526006602052604090208054611031906119bd565b1590506106005760008181526006602052604081206106009161164a565b60006001600160a01b0384163b1561119057604051630a85bd0160e11b81526001600160a01b0385169063150b7a0290611093903390899088908890600401611b70565b6020604051808303816000875af19250505080156110ce575060408051601f3d908101601f191682019092526110cb91810190611bac565b60015b611176573d8080156110fc576040519150601f19603f3d011682016040523d82523d6000602084013e611101565b606091505b50805160000361116e5760405162461bcd60e51b815260206004820152603260248201527f4552433732313a207472616e7366657220746f206e6f6e20455243373231526560448201527131b2b4bb32b91034b6b83632b6b2b73a32b960711b6064820152608401610453565b805181602001fd5b6001600160e01b031916630a85bd0160e11b1490506109cd565b506001949350505050565b60606111a682610884565b60006111bd60408051602081019091526000815290565b905060008151116111dd57604051806020016040528060008152506107fe565b806111e78461132f565b6040516020016111f8929190611a20565b6040516020818303038152906040529392505050565b61121883836113cf565b611225600084848461104f565b6104f45760405162461bcd60e51b815260206004820152603260248201527f4552433732313a207472616e7366657220746f206e6f6e20455243373231526560448201527131b2b4bb32b91034b6b83632b6b2b73a32b960711b6064820152608401610453565b60006112978261061f565b90506112a7816000846001610f87565b6112b08261061f565b600083815260046020908152604080832080546001600160a01b03199081169091556001600160a01b0385168085526003845282852080546000190190558785526002909352818420805490911690555192935084927fddf252ad1be2c89b69c2b068fc378daa952ba7f163c4a11628f55a4df523b3ef908390a45050565b6060600061133c83611568565b600101905060008167ffffffffffffffff81111561135c5761135c611820565b6040519080825280601f01601f191660200182016040528015611386576020820181803683370190505b5090508181016020015b600019017f3031323334353637383961626364656600000000000000000000000000000000600a86061a8153600a850494508461139057509392505050565b6001600160a01b0382166114255760405162461bcd60e51b815260206004820181905260248201527f4552433732313a206d696e7420746f20746865207a65726f20616464726573736044820152606401610453565b6000818152600260205260409020546001600160a01b03161561148a5760405162461bcd60e51b815260206004820152601c60248201527f4552433732313a20746f6b656e20616c7265616479206d696e746564000000006044820152606401610453565b611498600083836001610f87565b6000818152600260205260409020546001600160a01b0316156114fd5760405162461bcd60e51b815260206004820152601c60248201527f4552433732313a20746f6b656e20616c7265616479206d696e746564000000006044820152606401610453565b6001600160a01b038216600081815260036020908152604080832080546001019055848352600290915280822080546001600160a01b0319168417905551839291907fddf252ad1be2c89b69c2b068fc378daa952ba7f163c4a11628f55a4df523b3ef908290a45050565b6000807a184f03e93ff9f4daa797ed6e38ed64bf6a1f01000000000000000083106115b1577a184f03e93ff9f4daa797ed6e38ed64bf6a1f010000000000000000830492506040015b6d04ee2d6d415b85acef810000000083106115dd576d04ee2d6d415b85acef8100000000830492506020015b662386f26fc1000083106115fb57662386f26fc10000830492506010015b6305f5e1008310611613576305f5e100830492506008015b612710831061162757612710830492506004015b60648310611639576064830492506002015b600a83106103205760010192915050565b508054611656906119bd565b6000825580601f10611666575050565b601f01602090049060005260206000209081019061060091905b808211156116945760008155600101611680565b5090565b6001600160e01b03198116811461060057600080fd5b6000602082840312156116c057600080fd5b81356107fe81611698565b60005b838110156116e65781810151838201526020016116ce565b50506000910152565b600081518084526117078160208601602086016116cb565b601f01601f19169290920160200192915050565b6020815260006107fe60208301846116ef565b60006020828403121561174057600080fd5b5035919050565b80356001600160a01b038116811461175e57600080fd5b919050565b6000806040838503121561177657600080fd5b61177f83611747565b946020939093013593505050565b6000806000606084860312156117a257600080fd5b6117ab84611747565b92506117b960208501611747565b9150604084013590509250925092565b6000602082840312156117db57600080fd5b6107fe82611747565b600080604083850312156117f757600080fd5b61180083611747565b91506020830135801515811461181557600080fd5b809150509250929050565b634e487b7160e01b600052604160045260246000fd5b600067ffffffffffffffff8084111561185157611851611820565b604051601f8501601f19908116603f0116810190828211818310171561187957611879611820565b8160405280935085815286868601111561189257600080fd5b858560208301376000602087830101525050509392505050565b600080600080608085870312156118c257600080fd5b6118cb85611747565b93506118d960208601611747565b925060408501359150606085013567ffffffffffffffff8111156118fc57600080fd5b8501601f8101871361190d57600080fd5b61191c87823560208401611836565b91505092959194509250565b6000806040838503121561193b57600080fd5b61194483611747565b9150602083013567ffffffffffffffff81111561196057600080fd5b8301601f8101851361197157600080fd5b61198085823560208401611836565b9150509250929050565b6000806040838503121561199d57600080fd5b6119a683611747565b91506119b460208401611747565b90509250929050565b600181811c908216806119d157607f821691505b6020821081036119f157634e487b7160e01b600052602260045260246000fd5b50919050565b634e487b7160e01b600052601160045260246000fd5b81810381811115610320576103206119f7565b60008351611a328184602088016116cb565b835190830190611a468183602088016116cb565b01949350505050565b601f8211156104f457600081815260208120601f850160051c81016020861015611a765750805b601f850160051c820191505b81811015611a9557828155600101611a82565b505050505050565b815167ffffffffffffffff811115611ab757611ab7611820565b611acb81611ac584546119bd565b84611a4f565b602080601f831160018114611b005760008415611ae85750858301515b600019600386901b1c1916600185901b178555611a95565b600085815260208120601f198616915b82811015611b2f57888601518255948401946001909101908401611b10565b5085821015611b4d5787850151600019600388901b60f8161c191681555b5050505050600190811b01905550565b80820180821115610320576103206119f7565b60006001600160a01b03808716835280861660208401525083604083015260806060830152611ba260808301846116ef565b9695505050505050565b600060208284031215611bbe57600080fd5b81516107fe8161169856fea26469706673582212202cd12f3504a8a6834a7fce7561ab6806a55248c03f26962d24ab5bafe23fda4764736f6c63430008110033a2646970667358221220a202224688e98d15a69662a278e00c21d3039f7ddf0c4305bbb0ffdc2389f46764736f6c63430008110033",
  "linkReferences": {},
  "deployedLinkReferences": {}
}